:020000040800F2
:100000000050002095310008DD310008DD31000886
:10001000DD310008DD310008DD310008000000009E
:10002000000000000000000000000000DD310008BA
:10003000DD31000800000000DD310008EB08000899
:10004000DD310008DD310008DD310008DD31000858
:10005000DD310008DD310008DD310008DD31000848
:10006000DD310008DD310008DD310008DD31000838
:10007000DD310008DD310008DD310008DD31000828
:10008000DD310008DD310008DD310008DD31000818
:10009000DD310008DD310008DD310008DD31000808
:1000A000DD310008DD310008DD310008DD310008F8
:1000B000DD310008DD310008DD310008DD310008E8
:1000C000DD310008DD310008DD310008DD310008D8
:1000D000DD310008DD310008DD310008DD310008C8
:1000E000DD310008DD310008DD31000800000000CE
:1000F0000000000000000000000000000000000000
:0C01000000000000000000005FF808F1A3
:10010C00034613F8012B002AFBD1181A013870474B
:10011C000348044B834202D0034B03B1184770478A
:10012C005C0000205C000020000000000548064B2D
:10013C001B1AD90F01EBA301491002D0034B03B1D9
:10014C00184770475C0000205C0000200000000095
:10015C0010B5064C237843B9FFF7DAFF044B13B103
:10016C000448AFF300800123237010BD5C00002015
:10017C00000000006C3B000808B5054B1BB105499D
:10018C000548AFF30080BDE80840FFF7CFBF00BFC4
:10019C0000000000600000206C3B000880B582B0BD
:1001AC0000AF78607868FFF7ABFF03469AB2642320
:1001BC007968034801F002FB00BF0837BD4680BDDB
:1001CC007800002080B586B004AF0023FB71642357
:1001DC00029301230193FB1D009301236B22D02179
:1001EC00064802F0AFF80346002B0CBF0123002396
:1001FC00DBB218460837BD4680BD00BFC0000020EA
:10020C0080B584B004AF64230293062301931A4B88
:10021C00009301233B22D021184802F08DF90346AC
:10022C00002B01D0002324E0134B1B781BB21B02C4
:10023C001AB2114B5B781BB213431AB2104B1A80D3
:10024C000D4B9B781BB21B021AB20B4BDB781BB20B
:10025C0013431AB20B4B1A80074B1B791BB21B02B0
:10026C001AB2054B5B791BB213431AB2064B1A80B8
:10027C0001231846BD4680BD74010020C00000203B
:10028C006C0100206E0100207001002080B584B04C
:10029C0000AF03460A46FB711346BB71FB793B73F7
:1002AC00BB797B7300221021094800F00FFE07F187
:1002BC000C0164230222074801F0E0FC012210210A
:1002CC00034800F003FE00BF1037BD4680BD00BFE1
:1002DC00000801401401002080B500AF00210F2060
:1002EC00FFF7D4FF01210C20FFF7D0FF07210B20D3
:1002FC00FFF7CCFFFF210920FFF7C8FF08210A20D8
:10030C00FFF7C4FF00210120FFF7C0FF00210220EE
:10031C00FFF7BCFF00210320FFF7B8FF00210420EA
:10032C00FFF7B4FF00210520FFF7B0FF00210620E6
:10033C00FFF7ACFF00210720FFF7A8FF00210820E2
:10034C00FFF7A4FF00BF80BD80B584B000AF78601C
:10035C007B68002B31DA7B685B427B600A210120D1
:10036C00FFF794FF0223FB7321E07A682B4B83FB8E
:10037C0002139910D317C91A0B469B000B445B0050
:10038C00D11A0B46BB737B68244A82FB0312921072
:10039C00DB17D31A7B60BA7BFB7B11461846FFF741
:1003AC0075FF7B68002B06D0FB7B0133FB73FB7B5B
:1003BC00082BDAD92FE000BF2DE00123FB7327E0D7
:1003CC007B68002B1CDD7A68144B83FB021399109D
:1003DC00D317C91A0B469B000B445B00D11A0B4672
:1003EC00BB737B680D4A82FB03129210DB17D31A86
:1003FC007B60BA7BFB7B11461846FFF747FF04E096
:10040C00FB7B0F211846FFF741FFFB7B0133FB738E
:10041C00FB7B082BD4D91037BD4680BD676666665A
:10042C0080B582B002AF00F06DFA00F013FA00F064
:10043C000DF900F0B3F800F0DBF800F079F80122C8
:10044C001021304800F042FDFFF746FF2E48FFF721
:10045C00A5FE2E48FFF7A2FEFFF7B4FE0346002BC5
:10046C0003D02B48FFF79AFE02E02A48FFF796FECE
:10047C00642000F0AFFAFFF7C3FE0346002B1AD03E
:10048C00254BB3F900301A46244BB3F9003019460A
:10049C00234BB3F9003000930B462249224802F05B
:1004AC0099FE2148FFF77AFE1B4BB3F90030184632
:1004BC00FFF74AFF22E01D48FFF770FE0E210120D6
:1004CC00FFF7E4FE0E210220FFF7E0FE0E210320D1
:1004DC00FFF7DCFE0E210420FFF7D8FE0E210520CD
:1004EC00FFF7D4FE0E210620FFF7D0FE0E210720C9
:1004FC00FFF7CCFE0E210820FFF7C8FEC82000F045
:10050C0069FAB8E700080140843B0008883B000802
:10051C00983B0008AC3B00086C0100206E010020E9
:10052C0070010020C43B00087C010020DC3B00086B
:10053C0080B500AF174B184A1A60164B4FF48272F5
:10054C005A60144B00229A60124B0022DA60114B55
:10055C0000221A610F4B00225A610E4B4FF40072AD
:10056C009A610C4B1822DA610A4B00221A62094B71
:10057C0000225A62074B00229A62064B0A22DA6268
:10058C00044801F0EFFA0346002B01D000F0ADF95E
:10059C0000BF80BD140100200030014080B500AFC9
:1005AC00114B124A1A60104B4FF4E1325A600E4B49
:1005BC0000229A600C4B0022DA600B4B00221A616D
:1005CC00094B0C225A61084B00229A61064B0022FF
:1005DC00DA61054801F0A2F80346002B01D000F0C7
:1005EC0084F900BF80BD00BF7800002000380140B6
:1005FC0080B500AF124B134A1A60114B124A5A6065
:10060C000F4B00229A600E4B0022DA600C4B4FF419
:10061C0080421A610A4B00225A61094B00229A61EE
:10062C00074B0022DA61064B00221A62044801F0E3
:10063C0045FD0346002B01D000F057F900BF80BDEB
:10064C00C000002000540040A086010080B586B098
:10065C0000AF07F1080300221A605A609A60DA6052
:10066C00164B9B69154A43F004039361134B9B692A
:10067C0003F004037B607B68104B9B690F4A43F0CB
:10068C00080393610D4B9B6903F008033B603B68C7
:10069C001023BB600123FB6003237B6107F108037C
:1006AC001946074800F0A4FA01221021044800F072
:1006BC000DFC00BF1837BD4680BD00BF00100240C6
:1006CC000008014080B588B000AF786007F11003D6
:1006DC0000221A605A609A60DA607B681B681C4AB8
:1006EC00934231D11B4B9B691A4A43F4804393616B
:1006FC00184B9B6903F48043FB60FB68154B9B69AB
:10070C00144A43F004039361124B9B6903F00403F6
:10071C00BB60BB684FF400733B6102237B61032316
:10072C00FB6107F1100319460B4800F061FA4FF416
:10073C0080633B6100237B610023BB6107F11003E5
:10074C001946054800F054FA00BF2037BD4680BD5D
:10075C0000380140001002400008014080B588B00C
:10076C0000AF786007F1100300221A605A609A609B
:10077C00DA607B681B68154A934223D1144B9B6942
:10078C00134A43F008039361114B9B6903F0080370
:10079C00FB60FB680E4BDB690D4A43F40013D3611D
:1007AC000B4BDB6903F40013BB60BB68C0233B61DC
:1007BC0012237B610323FB6107F1100319460548E3
:1007CC0000F016FA00BF2037BD4680BD0054004033
:1007DC0000100240000C014080B588B000AF78607A
:1007EC0007F1100300221A605A609A60DA607B6885
:1007FC001B68154A934223D1144B9B69134A43F44B
:10080C0080539361114B9B6903F48053FB60FB682D
:10081C000E4B9B690D4A43F0040393610B4B9B6990
:10082C0003F00403BB60BB68A0233B6102237B6124
:10083C000323FB6107F110031946054800F0D8F9B2
:10084C0000BF2037BD4680BD003001400010024083
:10085C000008014080B590B000AF07F118032822C2
:10086C000021184602F0D8FC3B1D00221A605A6089
:10087C009A60DA601A610123BB614FF48033FB612B
:10088C0000233B620123BB6202237B634FF4803362
:10089C00BB634FF4E013FB6307F11803184600F039
:1008AC002DFB0346002B01D000F01FF80F237B60BB
:1008BC000223BB600023FB604FF480633B61002389
:1008CC007B613B1D0221184600F09AFD0346002B6C
:1008DC0001D000F00AF800BF4037BD4680BD80B59E
:1008EC0000AF00F05BF800BF80BD80B400AF72B603
:1008FC0000BF00BFFDE780B400AF00BFBD4680BCA9
:10090C007047000080B500AF084B1B68074A43F0E6
:10091C0010031360032000F037F90F2000F00EF8DD
:10092C0000F006F80023184680BD00BF00200240EE
:10093C0080B400AF00BFBD4680BC704780B582B0AC
:10094C0000AF7860124B1A68124B1B7819464FF4A3
:10095C007A73B3FBF1F3B2FBF3F3184600F03BF9F7
:10096C000346002B01D001230EE07B680F2B0AD825
:10097C00002279684FF0FF3000F011F9064A7B68CD
:10098C001360002300E0012318460837BD4680BDE4
:10099C0000000020080000200400002080B400AFFC
:1009AC00054B1B781A46054B1B681344034A13600E
:1009BC0000BFBD4680BC704708000020E00100204D
:1009CC0080B400AF024B1B681846BD4680BC704714
:1009DC00E001002080B584B000AF7860FFF7F0FF35
:1009EC00B8607B68FB60FB68B3F1FF3F05D00A4B36
:1009FC001B781A46FB681344FB6000BFFFF7E0FF4F
:100A0C000246BB68D31AFA689A42F7D800BF00BFF7
:100A1C001037BD4680BD00BF0800002080B485B0F3
:100A2C0000AF78607B6803F00703FB600C4BDB685E
:100A3C00BB60BA684FF6FF031340BB60FB681A0239
:100A4C00BB68134343F0BF6343F40033BB60044AF9
:100A5C00BB68D36000BF1437BD4680BC704700BF75
:100A6C0000ED00E080B400AF044BDB681B0A03F020
:100A7C0007031846BD4680BC704700BF00ED00E080
:100A8C0080B483B000AF03463960FB7197F907302F
:100A9C00002B0ADB3B68DAB20C4997F907301201DC
:100AAC00D2B20B4483F800230AE03B68DAB208495F
:100ABC00FB7903F00F03043B1201D2B20B441A76FC
:100ACC0000BF0C37BD4680BC704700BF00E100E0A2
:100ADC0000ED00E080B489B000AFF860B9607A60D6
:100AEC00FB6803F007037B617B69033B042B04D891
:100AFC007B69C3F10703FB6101E00423FB617B69A4
:100B0C000433062B03D97B69033BBB6101E0002353
:100B1C00BB614FF0FF32FB6902FA03F3DA43BB68A7
:100B2C001A40BB699A404FF0FF31BB6901FA03F3DD
:100B3C00D9437B680B40134318462437BD4680BC11
:100B4C007047000080B582B000AF78607B68013BD5
:100B5C00B3F1807F01D301230FE00A4A7B68013B8C
:100B6C0053600F214FF0FF30FFF78AFF054B002237
:100B7C009A60044B07221A60002318460837BD46BA
:100B8C0080BD00BF10E000E080B582B000AF78609F
:100B9C007868FFF743FF00BF0837BD4680BD80B5BE
:100BAC0086B000AF0346B9607A60FB7300237B61AB
:100BBC00FFF758FF78617A68B9687869FFF78AFFA0
:100BCC00024697F90F3011461846FFF759FF00BF40
:100BDC001837BD4680BD80B582B000AF78607868AC
:100BEC00FFF7B0FF034618460837BD4680BD00002E
:100BFC0080B48BB000AF7860396000237B62002337
:100C0C003B6253E101227B6A02FA03F37B613B688E
:100C1C001B687A6913403B613A697B699A4240F0E0
:100C2C0042813B685B688F4A934247D08D4A93421E
:100C3C005ED88D4A934241D08B4A934258D88B4A06
:100C4C0093423BD0894A934252D8894A934235D039
:100C5C00874A93424CD8874A93422FD0854A934275
:100C6C0046D8854A934229D0834A934240D8122BC6
:100C7C001FD0122B3CD8112B11D0112B38D8032B91
:100C8C0033D0032B34D8022B0ED0022B30D8002BB0
:100C9C0014D0012B2CD13B68DB683B6229E03B680C
:100CAC00DB6804333B6224E03B68DB6808333B625F
:100CBC001FE03B68DB680C333B621AE03B689B68C7
:100CCC00002B02D104233B6213E03B689B68012B91
:100CDC0005D108233B627B687A691A6109E0082315
:100CEC003B627B687A695A6103E000233B6200E057
:100CFC0000BF3B69FF2B02D87B68FB6102E07B687D
:100D0C000433FB613B69FF2B03D87B6A9B00BB61FF
:100D1C0003E07B6A083B9B00BB61FB691A680F21EF
:100D2C00BB6901FA03F3DB431A40396ABB6901FA68
:100D3C0003F31A43FB691A603B685B6803F080534A
:100D4C00002B00F0B0804D4B9B694C4A43F00103E3
:100D5C0093614A4B9B6903F00103BB60BB68484A33
:100D6C007B6A9B08023352F82330FB607B6A03F0EA
:100D7C0003039B000F2202FA03F3DB43FA681340D0
:100D8C00FB607B683F4A934213D07B683E4A934298
:100D9C000DD07B683D4A934207D07B683C4A934216
:100DAC0001D1032306E0042304E0022302E0012323
:100DBC0000E000237A6A02F0030292009340FA6882
:100DCC001343FB602E497B6A9B080233FA6841F897
:100DDC0023203B685B6803F48013002B06D02D4B5B
:100DEC009A682C493B6913438B6006E0294B9A683F
:100DFC003B69DB43274913408B603B685B6803F41A
:100E0C000013002B06D0234BDA6822493B691343AD
:100E1C00CB6006E01F4BDA683B69DB431D4913408E
:100E2C00CB603B685B6803F40033002B06D0194B96
:100E3C005A6818493B6913434B6006E0154B5A68D6
:100E4C003B69DB43134913404B603B685B6803F41D
:100E5C008033002B20D00F4B1A680E493B6913438B
:100E6C000B6020E000003210000031100000221056
:100E7C0000002110000012100000111000100240A0
:100E8C000000014000080140000C0140001001402E
:100E9C0000140140000401400B4B1A683B69DB4312
:100EAC00094913400B607B6A01337B623B681A680B
:100EBC007B6A22FA03F3002B7FF4A4AE00BF00BFC1
:100ECC002C37BD4680BC70470004014080B483B011
:100EDC0000AF78600B467B8013467B707B78002BD1
:100EEC0003D07A887B681A6103E07B881A047B68DC
:100EFC001A6100BF0C37BD4680BC704780B586B008
:100F0C0000AF78607B68002B01D1012372E27B6813
:100F1C001B6803F00103002B00F08780924B5B6889
:100F2C0003F00C03042B0CD08F4B5B6803F00C0309
:100F3C00082B12D18C4B5B6803F48033B3F5803FE4
:100F4C000BD1894B1B6803F40033002B6CD07B68EE
:100F5C005B68002B68D101234CE27B685B68B3F5BE
:100F6C00803F06D1804B1B687F4A43F4803313606B
:100F7C002EE07B685B68002B0CD17B4B1B687A4A9C
:100F8C0023F480331360784B1B68774A23F4802357
:100F9C0013601DE07B685B68B3F5A02F0CD1724B1E
:100FAC001B68714A43F4802313606F4B1B686E4AB5
:100FBC0043F4803313600BE06B4B1B686A4A23F4D9
:100FCC0080331360684B1B68674A23F480231360DB
:100FDC007B685B68002B13D0FFF7F2FC386108E0EC
:100FEC00FFF7EEFC02463B69D31A642B01D90323AD
:100FFC0000E25D4B1B6803F40033002BF0D014E0CF
:10100C00FFF7DEFC386108E0FFF7DAFC02463B69CB
:10101C00D31A642B01D90323ECE1534B1B6803F463
:10102C000033002BF0D100E000BF7B681B6803F09D
:10103C000203002B63D04C4B5B6803F00C03002BBA
:10104C000BD0494B5B6803F00C03082B1CD1464BAF
:10105C005B6803F48033002B16D1434B1B6803F001
:10106C000203002B05D07B681B69012B01D00123E7
:10107C00C0E13D4B1B6823F0F8027B685B69DB0029
:10108C00394913430B603AE07B681B69002B20D075
:10109C00364B01221A60FFF793FC386108E0FFF72A
:1010AC008FFC02463B69D31A022B01D90323A1E121
:1010BC002D4B1B6803F00203002BF0D02A4B1B684E
:1010CC0023F0F8027B685B69DB00274913430B6054
:1010DC0015E0264B00221A60FFF772FC386108E01D
:1010EC00FFF76EFC02463B69D31A022B01D903238E
:1010FC0080E11D4B1B6803F00203002BF0D17B68D1
:10110C001B6803F00803002B3AD07B689B69002B0B
:10111C0019D0174B01221A60FFF752FC386108E016
:10112C00FFF74EFC02463B69D31A022B01D903236D
:10113C0060E10D4B5B6A03F00203002BF0D0012041
:10114C0000F0CEFA1CE00A4B00221A60FFF738FCC4
:10115C0038610FE0FFF734FC02463B69D31A022BCF
:10116C0008D9032346E100BF0010024000004242B0
:10117C0080044242924B5B6A03F00203002BE9D1DC
:10118C007B681B6803F00403002B00F0A68000238F
:10119C00FB758B4BDB6903F08053002B0DD1884B17
:1011AC00DB69874A43F08053D361854BDB6903F0DD
:1011BC008053BB60BB680123FB75824B1B6803F437
:1011CC008073002B18D17F4B1B687E4A43F48073CD
:1011DC001360FFF7F5FB386108E0FFF7F1FB0246FF
:1011EC003B69D31A642B01D9032303E1754B1B68AC
:1011FC0003F48073002BF0D07B68DB68012B06D1E5
:10120C006F4B1B6A6E4A43F0010313622DE07B683F
:10121C00DB68002B0CD16A4B1B6A694A23F0010373
:10122C001362674B1B6A664A23F0040313621CE0CB
:10123C007B68DB68052B0CD1614B1B6A604A43F061
:10124C00040313625E4B1B6A5D4A43F00103136295
:10125C000BE05B4B1B6A5A4A23F001031362584B99
:10126C001B6A574A23F0040313627B68DB68002B6C
:10127C0015D0FFF7A5FB38610AE0FFF7A1FB02468A
:10128C003B69D31A41F28832934201D90323B1E06E
:10129C004B4B1B6A03F00203002BEED014E0FFF75C
:1012AC008FFB38610AE0FFF78BFB02463B69D31AD0
:1012BC0041F28832934201D903239BE0404B1B6AD5
:1012CC0003F00203002BEED1FB7D012B05D13C4B2F
:1012DC00DB693B4A23F08053D3617B68DB69002BCD
:1012EC0000F08780364B5B6803F00C03082B61D051
:1012FC007B68DB69022B46D1334B00221A60FFF767
:10130C005FFB386108E0FFF75BFB02463B69D31AD1
:10131C00022B01D903236DE0294B1B6803F00073EA
:10132C00002BF0D17B681B6AB3F5803F08D1244BAE
:10133C005B6823F400327B689B68214913434B6044
:10134C001F4B5B6823F474127B68196A7B685B6AB9
:10135C000B431B4913434B601B4B01221A60FFF7D5
:10136C002FFB386108E0FFF72BFB02463B69D31AD1
:10137C00022B01D903233DE0114B1B6803F00073D2
:10138C00002BF0D035E0104B00221A60FFF718FB51
:10139C00386108E0FFF714FB02463B69D31A022BB5
:1013AC0001D9032326E0064B1B6803F00073002BC6
:1013BC00F0D11EE07B68DB69012B07D1012319E01A
:1013CC000010024000700040600042420B4B5B6812
:1013DC00FB60FB6803F480327B681B6A9A4206D17F
:1013EC00FB6803F470127B685B6A9A4201D001239C
:1013FC0000E0002318461837BD4680BD001002409F
:10140C0080B584B000AF786039607B68002B01D167
:10141C000123D0E06A4B1B6803F007033A689A4239
:10142C0010D9674B1B6823F0070265493B681343CF
:10143C000B60634B1B6803F007033A689A4201D0B8
:10144C000123B8E07B681B6803F00203002B20D05B
:10145C007B681B6803F00403002B05D0594B5B68B9
:10146C00584A43F4E06353607B681B6803F008033D
:10147C00002B05D0534B5B68524A43F460535360C6
:10148C00504B5B6823F0F0027B689B684D4913431B
:10149C004B607B681B6803F00103002B40D07B681A
:1014AC005B68012B07D1474B1B6803F40033002BFF
:1014BC0015D101237FE07B685B68022B07D1414B80
:1014CC001B6803F00073002B09D1012373E03D4B23
:1014DC001B6803F00203002B01D101236BE0394B95
:1014EC005B6823F003027B685B68364913434B60EF
:1014FC00FFF766FAF8600AE0FFF762FA0246FB684B
:10150C00D31A41F28832934201D9032353E02D4B75
:10151C005B6803F00C027B685B689B009A42EBD122
:10152C00274B1B6803F007033A689A4210D2244BEE
:10153C001B6823F0070222493B6813430B60204BC6
:10154C001B6803F007033A689A4201D0012332E08A
:10155C007B681B6803F00403002B08D0194B5B68F5
:10156C0023F4E0627B68DB68164913434B607B68AD
:10157C001B6803F00803002B09D0124B5B6823F4A3
:10158C0060527B681B69DB000E4913434B6000F013
:10159C0021F802460B4B5B681B0903F00F030A4949
:1015AC00CB5C22FA03F3094A1360094B1B681846FB
:1015BC00FFF7C4F9002318461037BD4680BD00BFA5
:1015CC000020024000100240F03B00080000002008
:1015DC000400002080B487B000AF0023FB60002320
:1015EC00BB6000237B6100237B6000233B611E4BAF
:1015FC005B68FB60FB6803F00C03042B02D0082B28
:10160C0003D027E0194B3B6127E0FB689B0C03F0F0
:10161C000F03174AD35C7B60FB6803F48033002B09
:10162C0010D0114B5B685B0C03F00103114AD35CC7
:10163C00BB607B680D4A03FB02F2BB68B2FBF3F3A1
:10164C007B6104E07B680C4A02FB03F37B617B69E2
:10165C003B6102E0054B3B6100BF3B6918461C3700
:10166C00BD4680BC704700BF0010024000127A00DB
:10167C00083C0008183C000800093D0080B400AF8D
:10168C00024B1B681846BD4680BC7047000000200A
:10169C0080B500AFFFF7F2FF0246054B5B681B0AF3
:1016AC0003F007030349CB5C22FA03F3184680BD11
:1016BC0000100240003C000880B500AFFFF7DEFFD1
:1016CC000246054B5B68DB0A03F007030349CB5C5E
:1016DC0022FA03F3184680BD00100240003C0008BB
:1016EC0080B485B000AF78600A4B1B680A4AA2FB35
:1016FC0003235B0A7A6802FB03F3FB6000BFFB6801
:10170C005A1EFA60002BF9D100BF00BF1437BD463A
:10171C0080BC704700000020D34D621080B582B0B1
:10172C0000AF78607B68002B01D1012342E07B681D
:10173C0093F84130DBB2002B06D17B68002283F892
:10174C0040207868FEF7BEFF7B68242283F8412096
:10175C007B681B68DA687B681B6822F40052DA60CD
:10176C00786800F071F97B681B681A697B681B68E4
:10177C0022F490421A617B681B685A697B681B686B
:10178C0022F02A025A617B681B68DA687B681B6846
:10179C0042F40052DA607B6800225A647B68202293
:1017AC0083F841207B68202283F842207B6800224A
:1017BC005A63002318460837BD4680BD80B58AB0F1
:1017CC0002AFF860B9603B601346FB8000237B617D
:1017DC00FB6893F84130DBB2202B75D1BB68002B32
:1017EC0002D0FB88002B01D101236EE0FB680022A4
:1017FC005A64FB68212283F84120FFF7E1F87861F5
:10180C00FB68FA889A84FB68FA88DA84FB689B6820
:10181C00B3F5805F08D1FB681B69002B04D1002352
:10182C00FB61BB68BB6103E0BB68FB610023BB6170
:10183C002EE03B6800937B6900228021F86800F061
:10184C0048F80346002B05D0FB68202283F8412082
:10185C0003233AE0FB69002B0BD1BB691B881A46AA
:10186C00FB681B68C2F308025A60BB690233BB6198
:10187C0007E0FB691A78FB681B685A60FB69013347
:10188C00FB61FB68DB8C9BB2013B9AB2FB68DA8490
:10189C00FB68DB8C9BB2002BCBD13B6800937B6944
:1018AC0000224021F86800F014F80346002B05D004
:1018BC00FB68202283F84120032306E0FB682022EA
:1018CC0083F84120002300E0022318462037BD4650
:1018DC0080BD80B586B000AFF860B9603B60134640
:1018EC00FB713BE03B6AB3F1FF3F37D0FFF768F881
:1018FC0002463B68D31A3A6A9A4202D33B6A002BDF
:10190C0001D103233AE0FB681B68DB6803F0040396
:10191C00002B23D0BB68802B20D0BB68402B1DD064
:10192C00FB681B681B6803F00803082B16D1002307
:10193C007B61FB681B681B687B61FB681B685B68D1
:10194C007B617B69F86800F01DF8FB6808225A641B
:10195C00FB68002283F8402001230FE0FB681B6822
:10196C001A68BB681340BA689A420CBF0123002363
:10197C00DBB21A46FB799A42B4D0002318461837CA
:10198C00BD4680BD80B495B000AF78607B681B68A5
:10199C000C337B637B6B53E8003F3B633B6B23F463
:1019AC009073FB647B681B680C33FA6C3A64FB63C2
:1019BC00F96B3A6C41E80023BB63BB6B002BE5D1A0
:1019CC007B681B6814333B623B6A53E8003FFB6146
:1019DC00FB6923F00103BB647B681B681433BA6C8E
:1019EC00FA62BB62B96AFA6A41E800237B627B6ADD
:1019FC00002BE5D17B681B6B012B19D17B681B6815
:101A0C000C33FB60FB6853E8003FBB60BB6823F002
:101A1C0010037B647B681B680C337A6CBA617B6146
:101A2C007969BA6941E800233B613B69002BE5D138
:101A3C007B68202283F842207B6800221A6300BF57
:101A4C005437BD4680BC704780B584B000AF786019
:101A5C007B681B681B6923F440517B68DA687B68E0
:101A6C001B680A431A617B689A687B681B691A4376
:101A7C007B685B691343BB607B681B68DB6823F482
:101A8C00B05323F00C037A681268B9680B43D36027
:101A9C007B681B685B6923F440717B689A697B687F
:101AAC001B680A435A617B681B682C4A934203D11A
:101ABC00FFF702FEF86002E0FFF7EAFDF860FA6853
:101ACC0013469B0013449A001A447B685B689B0086
:101ADC00B2FBF3F3224AA2FB03235B091901FA6858
:101AEC0013469B0013449A001A447B685B689B0066
:101AFC00B2FBF3F21A4BA3FB02035B09642000FB5D
:101B0C0003F3D31A1B013233154AA2FB03235B09DF
:101B1C0003F0F0031944FA6813469B0013449A002F
:101B2C001A447B685B689B00B2FBF3F20C4BA3FB83
:101B3C0002035B09642000FB03F3D31A1B0132334D
:101B4C00074AA2FB03235B0903F00F027B681B68A7
:101B5C000A449A6000BF1037BD4680BD0038014072
:101B6C001F85EB5180B582B000AF78607B68002B8D
:101B7C0001D101237EE07B685B6A002B08D17B6876
:101B8C005B68B3F5827F09D07B680022DA6105E0DF
:101B9C007B6800221A617B6800225A617B6893F88B
:101BAC005130DBB2002B06D17B68002283F8502029
:101BBC007868FEF711FE7B68022283F851207B685F
:101BCC001B681A687B681B6822F040021A607B68ED
:101BDC005B6803F482727B689B6803F404431A43CA
:101BEC007B68DB6803F400631A437B681B6903F0B2
:101BFC0002031A437B685B6903F001031A437B6899
:101C0C009B6903F400731A437B68DB6903F03803A8
:101C1C001A437B681B6A03F0800342EA03017B686A
:101C2C009B6A03F400527B681B680A431A607B684A
:101C3C009B691A0C7B681B6802F004025A607B6873
:101C4C009B6AB3F5005F05D17B68DA6A7B681B6819
:101C5C0092B21A617B681B68DA697B681B6822F494
:101C6C000062DA617B6800225A657B68012283F886
:101C7C005120002318460837BD4680BD80B588B07A
:101C8C0000AFF860B9603B601346FB80FEF798FE2E
:101C9C00F861FB887B83FB6893F85130DBB2012B36
:101CAC0001D002234CE1BB68002B02D0FB88002B37
:101CBC0001D1012344E1FB6893F85030012B01D191
:101CCC0002233DE1FB68012283F85020FB680322CC
:101CDC0083F85120FB6800225A65FB68BA681A63C6
:101CEC00FB68FA889A86FB68FA88DA86FB68002219
:101CFC009A63FB6800229A87FB680022DA87FB68EC
:101D0C0000225A64FB6800221A64FB689B68B3F5D6
:101D1C00004F0FD1FB681B681A68FB681B6822F028
:101D2C0040021A60FB681B681A68FB681B6842F467
:101D3C0080421A60FB689B6AB3F5005F0FD1FB68A9
:101D4C001B681A68FB681B6822F400521A60FB6857
:101D5C001B681A68FB681B6842F400521A60FB6827
:101D6C001B681B6803F04003402B07D0FB681B6803
:101D7C001A68FB681B6842F040021A60FB68DB685B
:101D8C00B3F5006F52D1FB685B68002B02D07B8BE4
:101D9C00012B45D1FB681B6B1A88FB681B68DA604A
:101DAC00FB681B6B9A1CFB681A63FB68DB8E9BB28F
:101DBC00013B9AB2FB68DA8632E0FB681B689B68D1
:101DCC0003F00203022B12D1FB681B6B1A88FB6811
:101DDC001B68DA60FB681B6B9A1CFB681A63FB6858
:101DEC00DB8E9BB2013B9AB2FB68DA8618E0FEF7F9
:101DFC00E7FD0246FB69D31A3A689A4203D83B685E
:101E0C00B3F1FF3F02D13B68002B09D1FB680122E3
:101E1C0083F85120FB68002283F8502003238FE0C5
:101E2C00FB68DB8E9BB2002BC7D153E0FB685B6871
:101E3C00002B02D07B8B012B47D1FB681A6BFB6804
:101E4C001B680C3312781A70FB681B6B5A1CFB68EE
:101E5C001A63FB68DB8E9BB2013B9AB2FB68DA8695
:101E6C0033E0FB681B689B6803F00203022B13D161
:101E7C00FB681A6BFB681B680C3312781A70FB68D2
:101E8C001B6B5A1CFB681A63FB68DB8E9BB2013B15
:101E9C009AB2FB68DA8618E0FEF792FD0246FB69FF
:101EAC00D31A3A689A4203D83B68B3F1FF3F02D188
:101EBC003B68002B09D1FB68012283F85120FB6899
:101ECC00002283F8502003233AE0FB68DB8E9BB2A0
:101EDC00002BC6D1FB689B6AB3F5005F07D1FB688A
:101EEC001B681A68FB681B6842F480521A60FA6916
:101EFC003968F86800F0B0F80346002B02D0FB6894
:101F0C0020225A65FB689B68002B0AD100237B6159
:101F1C00FB681B68DB687B61FB681B689B687B61EB
:101F2C007B69FB68012283F85120FB68002283F84F
:101F3C005020FB685B6D002B01D0012300E00023D7
:101F4C0018462037BD4680BD80B588B000AFF8601C
:101F5C00B9603B601346FB71FEF732FD0246BB6A6B
:101F6C009B1A3A681344FB61FEF72AFDB861394BA2
:101F7C001B685B011B0DFA6902FB03F37B6155E0E7
:101F8C003B68B3F1FF3F51D0FEF71AFD0246BB6927
:101F9C00D31AFA699A4202D9FB69002B3DD1FB682E
:101FAC001B685A68FB681B6822F0E0025A60FB68E9
:101FBC005B68B3F5827F11D1FB689B68B3F5004F6A
:101FCC0004D0FB689B68B3F5806F07D1FB681B6876
:101FDC001A68FB681B6822F040021A60FB689B6A57
:101FEC00B3F5005F0FD1FB681B681A68FB681B68B0
:101FFC0022F400521A60FB681B681A68FB681B68A5
:10200C0042F400521A60FB68012283F85120FB68ED
:10201C00002283F85020032318E07B69002B02D1A7
:10202C000023FB6102E07B69013B7B61FB681B6861
:10203C009A68BB681340BA689A420CBF012300230C
:10204C00DBB21A46FB799A429AD100231846203704
:10205C00BD4680BD0000002080B586B002AFF860A0
:10206C00B9607A607B680093BB6801220221F86832
:10207C00FFF76AFF0346002B07D0FB685B6D43F04C
:10208C002002FB685A65032313E07B680093BB684E
:10209C0000228021F868FFF757FF0346002B07D07A
:1020AC00FB685B6D43F02002FB685A65032300E07C
:1020BC00002318461037BD4680BD000080B584B0A3
:1020CC0000AF78607B68002B01D101232BE17B688A
:1020DC0093F83D30DBB2002B06D17B68002283F8ED
:1020EC003C207868FEF73AFB7B68242283F83D207D
:1020FC007B681B681A687B681B6822F001021A60F7
:10210C007B681B681A687B681B6842F400421A6083
:10211C007B681B681A687B681B6822F400421A6093
:10212C00FFF7B6FAF8607B685B68814A934207D880
:10213C00FB68804A934294BF01230023DBB206E084
:10214C00FB687D4A934294BF01230023DBB2002B32
:10215C0001D00123E7E0FB68784AA2FB03239B0C28
:10216C00BB607B681B685B6823F03F017B681B6866
:10217C00BA680A435A607B681B681B6A23F03F01EC
:10218C007B685B686A4A934202D8BB68013309E0FA
:10219C00BB684FF4967202FB03F3694AA2FB03235C
:1021AC009B0901337A6812680B4313627B681B68C6
:1021BC00DB6923F44F4222F0FF027B685B685C49C9
:1021CC008B4219D8FB68591E7B685B685B00B1FBBE
:1021DC00F3F3591C40F6FC730B40002B0AD0FB6840
:1021EC00591E7B685B685B00B1FBF3F30133C3F3EF
:1021FC000B0351E004234FE07B689B68002B11D14B
:10220C00FB68581E7B6859680B465B000B44B0FB9F
:10221C00F3F30133C3F30B03002B0CBF0123002397
:10222C00DBB212E0FB68581E7B6859680B469B00BA
:10223C000B4499000B44B0FBF3F30133C3F30B03D2
:10224C00002B0CBF01230023DBB2002B01D0012398
:10225C0022E07B689B68002B0ED1FB68581E7B68C4
:10226C0059680B465B000B44B0FBF3F30133C3F32B
:10227C000B0343F400430FE0FB68581E7B6859685E
:10228C000B469B000B4499000B44B0FBF3F301335A
:10229C00C3F30B0343F44043796809681343CB61E0
:1022AC007B681B681B6823F0C0017B68DA697B685C
:1022BC001B6A1A437B681B680A431A607B681B689D
:1022CC009B6823F4034323F0FF037A6811697A684F
:1022DC00D26811437A6812680B4393607B681B6861
:1022EC00DB6823F0FF017B685A697B689B691A43A2
:1022FC007B681B680A43DA607B681B681A687B681A
:10230C001B6842F001021A607B6800221A647B6829
:10231C00202283F83D207B6800221A637B68002210
:10232C0083F83E20002318461037BD4680BD00BF01
:10233C00A08601007F841E00FF083D0083DE1B4346
:10234C00D34D621080B588B002AFF86008461146D4
:10235C001A4603467B810B463B811346FB80FEF7F6
:10236C002FFB7861FB6893F83D30DBB2202B40F0FB
:10237C00D9807B690093192301226D49F86800F01C
:10238C00CDFC0346002B01D00223CCE0FB6893F874
:10239C003C30012B01D10223C5E0FB68012283F8FC
:1023AC003C20FB681B681B6803F00103012B07D062
:1023BC00FB681B681A68FB681B6842F001021A6014
:1023CC00FB681B681A68FB681B6822F400621A60C1
:1023DC00FB68212283F83D20FB68402283F83E20D5
:1023EC00FB6800221A64FB683A6A5A62FB68BA8C72
:1023FC005A85FB685B8D9AB2FB681A85FB684D4A5F
:10240C00DA62F8883A8979897B690193BB6A00930F
:10241C000346F86800F004FB0346002B52D001235E
:10242C0081E07A69B96AF86800F092FD0346002BE6
:10243C000DD0FB681B6C042B07D1FB681B681A685A
:10244C00FB681B6842F400721A6001236BE0FB68A6
:10245C005B6A1A78FB681B681A61FB685B6A5A1C1A
:10246C00FB685A62FB681B8D013B9AB2FB681A85AC
:10247C00FB685B8D9BB2013B9AB2FB685A85FB688B
:10248C001B685B6903F00403042B1BD1FB681B8DD9
:10249C00002B17D0FB685B6A1A78FB681B681A6103
:1024AC00FB685B6A5A1CFB685A62FB681B8D013B1C
:1024BC009AB2FB681A85FB685B8D9BB2013B9AB2A2
:1024CC00FB685A85FB681B8D002BAAD17A69B96A07
:1024DC00F86800F085FD0346002B0DD0FB681B6CE3
:1024EC00042B07D1FB681B681A68FB681B6842F455
:1024FC0000721A60012316E0FB681B681A68FB68FF
:10250C001B6842F400721A60FB68202283F83D209D
:10251C00FB68002283F83E20FB68002283F83C20F5
:10252C00002300E0022318461837BD4680BD00BFCB
:10253C00020010000000FFFF80B58CB002AFF86005
:10254C00084611461A4603467B810B463B811346CF
:10255C00FB8000233B62FEF733FA7862FB6893F84A
:10256C003D30DBB2202B40F050827B6A0093192364
:10257C0001228249F86800F0D1FB0346002B01D000
:10258C00022343E2FB6893F83C30012B01D1022378
:10259C003CE2FB68012283F83C20FB681B681B684B
:1025AC0003F00103012B07D0FB681B681A68FB685A
:1025BC001B6842F001021A60FB681B681A68FB6812
:1025CC001B6822F400621A60FB68222283F83D200B
:1025DC00FB68402283F83E20FB6800221A64FB68EB
:1025EC003A6B5A62FB68BA8E5A85FB685B8D9AB25D
:1025FC00FB681A85FB68624ADA62F8883A8979893D
:10260C007B6A0193BB6B00930346F86800F09EFA5B
:10261C000346002B01D00123F8E1FB681B8D002B36
:10262C0013D10023FB61FB681B685B69FB61FB68D2
:10263C001B689B69FB61FB69FB681B681A68FB687C
:10264C001B6842F400721A60CCE1FB681B8D012BF5
:10265C001ED1FB681B681A68FB681B6822F4806239
:10266C001A6072B600BF0023BB61FB681B685B6914
:10267C00BB61FB681B689B69BB61BB69FB681B6822
:10268C001A68FB681B6842F400721A6062B635E087
:10269C00FB681B8D022B1ED1FB681B681A68FB683C
:1026AC001B6842F400621A6072B600BF00237B61A3
:1026BC00FB681B685B697B61FB681B689B697B61C2
:1026CC007B69FB681B681A68FB681B6822F48062D4
:1026DC001A6062B612E0FB681B681A68FB681B681C
:1026EC0042F480621A6000233B61FB681B685B69E3
:1026FC003B61FB681B689B693B613B6972E1FB6852
:10270C001B8D032B00F21F81FB681B8D012B23D12A
:10271C007A6AB96BF86800F0ABFC0346002B01D069
:10272C00012373E1FB681B681A69FB685B6AD2B210
:10273C001A70FB685B6A5A1CFB685A62FB681B8D3B
:10274C00013B9AB2FB681A85FB685B8D9BB2013B1F
:10275C009AB2FB685A8545E1FB681B8D022B52D15E
:10276C007B6A0093BB6B00220649F86800F0D6FA2E
:10277C000346002B08D0012348E100BF02001000E3
:10278C000000FFFF0400010072B600BFFB681B686D
:10279C001A68FB681B6842F400721A60FB681B68BD
:1027AC001A69FB685B6AD2B21A70FB685B6A5A1CC6
:1027BC00FB685A62FB681B8D013B9AB2FB681A8559
:1027CC00FB685B8D9BB2013B9AB2FB685A8562B683
:1027DC0000BFFB681B681A69FB685B6AD2B21A708F
:1027EC00FB685B6A5A1CFB685A62FB681B8D013BD9
:1027FC009AB2FB681A85FB685B8D9BB2013B9AB25F
:10280C00FB685A85EEE07B6A0093BB6B0022814922
:10281C00F86800F083FA0346002B01D00123F5E0A1
:10282C00FB681B681A68FB681B6822F480621A60DC
:10283C0072B600BFFB681B681A69FB685B6AD2B290
:10284C001A70FB685B6A5A1CFB685A62FB681B8D2A
:10285C00013B9AB2FB681A85FB685B8D9BB2013B0E
:10286C009AB2FB685A856C4B1B68DB086B4AA2FB5F
:10287C0003231A0A13469B001344DA00D31A3B6253
:10288C003B6A013B3B623B6A002B18D1FB68002280
:10289C001A63FB68202283F83D20FB68002283F832
:1028AC003E20FB681B6C43F02002FB681A6462B686
:1028BC0000BFFB68002283F83C200123A6E0FB68E4
:1028CC001B685B6903F00403042BD9D1FB681B68FC
:1028DC001A68FB681B6842F400721A60FB681B687C
:1028EC001A69FB685B6AD2B21A70FB685B6A5A1C85
:1028FC00FB685A62FB681B8D013B9AB2FB681A8518
:10290C00FB685B8D9BB2013B9AB2FB685A8562B641
:10291C0000BFFB681B681A69FB685B6AD2B21A704D
:10292C00FB685B6A5A1CFB685A62FB681B8D013B97
:10293C009AB2FB681A85FB685B8D9BB2013B9AB21D
:10294C00FB685A854EE07A6AB96BF86800F090FB28
:10295C000346002B01D0012358E0FB681B681A6961
:10296C00FB685B6AD2B21A70FB685B6A5A1CFB6824
:10297C005A62FB681B8D013B9AB2FB681A85FB6897
:10298C005B8D9BB2013B9AB2FB685A85FB681B6856
:10299C005B6903F00403042B24D1FB681B8D032B10
:1029AC0007D1FB681B681A68FB681B6822F48062FD
:1029BC001A60FB681B681A69FB685B6AD2B21A70F2
:1029CC00FB685B6A5A1CFB685A62FB681B8D013BF7
:1029DC009AB2FB681A85FB685B8D9BB2013B9AB27D
:1029EC00FB685A85FB681B8D002B7FF488AEFB6857
:1029FC00202283F83D20FB68002283F83E20FB68F0
:102A0C00002283F83C20002300E0022318462837DC
:102A1C00BD4680BD040001000000002089B5F814FB
:102A2C0080B588B002AFF860084611461A460346D6
:102A3C007B810B463B811346FB80FB681B681A6845
:102A4C00FB681B6842F480721A607B6A00933B6AD5
:102A5C0000224FF00111F86800F060F90346002BDA
:102A6C000DD0FB681B681B6803F48073B3F5807F83
:102A7C0003D1FB684FF400721A6403235FE07B8977
:102A8C00DBB21A46FB681B6802F0FE021A617B6A15
:102A9C003A6A2D49F86800F0BBF90346002B01D0C7
:102AAC0001234CE000237B61FB681B685B697B6145
:102ABC00FB681B689B697B617B697A6A396AF86879
:102ACC0000F046FA0346002B0DD0FB681B6C042B60
:102ADC0007D1FB681B681A68FB681B6842F400721C
:102AEC001A6001232BE0FB88012B05D13B89DAB25C
:102AFC00FB681B681A6121E03B891B0A9BB2DAB2A6
:102B0C00FB681B681A617A6A396AF86800F020FA67
:102B1C000346002B0DD0FB681B6C042B07D1FB6804
:102B2C001B681A68FB681B6842F400721A60012368
:102B3C0005E03B89DAB2FB681B681A610023184672
:102B4C001837BD4680BD00BF0200010080B588B0BB
:102B5C0002AFF860084611461A4603467B810B46C5
:102B6C003B811346FB80FB681B681A68FB681B687B
:102B7C0042F480621A60FB681B681A68FB681B6869
:102B8C0042F480721A607B6A00933B6A00224FF019
:102B9C000111F86800F0C2F80346002B0DD0FB6859
:102BAC001B681B6803F48073B3F5807F03D1FB684B
:102BBC004FF400721A640323AAE07B89DBB21A4635
:102BCC00FB681B6802F0FE021A617B6A3A6A524982
:102BDC00F86800F01DF90346002B01D0012397E0A3
:102BEC0000237B61FB681B685B697B61FB681B686E
:102BFC009B697B617B697A6A396AF86800F0A8F98D
:102C0C000346002B0DD0FB681B6C042B07D1FB6813
:102C1C001B681A68FB681B6842F400721A60012377
:102C2C0076E0FB88012B05D13B89DAB2FB681B6887
:102C3C001A6121E03B891B0A9BB2DAB2FB681B6864
:102C4C001A617A6A396AF86800F082F90346002B37
:102C5C000DD0FB681B6C042B07D1FB681B681A6832
:102C6C00FB681B6842F400721A60012350E03B8938
:102C7C00DAB2FB681B681A617A6A396AF86800F084
:102C8C0067F90346002B0DD0FB681B6C042B07D196
:102C9C00FB681B681A68FB681B6842F400721A60B8
:102CAC00012335E0FB681B681A68FB681B6842F45B
:102CBC0080721A607B6A00933B6A00224FF001110C
:102CCC00F86800F02BF80346002B0DD0FB681B684E
:102CDC001B6803F48073B3F5807F03D1FB684FF45A
:102CEC0000721A64032313E07B89DBB243F0010307
:102CFC00DAB2FB681B681A617B6A3A6A0649F868A3
:102D0C0000F086F80346002B01D0012300E00023DD
:102D1C0018461837BD4680BD0200010080B584B04E
:102D2C0000AFF860B9603B601346FB7148E03B684C
:102D3C00B3F1FF3F44D0FDF743FE0246BB69D31A03
:102D4C003A689A4202D33B68002B39D1BB681B0C02
:102D5C00DBB2012B0DD1FB681B685B69DA43BB68E6
:102D6C0013409BB2002B0CBF01230023DBB21A468D
:102D7C000CE0FB681B689B69DA43BB6813409BB291
:102D8C00002B0CBF01230023DBB21A46FB799A42BD
:102D9C0016D1FB6800221A63FB68202283F83D20C1
:102DAC00FB68002283F83E20FB681B6C43F020027A
:102DBC00FB681A64FB68002283F83C20012323E0A3
:102DCC00BB681B0CDBB2012B0DD1FB681B685B696C
:102DDC00DA43BB6813409BB2002B0CBF01230023CA
:102DEC00DBB21A460CE0FB681B689B69DA43BB68D4
:102DFC0013409BB2002B0CBF01230023DBB21A46FD
:102E0C00FB799A4293D0002318461037BD4680BDFB
:102E1C0080B584B000AFF860B9607A603B6071E057
:102E2C00FB681B685B6903F48063B3F5806F23D187
:102E3C00FB681B681A68FB681B6842F400721A6016
:102E4C00FB681B686FF480625A61FB6800221A638E
:102E5C00FB68202283F83D20FB68002283F83E208B
:102E6C00FB681B6C43F00402FB681A64FB680022CD
:102E7C0083F83C20012367E07B68B3F1FF3F41D02E
:102E8C00FDF79EFD02463B68D31A7A689A4202D33C
:102E9C007B68002B36D1BB681B0CDBB2012B0CD131
:102EAC00FB681B685B69DA43BB6813409BB2002B61
:102EBC0014BF01230023DBB20BE0FB681B689B698A
:102ECC00DA43BB6813409BB2002B14BF01230023D1
:102EDC00DBB2002B16D0FB6800221A63FB682022A1
:102EEC0083F83D20FB68002283F83E20FB681B6CB6
:102EFC0043F02002FB681A64FB68002283F83C2034
:102F0C00012321E0BB681B0CDBB2012B0CD1FB684D
:102F1C001B685B69DA43BB6813409BB2002B14BF80
:102F2C0001230023DBB20BE0FB681B689B69DA43CF
:102F3C00BB6813409BB2002B14BF01230023DBB2F0
:102F4C00002B7FF46DAF002318461037BD4680BDB3
:102F5C0080B584B000AFF860B9607A6034E0F8688E
:102F6C0000F0E3F80346002B01D0012334E0BB68EA
:102F7C00B3F1FF3F28D0FDF723FD02467B68D31A3F
:102F8C00BA689A4202D3BB68002B1DD1FB681B6840
:102F9C005B6903F08003802B16D0FB6800221A6358
:102FAC00FB68202283F83D20FB68002283F83E203A
:102FBC00FB681B6C43F02002FB681A64FB68002260
:102FCC0083F83C20012307E0FB681B685B6903F076
:102FDC008003802BC3D1002318461037BD4680BD1B
:102FEC0080B584B000AFF860B9607A6034E0F868FE
:102FFC0000F09BF80346002B01D0012334E0BB68A2
:10300C00B3F1FF3F28D0FDF7DBFC02467B68D31AF7
:10301C00BA689A4202D3BB68002B1DD1FB681B68AF
:10302C005B6903F00403042B16D0FB6800221A63BF
:10303C00FB68202283F83D20FB68002283F83E20A9
:10304C00FB681B6C43F02002FB681A64FB680022CF
:10305C0083F83C20012307E0FB681B685B6903F0E5
:10306C000403042BC3D1002318461037BD4680BD82
:10307C0080B584B000AFF860B9607A6049E0FB6855
:10308C001B685B6903F01003102B19D1FB681B68DC
:10309C006FF010025A61FB6800221A63FB68202251
:1030AC0083F83D20FB68002283F83E20FB681A6CF5
:1030BC00FB681A64FB68002283F83C20012330E093
:1030CC00FDF77EFC02467B68D31ABA689A4202D39B
:1030DC00BB68002B1DD1FB681B685B6903F04003C8
:1030EC00402B16D0FB6800221A63FB68202283F861
:1030FC003D20FB68002283F83E20FB681B6C43F0EC
:10310C002002FB681A64FB68002283F83C20012330
:10311C0007E0FB681B685B6903F04003402BAED1F2
:10312C00002318461037BD4680BD80B483B000AF75
:10313C0078607B681B685B6903F48063B3F5806F10
:10314C001BD17B681B686FF480625A617B6800221C
:10315C001A637B68202283F83D207B68002283F869
:10316C003E207B681B6C43F004027B681A647B680E
:10317C00002283F83C20012300E0002318460C3782
:10318C00BD4680BC70470000FDF7B5FB0B480C49F1
:10319C000C4A002302E0D458C4500433C4188C42A7
:1031AC00F9D3094A094C002301E013600432A2420E
:1031BC00FBD300F039F8FDF733F97047000000201D
:1031CC005C000020603C00085C0000203003002004
:1031DC00FEE700000EB46FF0004110B500249DB066
:1031EC001FAB02900690079104910948094953F8C6
:1031FC00042B0591006802A901931B9400F08EF931
:10320C00029B1C701DB0BDE8104003B0704700BF9E
:10321C000C0000200802FFFF03460244934200D139
:10322C00704703F8011BF9E770B500260C4C0D4BE9
:10323C001D1BB6EBA50F09D1002600F091FC0A4C22
:10324C000A4B1D1BB6EBA50F05D170BD54F8043B02
:10325C0098470136EDE754F8043B98470136F1E7FF
:10326C00583C0008583C0008583C00085C3C0008DE
:10327C007047704737B5002942D051F8043C0C1FF9
:10328C00002BB8BFE418019000F0DCF81D4A01983F
:10329C00136833B96360146003B0BDE8304000F0CC
:1032AC00D7B8A34208D9256861198B4201BF1968A8
:1032BC005B6849192160EDE71A465B680BB1A342C4
:1032CC00FAD911685518A5420BD124682144541819
:1032DC00A3421160E0D11C685B680C44146053601D
:1032EC00DAE702D90C230360D6E7256861198B4213
:1032FC0001BF19685B684919216063605460CBE7B2
:10330C0003B030BD2803002070B50F4C0E46216869
:10331C00054611B900F0B4FB20603146284600F098
:10332C00AFFB431C03D14FF0FF34204670BDC41CCF
:10333C0024F00304A042F8D0211A284600F0A0FB88
:10334C000130F2D1EFE700BF240300202DE9F84350
:10335C00CD1C25F0030508350C2D38BF0C25002D90
:10336C00064601DBA94204D90C2333600020BDE8DA
:10337C00F883334F00F066F83B681C463CBB29468B
:10338C003046FFF7C1FF431C044656D13C68A046AB
:10339C00B8F1000F40D1002C49D02368414630468B
:1033AC0004EB030900F06CFB814540D121683046E9
:1033BC006D1A2946FFF7A8FF013038D023682B443B
:1033CC0023603B685A685ABBC7F800800EE022683D
:1033DC00521B1ED40B2A16D96119A342256018BFA3
:1033EC005960636808BF396062514B60304600F029
:1033FC002FF804F10B00231D20F00700C21A1CBF8C
:10340C001B1AA350B3E76268A3420CBF3A605A6020
:10341C00ECE723466468B1E74446D8F80480B7E784
:10342C001A465B68A342FBD100235360DEE70C23F2
:10343C003046336000F00CF898E70560D6E700BF23
:10344C00280300200148FFF713BF00BF2003002012
:10345C000148FFF70EBF00BF200300202DE9F04705
:10346C001F468E688246BE420C469046334653D861
:10347C00B1F90C0010F4906F2BD0656923680969C1
:10348C0005EB4505A3EB010905EBD5757B1C6D1010
:10349C004B44AB422A4684BF1D462A46430527D5DA
:1034AC0011465046FFF752FF064658B34A4621696B
:1034BC0000F004FBA38923F4906343F08003A38101
:1034CC0026614E4426603B463E466561A5EB0905E8
:1034DC00A5601F463A464146206800F0B7FA002026
:1034EC00A3689B1BA36023683B442360BDE8F08763
:1034FC00504600F0F1FA06460028E1D15046216909
:10350C00FFF7B8FE0C23CAF80030A3894FF0FF3048
:10351C0043F04003A381E9E73E46DBE72DE9F047A2
:10352C001F468B8906461B060D4614469CB010D5CB
:10353C000B6973B94021FFF709FF2860286130B986
:10354C000C2333604FF0FF301CB0BDE8F0874023F4
:10355C006B610023099320238DF8293030234FF021
:10356C0001080397644F8DF82A3023461A78994640
:10357C001AB1252A03F10103F8D1B9EB040A0BD0D7
:10358C005346224629463046FFF768FF013000F0CB
:10359C00A380099A5244099299F80030002B00F04C
:1035AC009B8000224FF0FF33CDE9053209F1010970
:1035BC00049207928DF853201A924C46052214F867
:1035CC00011B4D4800F06CFA049AD0B9D00644BFE8
:1035DC0020238DF85330110744BF2B238DF8533023
:1035EC0099F800302A2B13D04B4600204FF00A0CD0
:1035FC0007991A781C46303A092A4AD9A8B107917A
:10360C0013E0C01B08FA00F01043A1460490D4E765
:10361C00039B191D1B680391002BBBBF5B4242F03F
:10362C00020207930793B8BF049223782E2B0AD17A
:10363C0063782A2B32D1039B02341A1D1B68039228
:10364C0043EAE3730593DFF8B490032248462178EC
:10365C0000F026FA38B14022049BA0EB090082400E
:10366C001343013404932178062225488DF8281041
:10367C0000F016FA002835D0224818BB039B0733FC
:10368C0023F0070308330393099B01340344099384
:10369C006BE701200CFB01210133AAE700234FF05B
:1036AC000A0C18460593611C0A780C46303A092A14
:1036BC0003D9002BC7D00590C5E701230CFB0020D4
:1036CC000131F1E703AB00932A4630460E4B04A9B7
:1036DC00AFF30080421CD7D1AB895B063FF532AF0C
:1036EC00099831E703AB00932A463046064B04A9F0
:1036FC0000F082F8EEE700BF1A3C0008203C0008FE
:10370C00243C000800000000693400082DE9F04753
:10371C00914698468A680B6907469342B8BF134690
:10372C00C9F8003091F843200C46089E12B10133C1
:10373C00C9F800302368990642BFD9F8003002332B
:10374C00C9F80030256815F0060507D104F1190AEF
:10375C00E368D9F800209B1AAB4229DC94F843307B
:10376C002268003B18BF012392062ED441463846EE
:10377C0004F14302B047013021D02368A16803F063
:10378C000603042B12BF0025E568D9F80030226926
:10379C0004BFED1A25EAE5758B1A2B449142C8BF7C
:1037AC001D464FF000091A344D451AD1002008E08F
:1037BC000123524641463846B047013003D14FF001
:1037CC00FF30BDE8F0870135C2E73020E11881F801
:1037DC0043005A1C94F845102244023382F84310DB
:1037EC00C4E70123224641463846B0470130E6D0B3
:1037FC0009F10109D8E700002DE9F04398460B7E4A
:10380C0085B0782B174606460C460C9A09D8622BC5
:10381C0001F1430108D8002B00F0DC80582B00F09C
:10382C00BD8004F1420539E0A3F163001528F8D8F6
:10383C0001A555F820F000BF9D380008B1380008EC
:10384C002F3800082F3800082F3800082F380008B0
:10385C00B13800082F3800082F3800082F3800081E
:10386C002F380008C1390008DD3800086F3900080E
:10387C002F3800082F380008E93900082F380008C5
:10388C00DD3800082F3800082F3800087739000879
:10389C00136804F14205191D1B68116084F842304D
:1038AC000123A8E013682568181D1060280601D5AF
:1038BC001B6803E06A06FBD5B3F90030002B03DA72
:1038CC002D225B4284F843200A22DFF878C113E0F2
:1038DC002568106815F0800F50F8043B02D16D0676
:1038EC0048BF9BB21060227EDFF858C16F2A5DD1B1
:1038FC000822002084F843006568002DA56005DBD4
:10390C0020681D4320F00400206051D00D46B3FB0D
:10391C00F2F002FB103E1CF80EE09A4205F801EDA5
:10392C000346F4D9082A0BD12368DA0708D5236992
:10393C0062689A42DEBF302305F8013C05F1FF3581
:10394C00491B21613B4621463046CDF8008003AA35
:10395C00FFF7DCFE013053D14FF0FF3005B0BDE86E
:10396C00F083236843F0200323607823DFF8D8C06A
:10397C0084F845302068156810F0800F55F8043B2A
:10398C0003D110F0400F18BF9BB21560C50744BFA0
:10399C0040F02000206023B11022AAE7DFF8A4C079
:1039AC00E6E7226822F020022260F5E70A22A0E76F
:1039BC000D46B7E71368D4F800C01D1D60691CF0F4
:1039CC00800F15601B6801D0186003E01CF0400FDD
:1039DC00FAD0188000230D462361B3E71368191D34
:1039EC0011601D6800212846626800F059F808B182
:1039FC00401B606063682361002384F84330A1E7B7
:103A0C002A46394630462369C0470130A4D0236882
:103A1C009B0714D4E068039B9842B8BF18469DE7F7
:103A2C0001233946304604F11902C047013093D0C6
:103A3C000135E36803995B1AAB42F1DCEAE7002538
:103A4C00F7E700BF2B3C00083C3C0008884210B54F
:103A5C0001EB020402D98442234607D8431EA1423B
:103A6C0007D011F8012B03F8012FF8E7024482422A
:103A7C0000D110BD13F8011D02F8011DF7E700007D
:103A8C0038B50023054C05460846236000F05AF86B
:103A9C00431C02D1236803B12B6038BD1C030020EA
:103AAC00034610B5C9B20244934201D1002004E090
:103ABC001846047801338C42F6D110BD0A44914269
:103ACC0000F1FF3300D1704710B511F8014B914252
:103ADC0003F8014FF9D110BD2DE9F0410746154609
:103AEC000C4621B91146BDE8F041FFF72FBC2AB9AD
:103AFC00FFF7C0FB2C462046BDE8F08100F01AF819
:103B0C008542064602D8B5EB500FF4D82946384604
:103B1C00FFF71CFC804608B94446ECE7B5422A4640
:103B2C00214628BF3246FFF7C9FF21463846FFF72A
:103B3C00A1FBF1E751F8043C181F002BBCBF0B583C
:103B4C00C0187047044A05491368002B08BF0B4680
:103B5C0018441060184670472C03002030030020D6
:103B6C00F8B500BFF8BC08BC9E467047F8B500BF5E
:083B7C00F8BC08BC9E4670472E
:103B84000D0A000053595354454D20535441525487
:103B94000D0A00004D50553630353020494E4954F9
:103BA400204F4B0D0A0000004D5055363035302063
:103BB400494E4954204552524F520D0A000000000C
:103BC40041434320583D256420593D2564205A3DF6
:103BD40025640D0A00000000493243205245414447
:103BE400204552524F520D0A000000000000000010
:103BF4000000000001020304060708090000000099
:103C04000102030402030405060708090A0B0C0D4C
:103C14000E0F10100102232D302B2000686C4C0075
:103C240065666745464700303132333435363738B8
:103C34003941424344454600303132333435363716
:0C3C4400383961626364656600000000AE
:083C5000BCC4FF7F010000006D
:043C580085010008DA
:043C5C005D010008FE
:103C600000127A0010000000010000001000002087
:103C700000000000E40100204C020020B4020020FB
:103C80000000000000000000000000000000000034
:103C90000000000000000000000000000000000024
:103CA0000000000000000000000000000000000014
:0C3CB00000000000000000000000000008
:040000050800319529
:00000001FF
