:020000040800F2
:1000000000500020D53500081D3600081D360008B8
:100010001D3600081D3600081D36000800000000CF
:100020000000000000000000000000001D36000875
:100030001D360008000000001D3600086D03000892
:100040001D3600081D3600081D3600081D36000844
:100050001D3600081D3600081D3600081D36000834
:100060001D3600081D3600081D360008450300082F
:100070001D3600081D360008590300081D3600080B
:100080001D3600081D3600081D3600081D36000804
:100090001D3600081D3600081D3600081D360008F4
:1000A0001D3600081D3600081D3600081D360008E4
:1000B0001D3600081D3600081D3600081D360008D4
:1000C0001D3600081D3600081D3600081D360008C4
:1000D0001D360008790700081D3600081D36000887
:1000E0001D3600081D3600081D36000800000000FF
:1000F0000000000000000000000000000000000000
:0C01000000000000000000005FF808F1A3
:10010C000348044B834202D0034B03B1184770479A
:10011C005C0000205C000020000000000548064B3D
:10012C001B1AD90F01EBA301491002D0034B03B1E9
:10013C00184770475C0000205C00002000000000A5
:10014C0010B5064C237843B9FFF7DAFF044B13B113
:10015C000448AFF300800123237010BD5C00002025
:10016C0000000000AC3F000808B5054B1BB1054969
:10017C000548AFF30080BDE80840FFF7CFBF00BFD4
:10018C000000000060000020AC3F000880B584B087
:10019C0000AF03460A46FB801346BB800023BB819D
:1001AC00FB88FB8112E0BB89144A9818FB89144A1E
:1001BC0032F813301A46134903F02CFA03469AB25C
:1001CC00BB891344BB81FB890133FB81FA89BB8852
:1001DC009A42E8D30C4B01221A70BB891A46074984
:1001EC000A4802F0B1FA0346002B02D0064B00225B
:1001FC001A7000BF1037BD4680BD00BF8C020020B6
:10020C00C0010020C43F00088A02002034010020F5
:10021C0080B500AF00F0C0FA00F04CFA00F0A6F880
:10022C0000F02CF900F098F900F0DAF91B4800F016
:10023C00E3FE64221A49194800F0F8FB0346002B30
:10024C0001D000F09DFA174803F00CF90346002B7F
:10025C0001D000F095FA144B1B78DBB2002B0BD0BD
:10026C00124B1B78DBB2002B06D10F4B00221A70FD
:10027C0032210020FFF78AFF0D4B1B78DBB2002BDD
:10028C00E9D00A4B1B78DBB2002BE4D1084B0022DF
:10029C001A7064213220FFF779FFDCE77800002028
:1002AC00C0010020EC000020880200208A020020FF
:1002BC008902002080B483B000AF78607B681B6833
:1002CC00054A934202D1054B01221A7000BF0C372C
:1002DC00BD4680BC704700BF00240140880200204E
:1002EC0080B483B000AF78607B681B68054A93428A
:1002FC0002D1054B01221A7000BF0C37BD4680BCE1
:10030C00704700BF002401408902002080B483B0F4
:10031C0000AF78607B681B68054A934202D1054B9D
:10032C0000221A7000BF0C37BD4680BC704700BF5E
:10033C00003801408A02002080B500AF024801F06D
:10034C008BF900BF80BD00BFA800002080B500AFB6
:10035C00024801F081F900BF80BD00BF7C01002084
:10036C0080B500AF00F064FA00BF80BD80B582B0EC
:10037C0000AF3B4B5B693A4A43F001035361384B86
:10038C005B6903F001037B607B68364B364A1A606D
:10039C00344B00225A60334B00229A60314B80223E
:1003AC00DA60304B4FF480721A612E4B4FF480623E
:1003BC005A612C4B20229A612A4B4FF40052DA617D
:1003CC00284800F0DBFF0346002B01D000F0D8F9E1
:1003DC00264B244A1A62234B244A5A62244B254A40
:1003EC001A60234B10225A60214B00229A60204B3A
:1003FC008022DA601E4B00221A611D4B00225A61CA
:10040C001B4B00229A611A4B0022DA61184800F04B
:10041C00B5FF0346002B01D000F0B2F9164B144A7D
:10042C009A63134B144A5A62002200210B2000F0ED
:10043C006EFF0B2000F087FF002201210E2000F040
:10044C0066FF0E2000F07FFF00220221252000F025
:10045C005EFF252000F077FF00BF0837BD4680BD4A
:10046C0000100240A8000020080002407800002084
:10047C007C010020440002403401002080B58AB089
:10048C0000AF07F11C0300221A605A609A602E4BD1
:10049C009B692D4A43F4007393612B4B9B6903F4C6
:1004AC000073BB60BB68284B9B69274A43F004036D
:1004BC009361254B9B6903F004037B607B68234BA2
:1004CC00234A1A60214B00229A60204B00221A7397
:1004DC001E4B00221A751D4B4FF40022DA611B4B88
:1004EC0000225A60194B01221A61184800F0BCF91D
:1004FC000346002B01D000F043F90023FB610123DC
:10050C003B6205237B6207F11C0319460F4800F080
:10051C0075FB0346002B01D000F032F907F10C03F8
:10052C0000221A605A609A60DA600123FB60032390
:10053C003B6107F10C031946064801F0C1F900BFF5
:10054C002837BD4680BD00BF001002407800002057
:10055C00002401400008014080B582B000AF1D4B63
:10056C00DB691C4A43F00203D3611A4BDB6903F0CD
:10057C0002037B607B68184B184A1A60164B41F6D5
:10058C001F425A60144B00229A60134B6322DA60AC
:10059C00114B00221A61104B00229A610E4802F096
:1005AC0009FF0346002B01D000F0EAF80A4B1B6848
:1005BC005A68094B1B6822F070025A60064B1B6884
:1005CC005A68054B1B6842F020025A6000BF08377E
:1005DC00BD4680BD00100240EC000020000400402D
:1005EC0080B586B000AF2F4B9B692E4A43F48043F5
:1005FC0093612C4B9B6903F480437B607B68294B94
:10060C009B69284A43F004039361264B9B6903F0D2
:10061C0004033B603B6807F1080300221A605A6030
:10062C009A60DA604FF40073BB600223FB60032313
:10063C007B6107F1080319461B4801F041F94FF49F
:10064C008063BB600023FB6000233B6107F1080360
:10065C001946154801F034F9144B154A1A60134B1E
:10066C004FF4E1325A60114B00229A600F4B00227A
:10067C00DA600E4B00221A610C4B0C225A610B4BA8
:10068C0000229A61094B0022DA61084802F002F854
:10069C000346002B01D000F073F800BF1837BD469D
:1006AC0080BD00BF00100240000801403401002052
:1006BC000038014080B594B000AF07F12803282220
:1006CC000021184602F0C8FF07F1140300221A603B
:1006DC005A609A60DA601A613B1D00221A605A60F7
:1006EC009A60DA600123BB624FF48033FB62002313
:1006FC003B630123BB6302237B644FF48033BB64F5
:10070C004FF4E013FB6407F12803184601F046FA96
:10071C000346002B01D000F033F80F237B6102233A
:10072C00BB610023FB614FF480633B6200237B625F
:10073C0007F114030221184601F0B2FC0346002B0A
:10074C0001D000F01DF802237B604FF40043FB60E6
:10075C003B1D184601F032FE0346002B01D000F081
:10076C000FF800BF5037BD4680BD000080B500AF0C
:10077C00024802F065F800BF80BD00BF34010020C4
:10078C0080B400AF72B600BF00BFFDE780B400AF0D
:10079C0000BFBD4680BC704780B500AF084B1B68DE
:1007AC00074A43F010031360032000F0A5FD0F204F
:1007BC0000F00EF800F006F80023184680BD00BFCC
:1007CC000020024080B400AF00BFBD4680BC704723
:1007DC0080B582B000AF7860124B1A68124B1B7850
:1007EC0019464FF47A73B3FBF1F3B2FBF3F31846EB
:1007FC0000F0B7FD0346002B01D001230EE07B680F
:10080C000F2B0AD8002279684FF0FF3000F07FFDE3
:10081C00064A7B681360002300E001231846083762
:10082C00BD4680BD00000020080000200400002010
:10083C0080B400AF054B1B781A46054B1B6813445C
:10084C00034A136000BFBD4680BC704708000020FF
:10085C001C04002080B400AF024B1B681846BD4638
:10086C0080BC70471C04002080B586B000AF786057
:10087C000023FB7500233B610023BB600023FB605E
:10088C007B68002B01D10123BEE07B689B68002BA9
:10089C007B689B6A002B09D17B680022DA627B683B
:1008AC00002283F82420786800F0B6F8786800F00D
:1008BC00FBFA0346FB757B689B6A03F01003002B65
:1008CC0040F09980FB7D002B40F095807B689B6A03
:1008DC0023F4885323F0020343F002027B689A62EC
:1008EC007B685A687B68DB691A437B681B7B5B00FF
:1008FC001343BA681343BB607B689B68B3F5807F76
:10090C0003D07B689B68012B02D14FF4807300E00D
:10091C0000233A6913433B617B681B7D012B19D182
:10092C007B681B7B002B09D17B689B69013B5A03BD
:10093C003B69134343F400633B610BE07B689B6AA8
:10094C0043F020027B689A627B68DB6A43F0010209
:10095C007B68DA627B681B685B6823F469417B689F
:10096C001B683A690A435A607B681B689A68284B73
:10097C0013407A681268B9680B4393607B689B6874
:10098C00B3F5807F03D07B689B68012B04D17B6817
:10099C001B69013B1B05FB607B681B68DB6A23F44E
:1009AC0070017B681B68FA680A43DA627B681B6813
:1009BC009A68184B1340BA689A420BD17B68002294
:1009CC00DA627B689B6A23F0030343F001027B68C5
:1009DC009A6218E07B689B6A23F0120343F01002C2
:1009EC007B689A627B68DB6A43F001027B68DA629F
:1009FC000123FB7507E07B689B6A43F010027B6860
:100A0C009A620123FB75FB7D18461837BD4680BDE5
:100A1C00FDF7E1FFFE0E1FFF80B483B000AF7860DE
:100A2C0000BF0C37BD4680BC7047000080B586B057
:100A3C0000AFF860B9607A600023FB75FB681B6837
:100A4C00644A934204D0FB681B68634A934206D104
:100A5C00604B5B6803F47023002B40F0B380FB68A1
:100A6C0093F82430012B01D10223AEE0FB68012264
:100A7C0083F82420F86800F0BDF90346FB75FB7D74
:100A8C00002B40F09A80FB689B6A23F4706323F080
:100A9C00010343F48072FB689A62FB681B684E4A40
:100AAC00934205D14B4B5B6803F47023002B15D19B
:100ABC00FB689B6A23F48012FB689A62FB681B68D4
:100ACC005B6803F48063002B26D0FB689B6A23F4DD
:100ADC00405343F48052FB689A621DE0FB689B6AAA
:100AEC0043F48012FB689A62FB681B68394A934294
:100AFC0004D0FB681B68384A93420DD1354B5B68B8
:100B0C0003F48063002B07D0FB689B6A23F44053EB
:100B1C0043F48052FB689A62FB689B6A03F480532F
:100B2C00002B06D0FB68DB6A23F00602FB68DA6256
:100B3C0002E0FB680022DA62FB68002283F82420C2
:100B4C00FB681B6A254A9A62FB681B6A244ADA62B4
:100B5C00FB681B6A234A1A63FB681B686FF002026E
:100B6C001A60FB681B689A68FB681B6842F4807209
:100B7C009A60FB68186AFB681B684C331946BA68A4
:100B8C007B6800F055FCFB681B689B6803F46023D2
:100B9C00B3F5602F08D1FB681B689A68FB681B686B
:100BAC0042F4A0029A600FE0FB681B689A68FB682D
:100BBC001B6842F480129A6006E0FB68002283F8FE
:100BCC00242001E00123FB75FB7D18461837BD4638
:100BDC0080BD00BF0024014000280140370F0008F1
:100BEC00B30F0008CF0F000880B483B000AF78605B
:100BFC0000BF0C37BD4680BC7047000080B485B088
:100C0C0000AF786039600023FB730023BB607B6806
:100C1C0093F82430012B01D10223E0E07B68012200
:100C2C0083F824203B685B68062B1CD87B681B6808
:100C3C00596B3B685B685A1E13469B0013441F227A
:100C4C0002FA03F3DB4319403B6818683B685B68A6
:100C5C005A1E13469B00134400FA03F27B681B6870
:100C6C000A435A633EE03B685B680C2B1CD87B68DC
:100C7C001B68196B3B685B68DA1F13469B001344B7
:100C8C001F2202FA03F3DB4319403B6818683B68E8
:100C9C005B68DA1F13469B00134400FA03F27B686F
:100CAC001B680A431A631DE07B681B68D96A3B68A2
:100CBC005B68A3F10D0213469B0013441F2202FA3A
:100CCC0003F3DB4319403B6818683B685B68A3F18E
:100CDC000D0213469B00134400FA03F27B681B6859
:100CEC000A43DA623B681B68092B1ED97B681B68B8
:100CFC00D9683B681B68A3F10A0213465B001344D6
:100D0C00072202FA03F3DB4319403B6898683B68FF
:100D1C001B68A3F10A0213465B00134400FA03F2AA
:100D2C007B681B680A43DA6019E07B681B681969E9
:100D3C003B681A6813465B001344072202FA03F35C
:100D4C00DB4319403B6898683B681A6813465B00A4
:100D5C00134400FA03F27B681B680A431A613B6870
:100D6C001B68102B03D03B681B68112B32D17B689E
:100D7C001B681D4A934225D17B681B689B6803F452
:100D8C000003002B26D17B681B689A687B681B6864
:100D9C0042F400029A603B681B68102B1AD1134B6B
:100DAC001B68134AA2FB03239A0C13469B001344A3
:100DBC005B00BB6002E0BB68013BBB60BB68002B07
:100DCC00F9D107E07B689B6A43F020027B689A624A
:100DDC000123FB737B68002283F82420FB7B1846DD
:100DEC001437BD4680BC7047002401400000002031
:100DFC0083DE1B4380B584B000AF78600023FB60BA
:100E0C000023BB607B681B689B6803F00103012B0C
:100E1C0040D07B681B689A687B681B6842F00102B3
:100E2C009A601F4B1B681F4AA2FB03239B0CBB60E1
:100E3C0002E0BB68013BBB60BB68002BF9D1FFF73C
:100E4C0009FDF8601FE0FFF705FD0246FB68D31AA9
:100E5C00022B18D97B681B689B6803F00103012BDC
:100E6C0011D07B689B6A43F010027B689A627B68A6
:100E7C00DB6A43F001027B68DA627B68002283F84C
:100E8C002420012307E07B681B689B6803F00103A7
:100E9C00012BD8D1002318461037BD4680BD00BFAA
:100EAC000000002083DE1B4380B584B000AF786067
:100EBC000023FB607B681B689B6803F00103012B1C
:100ECC002ED17B681B689A687B681B6822F0010234
:100EDC009A60FFF7BFFCF8601BE0FFF7BBFC024613
:100EEC00FB68D31A022B14D97B681B689B6803F030
:100EFC000103012B0DD17B689B6A43F010027B68C8
:100F0C009A627B68DB6A43F001027B68DA62012338
:100F1C0007E07B681B689B6803F00103012BDCD0A6
:100F2C00002318461037BD4680BD80B584B000AF95
:100F3C0078607B685B6AFB60FB689B6A03F050031C
:100F4C00002B27D1FB689B6A43F40072FB689A6202
:100F5C00FB681B689B6803F46023B3F5602F15D105
:100F6C00FB681B7B002B11D1FB689B6A23F48072FE
:100F7C00FB689A62FB689B6A03F48053002B05D1D3
:100F8C00FB689B6A43F00102FB689A62F868FFF702
:100F9C00A7F904E0FB681B6A1B6B7868984700BFD5
:100FAC001037BD4680BD80B584B000AF78607B68DB
:100FBC005B6AFB60F868FFF77DF900BF1037BD4630
:100FCC0080BD80B584B000AF78607B685B6AFB60E5
:100FDC00FB689B6A43F04002FB689A62FB68DB6A21
:100FEC0043F00402FB68DA62F868FFF7FDFD00BF0E
:100FFC001037BD4680BD000090B587B000AF78605B
:10100C000023FB750023FB607B6893F82430012BD5
:10101C0001D1022397E07B68012283F824207868B1
:10102C00FFF742FF0346FB757868FFF7E3FE0346C4
:10103C00FB75FB7D002B40F081807B689B6A23F461
:10104C00885323F0020343F002027B689A62404B00
:10105C001C68022001F068FA0346B4FBF3F35B0052
:10106C00FB6002E0FB68013BFB60FB68002BF9D1E5
:10107C007B681B689A687B681B6842F008029A6060
:10108C00FFF7E8FB38611BE0FFF7E4FB02463B6926
:10109C00D31A0A2B14D97B681B689B6803F00803CE
:1010AC00002B0DD07B689B6A23F0120343F01002D7
:1010BC007B689A627B68002283F82420012342E03B
:1010CC007B681B689B6803F00803002BDCD17B68F2
:1010DC001B689A687B681B6842F004029A60FFF7F1
:1010EC00B9FB38611BE0FFF7B5FB02463B69D31A2D
:1010FC000A2B14D97B681B689B6803F00403002B34
:10110C000DD07B689B6A23F0120343F010027B68BE
:10111C009A627B68002283F82420012313E07B6809
:10112C001B689B6803F00403002BDCD17B689B6A73
:10113C0023F0030343F001027B689A627B68002270
:10114C0083F82420FB7D18461C37BD4690BD00BF9C
:10115C000000002080B485B000AF78607B6803F09D
:10116C000703FB600C4BDB68BB60BA684FF6FF03F0
:10117C001340BB60FB681A02BB68134343F0BF63A8
:10118C0043F40033BB60044ABB68D36000BF143720
:10119C00BD4680BC704700BF00ED00E080B400AFDE
:1011AC00044BDB681B0A03F007031846BD4680BCE2
:1011BC00704700BF00ED00E080B483B000AF034681
:1011CC00FB7197F90730002B0BDBFB7903F01F0247
:1011DC00064997F907305B09012000FA02F241F841
:1011EC00232000BF0C37BD4680BC704700E100E0F7
:1011FC0080B483B000AF03463960FB7197F90730B8
:10120C00002B0ADB3B68DAB20C4997F90730120164
:10121C00D2B20B4483F800230AE03B68DAB20849E7
:10122C00FB7903F00F03043B1201D2B20B441A7684
:10123C0000BF0C37BD4680BC704700BF00E100E02A
:10124C0000ED00E080B489B000AFF860B9607A605E
:10125C00FB6803F007037B617B69033B042B04D819
:10126C007B69C3F10703FB6101E00423FB617B692C
:10127C000433062B03D97B69033BBB6101E00023DC
:10128C00BB614FF0FF32FB6902FA03F3DA43BB6830
:10129C001A40BB699A404FF0FF31BB6901FA03F366
:1012AC00D9437B680B40134318462437BD4680BC9A
:1012BC007047000080B582B000AF78607B68013B5E
:1012CC00B3F1807F01D301230FE00A4A7B68013B15
:1012DC0053600F214FF0FF30FFF78AFF054B0022C0
:1012EC009A60044B07221A60002318460837BD4643
:1012FC0080BD00BF10E000E080B582B000AF786028
:10130C007868FFF727FF00BF0837BD4680BD80B562
:10131C0086B000AF0346B9607A60FB7300237B6133
:10132C00FFF73CFF78617A68B9687869FFF78AFF44
:10133C00024697F90F3011461846FFF759FF00BFC8
:10134C001837BD4680BD80B582B000AF0346FB7137
:10135C0097F907301846FFF72FFF00BF0837BD4637
:10136C0080BD80B582B000AF78607868FFF7A2FFCF
:10137C00034618460837BD4680BD000080B485B0D2
:10138C0000AF78600023FB607B68002B01D1012348
:10139C0043E07B681B681A46224B1344224AA2FB8B
:1013AC0003231B099A007B681A647B681F4ADA6363
:1013BC007B68022283F821207B681B681B68FB601A
:1013CC00FB6823F47F5323F03003FB607B685A687F
:1013DC007B689B681A437B68DB681A437B681B69D4
:1013EC001A437B685B691A437B689B691A437B6869
:1013FC00DB691343FA681343FB607B681B68FA686C
:10140C001A607B6800229A637B68012283F8212092
:10141C007B68002283F82020002318461437BD4631
:10142C0080BC7047F8FFFDBFCDCCCCCC0000024097
:10143C0080B586B000AFF860B9607A603B6000237D
:10144C00FB75FB6893F82030012B01D102234BE094
:10145C00FB68012283F82020FB6893F82130DBB273
:10146C00012B3AD1FB68022283F82120FB68002271
:10147C009A63FB681B681A68FB681B6822F0010200
:10148C001A603B687A68B968F86800F0EBF9FB6899
:10149C00DB6A002B08D0FB681B681A68FB681B68AA
:1014AC0042F00E021A600FE0FB681B681A68FB68BA
:1014BC001B6822F004021A60FB681B681A68FB6840
:1014CC001B6842F00A021A60FB681B681A68FB680A
:1014DC001B6842F001021A6005E0FB68002283F8E9
:1014EC0020200223FB75FB7D18461837BD4680BDB6
:1014FC0080B485B000AF78600023FB737B6893F8F1
:10150C002130DBB2022B08D07B6804229A637B6803
:10151C00002283F82020012320E07B681B681A68D6
:10152C007B681B6822F00E021A607B681B681A68C5
:10153C007B681B6822F001021A607B681A6C7B685E
:10154C00DB6B012101FA02F25A607B68012283F8FD
:10155C0021207B68002283F82020FB7B184614375F
:10156C00BD4680BC7047000080B584B000AF786089
:10157C000023FB737B6893F82130DBB2022B05D080
:10158C007B6804229A630123FB7351E07B681B6820
:10159C001A687B681B6822F00E021A607B681B6855
:1015AC001A687B681B6822F001021A607B681B6852
:1015BC00224A934229D07B681B68214A934222D04D
:1015CC007B681B681F4A93421AD07B681B681E4AB3
:1015DC00934212D07B681B681C4A93420AD07B68EA
:1015EC001B681B4A934202D14FF480130EE04FF05C
:1015FC0080730BE04FF4803308E04FF4805305E028
:10160C004FF4807302E0102300E00123114A536071
:10161C007B68012283F821207B68002283F820203C
:10162C007B685B6B002B03D07B685B6B786898479F
:10163C00FB7B18461037BD4680BD00BF080002403A
:10164C001C0002403000024044000240580002409E
:10165C006C0002400000024080B584B000AF78609E
:10166C007B68DB6B1B68FB607B681B681B68BB6063
:10167C007B681B6C04229A40FB681340002B4FD0F4
:10168C00BB6803F00403002B4AD07B681B681B6803
:10169C0003F02003002B07D17B681B681A687B685A
:1016AC001B6822F004021A607B681B68664A93422E
:1016BC0029D07B681B68654A934222D07B681B68E3
:1016CC00634A93421AD07B681B68624A934212D0D9
:1016DC007B681B68604A93420AD07B681B685F4A30
:1016EC00934202D14FF480030EE04FF080630BE085
:1016FC004FF4802308E04FF4804305E04FF48063FF
:10170C0002E0402300E00423554A53607B68DB6A07
:10171C00002B00F094807B68DB6A786898478EE039
:10172C007B681B6C02229A40FB681340002B56D03E
:10173C00BB6803F00203002B51D07B681B681B684D
:10174C0003F02003002B0BD17B681B681A687B68A5
:10175C001B6822F00A021A607B68012283F82120A0
:10176C007B681B68384A934229D07B681B68374AD0
:10177C00934222D07B681B68354A93421AD07B680F
:10178C001B68344A934212D07B681B68324A9342DE
:10179C000AD07B681B68314A934202D14FF4001384
:1017AC000EE04FF000730BE04FF4003308E04FF401
:1017BC00005305E04FF4007302E0202300E0022305
:1017CC00274A53607B68002283F820207B689B6A41
:1017DC00002B34D07B689B6A786898472FE07B6835
:1017EC001B6C08229A40FB681340002B28D0BB6866
:1017FC0003F00803002B23D07B681B681A687B68F6
:10180C001B6822F00E021A607B681A6C7B68DB6B1B
:10181C00012101FA02F25A607B6801229A637B680B
:10182C00012283F821207B68002283F820207B682A
:10183C001B6B002B04D07B681B6B7868984700BF30
:10184C0000BF1037BD4680BD080002401C0002409E
:10185C003000024044000240580002406C0002403C
:10186C000000024080B485B000AFF860B9607A60C7
:10187C003B60FB681A6CFB68DB6B012101FA02F21E
:10188C005A60FB681B683A685A60FB685B68102BEF
:10189C0008D1FB681B687A689A60FB681B68BA6899
:1018AC00DA6007E0FB681B68BA689A60FB681B6823
:1018BC007A68DA6000BF1437BD4680BC7047000000
:1018CC0080B48BB000AF7860396000237B6200235A
:1018DC003B6253E101227B6A02FA03F37B613B68B2
:1018EC001B687A6913403B613A697B699A4240F004
:1018FC0042813B685B688F4A934247D08D4A934242
:10190C005ED88D4A934241D08B4A934258D88B4A29
:10191C0093423BD0894A934252D8894A934235D05C
:10192C00874A93424CD8874A93422FD0854A934298
:10193C0046D8854A934229D0834A934240D8122BE9
:10194C001FD0122B3CD8112B11D0112B38D8032BB4
:10195C0033D0032B34D8022B0ED0022B30D8002BD3
:10196C0014D0012B2CD13B68DB683B6229E03B682F
:10197C00DB6804333B6224E03B68DB6808333B6282
:10198C001FE03B68DB680C333B621AE03B689B68EA
:10199C00002B02D104233B6213E03B689B68012BB4
:1019AC0005D108233B627B687A691A6109E0082338
:1019BC003B627B687A695A6103E000233B6200E07A
:1019CC0000BF3B69FF2B02D87B68FB6102E07B68A0
:1019DC000433FB613B69FF2B03D87B6A9B00BB6123
:1019EC0003E07B6A083B9B00BB61FB691A680F2113
:1019FC00BB6901FA03F3DB431A40396ABB6901FA8C
:101A0C0003F31A43FB691A603B685B6803F080536D
:101A1C00002B00F0B0804D4B9B694C4A43F0010306
:101A2C0093614A4B9B6903F00103BB60BB68484A56
:101A3C007B6A9B08023352F82330FB607B6A03F00D
:101A4C0003039B000F2202FA03F3DB43FA681340F3
:101A5C00FB607B683F4A934213D07B683E4A9342BB
:101A6C000DD07B683D4A934207D07B683C4A934239
:101A7C0001D1032306E0042304E0022302E0012346
:101A8C0000E000237A6A02F0030292009340FA68A5
:101A9C001343FB602E497B6A9B080233FA6841F8BA
:101AAC0023203B685B6803F48013002B06D02D4B7E
:101ABC009A682C493B6913438B6006E0294B9A6862
:101ACC003B69DB43274913408B603B685B6803F43D
:101ADC000013002B06D0234BDA6822493B691343D1
:101AEC00CB6006E01F4BDA683B69DB431D491340B2
:101AFC00CB603B685B6803F40033002B06D0194BBA
:101B0C005A6818493B6913434B6006E0154B5A68F9
:101B1C003B69DB43134913404B603B685B6803F440
:101B2C008033002B20D00F4B1A680E493B691343AE
:101B3C000B6020E000003210000031100000221079
:101B4C0000002110000012100000111000100240C3
:101B5C000000014000080140000C01400010014051
:101B6C0000140140000401400B4B1A683B69DB4335
:101B7C00094913400B607B6A01337B623B681A682E
:101B8C007B6A22FA03F3002B7FF4A4AE00BF00BFE4
:101B9C002C37BD4680BC70470004014080B586B030
:101BAC0000AF78607B68002B01D1012372E27B6867
:101BBC001B6803F00103002B00F08780924B5B68DD
:101BCC0003F00C03042B0CD08F4B5B6803F00C035D
:101BDC00082B12D18C4B5B6803F48033B3F5803F38
:101BEC000BD1894B1B6803F40033002B6CD07B6842
:101BFC005B68002B68D101234CE27B685B68B3F512
:101C0C00803F06D1804B1B687F4A43F480331360BE
:101C1C002EE07B685B68002B0CD17B4B1B687A4AEF
:101C2C0023F480331360784B1B68774A23F48023AA
:101C3C0013601DE07B685B68B3F5A02F0CD1724B71
:101C4C001B68714A43F4802313606F4B1B686E4A08
:101C5C0043F4803313600BE06B4B1B686A4A23F42C
:101C6C0080331360684B1B68674A23F4802313602E
:101C7C007B685B68002B13D0FEF7ECFD386108E045
:101C8C00FEF7E8FD02463B69D31A642B01D9032306
:101C9C0000E25D4B1B6803F40033002BF0D014E022
:101CAC00FEF7D8FD386108E0FEF7D4FD02463B692B
:101CBC00D31A642B01D90323ECE1534B1B6803F4B7
:101CCC000033002BF0D100E000BF7B681B6803F0F1
:101CDC000203002B63D04C4B5B6803F00C03002B0E
:101CEC000BD0494B5B6803F00C03082B1CD1464B03
:101CFC005B6803F48033002B16D1434B1B6803F055
:101D0C000203002B05D07B681B69012B01D001233A
:101D1C00C0E13D4B1B6823F0F8027B685B69DB007C
:101D2C00394913430B603AE07B681B69002B20D0C8
:101D3C00364B01221A60FEF78DFD386108E0FEF784
:101D4C0089FD02463B69D31A022B01D90323A1E179
:101D5C002D4B1B6803F00203002BF0D02A4B1B68A1
:101D6C0023F0F8027B685B69DB00274913430B60A7
:101D7C0015E0264B00221A60FEF76CFD386108E076
:101D8C00FEF768FD02463B69D31A022B01D90323E7
:101D9C0080E11D4B1B6803F00203002BF0D17B6824
:101DAC001B6803F00803002B3AD07B689B69002B5F
:101DBC0019D0174B01221A60FEF74CFD386108E070
:101DCC00FEF748FD02463B69D31A022B01D90323C7
:101DDC0060E10D4B5B6A03F00203002BF0D0012095
:101DEC0000F0CEFA1CE00A4B00221A60FEF732FD1E
:101DFC0038610FE0FEF72EFD02463B69D31A022B29
:101E0C0008D9032346E100BF001002400000424203
:101E1C0080044242924B5B6A03F00203002BE9D12F
:101E2C007B681B6803F00403002B00F0A6800023E2
:101E3C00FB758B4BDB6903F08053002B0DD1884B6A
:101E4C00DB69874A43F08053D361854BDB6903F030
:101E5C008053BB60BB680123FB75824B1B6803F48A
:101E6C008073002B18D17F4B1B687E4A43F4807320
:101E7C001360FEF7EFFC386108E0FEF7EBFC02465E
:101E8C003B69D31A642B01D9032303E1754B1B68FF
:101E9C0003F48073002BF0D07B68DB68012B06D138
:101EAC006F4B1B6A6E4A43F0010313622DE07B6893
:101EBC00DB68002B0CD16A4B1B6A694A23F00103C7
:101ECC001362674B1B6A664A23F0040313621CE01F
:101EDC007B68DB68052B0CD1614B1B6A604A43F0B5
:101EEC00040313625E4B1B6A5D4A43F001031362E9
:101EFC000BE05B4B1B6A5A4A23F001031362584BED
:101F0C001B6A574A23F0040313627B68DB68002BBF
:101F1C0015D0FEF79FFC38610AE0FEF79BFC0246E9
:101F2C003B69D31A41F28832934201D90323B1E0C1
:101F3C004B4B1B6A03F00203002BEED014E0FEF7B0
:101F4C0089FC38610AE0FEF785FC02463B69D31A2E
:101F5C0041F28832934201D903239BE0404B1B6A28
:101F6C0003F00203002BEED1FB7D012B05D13C4B82
:101F7C00DB693B4A23F08053D3617B68DB69002B20
:101F8C0000F08780364B5B6803F00C03082B61D0A4
:101F9C007B68DB69022B46D1334B00221A60FEF7BB
:101FAC0059FC386108E0FEF755FC02463B69D31A30
:101FBC00022B01D903236DE0294B1B6803F000733E
:101FCC00002BF0D17B681B6AB3F5803F08D1244B02
:101FDC005B6823F400327B689B68214913434B6098
:101FEC001F4B5B6823F474127B68196A7B685B6A0D
:101FFC000B431B4913434B601B4B01221A60FEF72A
:10200C0029FC386108E0FEF725FC02463B69D31A2F
:10201C00022B01D903233DE0114B1B6803F0007325
:10202C00002BF0D035E0104B00221A60FEF712FCAA
:10203C00386108E0FEF70EFC02463B69D31A022B0E
:10204C0001D9032326E0064B1B6803F00073002B19
:10205C00F0D11EE07B68DB69012B07D1012319E06D
:10206C000010024000700040600042420B4B5B6865
:10207C00FB60FB6803F480327B681B6A9A4206D1D2
:10208C00FB6803F470127B685B6A9A4201D00123EF
:10209C0000E0002318461837BD4680BD00100240F2
:1020AC0080B584B000AF786039607B68002B01D1BB
:1020BC000123D0E06A4B1B6803F007033A689A428D
:1020CC0010D9674B1B6823F0070265493B68134323
:1020DC000B60634B1B6803F007033A689A4201D00C
:1020EC000123B8E07B681B6803F00203002B20D0AF
:1020FC007B681B6803F00403002B05D0594B5B680D
:10210C00584A43F4E06353607B681B6803F0080390
:10211C00002B05D0534B5B68524A43F46053536019
:10212C00504B5B6823F0F0027B689B684D4913436E
:10213C004B607B681B6803F00103002B40D07B686D
:10214C005B68012B07D1474B1B6803F40033002B52
:10215C0015D101237FE07B685B68022B07D1414BD3
:10216C001B6803F00073002B09D1012373E03D4B76
:10217C001B6803F00203002B01D101236BE0394BE8
:10218C005B6823F003027B685B68364913434B6042
:10219C00FEF760FBF8600AE0FEF75CFB0246FB68AA
:1021AC00D31A41F28832934201D9032353E02D4BC9
:1021BC005B6803F00C027B685B689B009A42EBD176
:1021CC00274B1B6803F007033A689A4210D2244B42
:1021DC001B6823F0070222493B6813430B60204B1A
:1021EC001B6803F007033A689A4201D0012332E0DE
:1021FC007B681B6803F00403002B08D0194B5B6849
:10220C0023F4E0627B68DB68164913434B607B6800
:10221C001B6803F00803002B09D0124B5B6823F4F6
:10222C0060527B681B69DB000E4913434B6000F066
:10223C0021F802460B4B5B681B0903F00F030A499C
:10224C00CB5C22FA03F3094A1360094B1B6818464E
:10225C00FEF7BEFA002318461037BD4680BD00BFFE
:10226C000020024000100240CC3F0008000000207B
:10227C000400002080B487B000AF0023FB60002373
:10228C00BB6000237B6100237B6000233B611E4B02
:10229C005B68FB60FB6803F00C03042B02D0082B7B
:1022AC0003D027E0194B3B6127E0FB689B0C03F044
:1022BC000F03174AD35C7B60FB6803F48033002B5D
:1022CC0010D0114B5B685B0C03F00103114AD35C1B
:1022DC00BB607B680D4A03FB02F2BB68B2FBF3F3F5
:1022EC007B6104E07B680C4A02FB03F37B617B6936
:1022FC003B6102E0054B3B6100BF3B6918461C3754
:10230C00BD4680BC704700BF0010024000127A002E
:10231C00E43F0008F43F000800093D0080B400AF22
:10232C00024B1B681846BD4680BC7047000000205D
:10233C0080B500AFFFF7F2FF0246054B5B681B0A46
:10234C0003F007030349CB5C22FA03F3184680BD64
:10235C0000100240DC3F000880B500AFFFF7DEFF45
:10236C000246054B5B68DB0A03F007030349CB5CB1
:10237C0022FA03F3184680BD00100240DC3F00082F
:10238C0080B485B000AF78600A4B1B680A4AA2FB88
:10239C0003235B0A7A6802FB03F3FB6000BFFB6854
:1023AC005A1EFA60002BF9D100BF00BF1437BD468E
:1023BC0080BC704700000020D34D621080B586B001
:1023CC0000AF786000233B610023FB607B681B68D7
:1023DC0003F00103002B7DD00023FB754F4BDB6911
:1023EC0003F08053002B0DD14C4BDB694B4A43F06F
:1023FC008053D361494BDB6903F08053BB60BB68EE
:10240C000123FB75464B1B6803F48073002B18D11A
:10241C00434B1B68424A43F480731360FEF71AFA6D
:10242C00386108E0FEF716FA02463B69D31A642BB2
:10243C0001D903236DE03A4B1B6803F48073002B26
:10244C00F0D0364B1B6A03F44073FB60FB68002B27
:10245C002ED07B685B6803F44073FA689A4227D0ED
:10246C002E4B1B6A23F44073FB602E4B01221A6027
:10247C002C4B00221A60294AFB681362FB6803F09C
:10248C000103002B14D0FEF7E5F938610AE0FEF7E2
:10249C00E1F902463B69D31A41F28832934201D9E1
:1024AC00032336E01D4B1B6A03F00203002BEED016
:1024BC001A4B1B6A23F440727B685B681749134301
:1024CC000B62FB7D012B05D1144BDB69134A23F006
:1024DC008053D3617B681B6803F00203002B08D088
:1024EC000E4B5B6823F440427B689B680B4913439B
:1024FC004B607B681B6803F01003002B08D0074B64
:10250C005B6823F480027B68DB68044913434B60EF
:10251C00002318461837BD4680BD00BF001002408E
:10252C00007000404004424280B588B000AF786033
:10253C0000237B610023FB6100233B610023FB60D4
:10254C000023BB617B68102B0AD07B68102B00F238
:10255C008A807B68012B45D07B68022B75D082E08A
:10256C00464B5B68FB60454B1B6803F08073002B8C
:10257C007BD0FB689B0C03F00F03414AD35C3B619F
:10258C00FB6803F48033002B15D03C4B5B685B0C71
:10259C0003F001033B4AD35C7B61FB6803F480339B
:1025AC00002B0DD0384A7B69B2FBF3F23B6902FB7E
:1025BC0003F3FB6104E03B69344A02FB03F3FB6168
:1025CC002E4B5B6803F48003B3F5800F02D1FB69DB
:1025DC00BB614AE0FB695B002D4AA2FB03235B084D
:1025EC00BB6142E0254B1B6AFB60FB6803F4407344
:1025FC00B3F5807F08D1FB6803F00203002B03D0F6
:10260C004FF40043BB611FE0FB6803F44073B3F568
:10261C00007F09D1194B5B6A03F00203002B03D036
:10262C0049F64043BB610FE0FB6803F44073B3F51C
:10263C00407F1CD1114B1B6803F40033002B16D0C8
:10264C004FF22443BB6112E011E0FFF785FE024616
:10265C000A4B5B689B0B03F0030301335B00B2FB7B
:10266C00F3F3BB6104E000BF02E000BF00E000BF79
:10267C00BB6918462037BD4680BD00BF0010024024
:10268C00F83F00080840000800127A0000093D00DD
:10269C00ABAAAAAA80B582B000AF78607B68002B89
:1026AC0001D1012342E07B6893F84130DBB2002B6F
:1026BC0006D17B68002283F84020786800F03AF855
:1026CC007B68242283F841207B681B68DA687B686E
:1026DC001B6822F40052DA60786800F0DDFD7B683C
:1026EC001B681A697B681B6822F490421A617B682C
:1026FC001B685A697B681B6822F02A025A617B6846
:10270C001B68DA687B681B6842F40052DA607B68ED
:10271C0000225A647B68202283F841207B682022A7
:10272C0083F842207B6800225A630023184608373E
:10273C00BD4680BD80B483B000AF786000BF0C375D
:10274C00BD4680BC7047000080B58CB000AFF8600F
:10275C00B9601346FB80FB6893F84130DBB2202B49
:10276C0062D1BB68002B02D0FB88002B01D1012366
:10277C005BE0BA68FB681A62FB68FA889A84FB68AB
:10278C00FA88DA84FB6800225A64FB68212283F8F9
:10279C004120FB689B6B274A9A62FB689B6B264A1D
:1027AC00DA62FB689B6B254A1A63FB689B6B002201
:1027BC005A6307F10803FB62FB68986BFB6A1968A4
:1027CC00FB681B6804331A46FB88FEF731FE034690
:1027DC00002B08D0FB6810225A64FB68202283F877
:1027EC004120012321E0FB681B686FF040021A6056
:1027FC00FB681B681433BB61BB6953E8003F7B610A
:10280C007B6943F08003BB62FB681B681433BA6AB4
:10281C007A623B62396A7A6A41E80023FB61FB69A0
:10282C00002BE5D1002300E0022318463037BD46CB
:10283C0080BD00BFE52D00087F2E00089B2E0008F0
:10284C0080B5BAB000AF78607B681B681B68C7F8AE
:10285C00E4307B681B68DB68C7F8E0307B681B687A
:10286C005B69C7F8DC300023C7F8D8300023C7F801
:10287C00D430D7F8E43003F00F03C7F8D830D7F8CA
:10288C00D830002B0FD1D7F8E43003F02003002B05
:10289C0009D0D7F8E03003F02003002B03D0786880
:1028AC0000F03CFC6FE2D7F8D830002B00F0DC8055
:1028BC00D7F8DC3003F00103002B06D1D7F8E03059
:1028CC0003F49073002B00F0CF80D7F8E43003F0C2
:1028DC000103002B0BD0D7F8E03003F48073002BEE
:1028EC0005D07B685B6C43F001027B685A64D7F8B7
:1028FC00E43003F00403002B0BD0D7F8DC3003F0EA
:10290C000103002B05D07B685B6C43F002027B68F3
:10291C005A64D7F8E43003F00203002B0BD0D7F83D
:10292C00DC3003F00103002B05D07B685B6C43F0BB
:10293C0004027B685A64D7F8E43003F00803002BD8
:10294C0011D0D7F8E03003F02003002B05D1D7F8D5
:10295C00DC3003F00103002B05D07B685B6C43F08B
:10296C0008027B685A647B685B6C002B00F0068263
:10297C00D7F8E43003F02003002B08D0D7F8E03070
:10298C0003F02003002B02D0786800F0C7FB7B68B3
:10299C001B685B6903F04003C3F38013DBB2C7F819
:1029AC00D4307B685B6C03F00803002B03D1D7F8A1
:1029BC00D430002B4FD0786800F0D6FA7B681B68B7
:1029CC005B6903F04003002B41D07B681B68143318
:1029DC00C7F89C30D7F89C3053E8003FC7F89830C4
:1029EC00D7F8983023F04003C7F8D0307B681B68C9
:1029FC001433D7F8D020C7F8A820C7F8A430D7F8DC
:102A0C00A410D7F8A82041E80023C7F8A030D7F8C5
:102A1C00A030002BD9D17B68DB6B002B13D07B68EB
:102A2C00DB6B894A5A637B68DB6B1846FEF79CFDAF
:102A3C000346002B16D07B68DB6B5B6B7A68D26B22
:102A4C00104698470EE0786800F0B2F90AE0786812
:102A5C0000F0AEF906E0786800F0AAF97B68002275
:102A6C005A648BE100BF89E17B681B6B012B40F042
:102A7C006581D7F8E43003F01003002B00F05E8181
:102A8C00D7F8E03003F01003002B00F0578100233F
:102A9C00BB607B681B681B68BB607B681B685B68E2
:102AAC00BB60BB687B681B685B6903F04003002B51
:102ABC0000F0CC807B68DB6B1B685B68A7F8BE30D2
:102ACC00B7F8BE30002B00F0A8807B689B8DB7F860
:102ADC00BE209A4280F0A1807B68B7F8BE20DA85D0
:102AEC007B68DB6B9B69202B00F088807B681B6804
:102AFC000C33C7F88830D7F8883053E8003FC7F854
:102B0C008430D7F8843023F48073C7F8B8307B68EE
:102B1C001B680C33D7F8B820C7F89420C7F890304E
:102B2C00D7F89010D7F8942041E80023C7F88C30E0
:102B3C00D7F88C30002BD9D17B681B6814337B679A
:102B4C007B6F53E8003F3B673B6F23F00103C7F8F3
:102B5C00B4307B681B681433D7F8B420C7F88020D6
:102B6C00FB67F96FD7F8802041E80023BB67BB6F88
:102B7C00002BE1D17B681B6814333B663B6E53E83A
:102B8C00003FFB65FB6D23F04003C7F8B0307B685A
:102B9C001B681433D7F8B020FA66BB66B96EFA6EB0
:102BAC0041E800237B667B6E002BE3D17B682022FF
:102BBC0083F842207B6800221A637B681B680C3305
:102BCC00FB64FB6C53E8003FBB64BB6C23F010034D
:102BDC00C7F8AC307B681B680C33D7F8AC20BA65EF
:102BEC007B65796DBA6D41E800233B653B6D002B2D
:102BFC00E3D17B68DB6B1846FEF77AFC7B6802221C
:102C0C005A637B689A8D7B68DB8D9BB2D31A9BB21F
:102C1C001946786800F0D5F8B2E07B689B8DB7F860
:102C2C00BE209A4240F0AC807B68DB6B9B69202B0A
:102C3C0040F0A6807B6802225A637B689B8D194604
:102C4C00786800F0BEF89BE0393000087B689A8DFC
:102C5C007B68DB8D9BB2D31AA7F8CE307B68DB8DFB
:102C6C009BB2002B00F08E80B7F8CE30002B00F01A
:102C7C0089807B681B680C33BB63BB6B53E8003FDC
:102C8C007B637B6B23F49073C7F8C8307B681B683D
:102C9C000C33D7F8C8207A643B64396C7A6C41E801
:102CAC000023FB63FB6B002BE3D17B681B681433A5
:102CBC007B627B6A53E8003F3B623B6A23F0010373
:102CCC00C7F8C4307B681B681433D7F8C4203A6348
:102CDC00FB62F96A3A6B41E80023BB62BB6A002BCA
:102CEC00E3D17B68202283F842207B6800221A63A0
:102CFC007B681B680C333B613B6953E8003FFB600E
:102D0C00FB6823F01003C7F8C0307B681B680C33DA
:102D1C00D7F8C020FA61BB61B969FA6941E80023B0
:102D2C007B617B69002BE3D17B6802225A63B7F885
:102D3C00CE301946786800F044F823E0D7F8E43038
:102D4C0003F08003002B09D0D7F8E03003F08003A8
:102D5C00002B03D0786800F07AF914E0D7F8E4304F
:102D6C0003F04003002B0ED0D7F8E03003F0400303
:102D7C00002B08D0786800F0B9F904E000BF02E03D
:102D8C0000BF00E000BFE837BD4680BD80B483B013
:102D9C0000AF786000BF0C37BD4680BC704780B474
:102DAC0083B000AF786000BF0C37BD4680BC704765
:102DBC0080B483B000AF786000BF0C37BD4680BCD8
:102DCC00704780B483B000AF78600B467B8000BF47
:102DDC000C37BD4680BC704780B590B000AF7860B2
:102DEC007B685B6AFB637B681B681B6803F02003D2
:102DFC00002B37D1FB6B0022DA84FB6B1B6814337E
:102E0C007B627B6A53E8003F3B623B6A23F08003A2
:102E1C00BB63FB6B1B681433BA6B3A63FB62F96AD6
:102E2C003A6B41E80023BB62BB6A002BE5D1FB6B1C
:102E3C001B680C333B613B6953E8003FFB60FB684C
:102E4C0043F040037B63FB6B1B680C337A6BFA61BA
:102E5C00BB61B969FA6941E800237B617B69002B8E
:102E6C00E5D102E0F86BFDF751FA00BF4037BD46E3
:102E7C0080BD80B584B000AF78607B685B6AFB6016
:102E8C00F868FFF783FF00BF1037BD4680BD80B5E3
:102E9C0084B000AF78600023FB607B685B6ABB602A
:102EAC00BB681B685B6903F08003C3F3C013DBB220
:102EBC00FB60BB6893F84130DBB2212B08D1FB6877
:102ECC00002B05D0BB680022DA84B86800F025F826
:102EDC00BB681B685B6903F04003C3F38013DBB270
:102EEC00FB60BB6893F84230DBB2222B08D1FB6845
:102EFC00002B05D0BB680022DA85B86800F034F8E6
:102F0C00BB685B6C43F01002BB685A64B868FFF78F
:102F1C004FFF00BF1037BD4680BD80B489B000AFF5
:102F2C0078607B681B680C33FB60FB6853E8003FE0
:102F3C00BB60BB6823F0C003FB617B681B680C3370
:102F4C00FA69BA617B617969BA6941E800233B612E
:102F5C003B69002BE5D17B68202283F8412000BF20
:102F6C002437BD4680BC704780B495B000AF786004
:102F7C007B681B680C337B637B6B53E8003F3B63C4
:102F8C003B6B23F49073FB647B681B680C33FA6C0B
:102F9C003A64FB63F96B3A6C41E80023BB63BB6B8F
:102FAC00002BE5D17B681B6814333B623B6A53E80A
:102FBC00003FFB61FB6923F00103BB647B681B686A
:102FCC001433BA6CFA62BB62B96AFA6A41E800233C
:102FDC007B627B6A002BE5D17B681B6B012B19D1C3
:102FEC007B681B680C33FB60FB6853E8003FBB60DD
:102FFC00BB6823F010037B647B681B680C337A6C12
:10300C00BA617B617969BA6941E800233B613B692C
:10301C00002BE5D17B68202283F842207B680022BC
:10302C001A6300BF5437BD4680BC704780B584B06E
:10303C0000AF78607B685B6AFB60FB680022DA8516
:10304C00F868FFF7B5FE00BF1037BD4680BD80B4F1
:10305C0085B000AF78607B6893F84130DBB2212BF0
:10306C003ED17B689B68B3F5805F14D17B681B698C
:10307C00002B10D17B681B6AFB60FB681B881A460F
:10308C007B681B68C2F308025A607B681B6A9A1C37
:10309C007B681A6208E07B681B6A591C7A681162AB
:1030AC001A787B681B685A607B68DB8C9BB2013B8F
:1030BC009BB27A681946D184002B0FD17B681B68B0
:1030CC00DA687B681B6822F08002DA607B681B6818
:1030DC00DA687B681B6842F04002DA60002300E08B
:1030EC00022318461437BD4680BC704780B582B0A9
:1030FC0000AF78607B681B68DA687B681B6822F01D
:10310C004002DA607B68202283F841207868FDF762
:10311C00FDF8002318460837BD4680BD80B58CB03D
:10312C0000AF78600023FB620023BB627B6893F8DE
:10313C004230DBB2222B40F0AA807B689B68B3F54F
:10314C00805F15D17B681B69002B11D17B689B6A52
:10315C00BB627B681B685B689BB2C3F308039AB2C3
:10316C00BB6A1A807B689B6A9A1C7B689A6224E013
:10317C007B689B6AFB627B689B68B3F5805F07D0BA
:10318C007B689B68002B0AD17B681B69002B06D1DE
:10319C007B681B685B68DAB2FB6A1A7008E07B68B4
:1031AC001B685B68DBB203F07F03DAB2FB6A1A7050
:1031BC007B689B6A5A1C7B689A627B68DB8D9BB22E
:1031CC00013B9BB27A681946D185002B5DD17B6897
:1031DC001B68DA687B681B6822F02002DA607B6867
:1031EC001B68DA687B681B6822F48072DA607B6883
:1031FC001B685A697B681B6822F001025A617B6864
:10320C00202283F842207B6800225A637B681B6B68
:10321C00012B35D17B6800221A637B681B680C3349
:10322C007B617B6953E8003F3B613B6923F01003F2
:10323C007B627B681B680C337A6A3A62FB61F969C2
:10324C003A6A41E80023BB61BB69002BE5D17B687E
:10325C001B681B6803F01003102B0AD10023FB60C2
:10326C007B681B681B68FB607B681B685B68FB608A
:10327C00FB687B689B8D19467868FFF7A2FD02E01E
:10328C007868FFF78CFD002302E0002300E00223A6
:10329C0018463037BD4680BD80B584B000AF78602D
:1032AC007B681B681B6923F440517B68DA687B6878
:1032BC001B680A431A617B689A687B681B691A430E
:1032CC007B685B691343BB607B681B68DB6823F41A
:1032DC00B05323F00C037A681268B9680B43D360BF
:1032EC007B681B685B6923F440717B689A697B6817
:1032FC001B680A435A617B681B682C4A934203D1B2
:10330C00FFF72AF8F86002E0FFF712F8F860FA68A5
:10331C0013469B0013449A001A447B685B689B001D
:10332C00B2FBF3F3224AA2FB03235B091901FA68EF
:10333C0013469B0013449A001A447B685B689B00FD
:10334C00B2FBF3F21A4BA3FB02035B09642000FBF4
:10335C0003F3D31A1B013233154AA2FB03235B0977
:10336C0003F0F0031944FA6813469B0013449A00C7
:10337C001A447B685B689B00B2FBF3F20C4BA3FB1B
:10338C0002035B09642000FB03F3D31A1B013233E5
:10339C00074AA2FB03235B0903F00F027B681B683F
:1033AC000A449A6000BF1037BD4680BD003801400A
:1033BC001F85EB5180B582B000AF78607B68002B25
:1033CC0001D1012341E07B6893F83D30DBB2002B47
:1033DC0006D17B68002283F83C20786800F039F82D
:1033EC007B68022283F83D207B681A687B68043373
:1033FC001946104600F080F87B68012283F84620BD
:10340C007B68012283F83E207B68012283F83F20F1
:10341C007B68012283F840207B68012283F84120DD
:10342C007B68012283F842207B68012283F84320C9
:10343C007B68012283F844207B68012283F84520B5
:10344C007B68012283F83D20002318460837BD46CF
:10345C0080BD80B483B000AF786000BF0C37BD4630
:10346C0080BC704780B485B000AF78607B6893F8FF
:10347C003D30DBB2012B01D0012332E07B6802220C
:10348C0083F83D207B681B68184A93420ED07B68FA
:10349C001B68B3F1804F09D07B681B68144A9342B8
:1034AC0004D07B681B68134A934211D17B681B685C
:1034BC009B6803F00703FB60FB68062B10D07B684E
:1034CC001B681A687B681B6842F001021A6007E0EF
:1034DC007B681B681A687B681B6842F001021A60E3
:1034EC00002318461437BD4680BC7047002C0140A1
:1034FC00000400400008004080B485B000AF786044
:10350C0039607B681B68FB607B682C4A93420BD04C
:10351C007B68B3F1804F07D07B68294A934203D074
:10352C007B68284A934208D1FB6823F07003FB6048
:10353C003B685B68FA681343FB607B681F4A9342E5
:10354C000BD07B68B3F1804F07D07B681C4A934249
:10355C0003D07B681B4A934208D1FB6823F4407369
:10356C00FB603B68DB68FA681343FB60FB6823F085
:10357C0080023B685B691343FB603B689A687B681D
:10358C00DA623B681A687B689A627B680B4A9342E2
:10359C0003D13B681A697B681A637B681B6843F02C
:1035AC0004027B681A607B6801225A617B68FA68A6
:1035BC001A6000BF1437BD4680BC7047002C014018
:1035CC000004004000080040FDF7E0F80B480C49EF
:1035DC000C4A002302E0D458C4500433C4188C4263
:1035EC00F9D3094A094C002301E013600432A242CA
:1035FC00FBD300F039F8FCF70BFE704700000020FD
:10360C005C000020484000085C0000206C05002095
:10361C00FEE700000EB46FF0004110B500249DB021
:10362C001FAB02900690079104910948094953F881
:10363C00042B0591006802A901931B9400F08EF9EC
:10364C00029B1C701DB0BDE8104003B0704700BF5A
:10365C000C0000200802FFFF03460244934200D1F5
:10366C00704703F8011BF9E770B500260C4C0D4BA5
:10367C001D1BB6EBA50F09D1002600F091FC0A4CDE
:10368C000A4B1D1BB6EBA50F05D170BD54F8043BBE
:10369C0098470136EDE754F8043B98470136F1E7BB
:1036AC0040400008404000084040000844400008EA
:1036BC007047704737B5002942D051F8043C0C1FB5
:1036CC00002BB8BFE418019000F0DCF81D4A0198FB
:1036DC00136833B96360146003B0BDE8304000F088
:1036EC00D7B8A34208D9256861198B4201BF196864
:1036FC005B6849192160EDE71A465B680BB1A34280
:10370C00FAD911685518A5420BD1246821445418D4
:10371C00A3421160E0D11C685B680C4414605360D8
:10372C00DAE702D90C230360D6E7256861198B42CE
:10373C0001BF19685B684919216063605460CBE76D
:10374C0003B030BD6405002070B50F4C0E462168E7
:10375C00054611B900F0B4FB20603146284600F054
:10376C00AFFB431C03D14FF0FF34204670BDC41C8B
:10377C0024F00304A042F8D0211A284600F0A0FB44
:10378C000130F2D1EFE700BF600500202DE9F843CE
:10379C00CD1C25F0030508350C2D38BF0C25002D4C
:1037AC00064601DBA94204D90C2333600020BDE896
:1037BC00F883334F00F066F83B681C463CBB294647
:1037CC003046FFF7C1FF431C044656D13C68A04667
:1037DC00B8F1000F40D1002C49D023684146304647
:1037EC0004EB030900F06CFB814540D121683046A5
:1037FC006D1A2946FFF7A8FF013038D023682B44F7
:10380C0023603B685A685ABBC7F800800EE02268F8
:10381C00521B1ED40B2A16D96119A342256018BF5E
:10382C005960636808BF396062514B60304600F0E4
:10383C002FF804F10B00231D20F00700C21A1CBF47
:10384C001B1AA350B3E76268A3420CBF3A605A60DC
:10385C00ECE723466468B1E74446D8F80480B7E740
:10386C001A465B68A342FBD100235360DEE70C23AE
:10387C003046336000F00CF898E70560D6E700BFDF
:10388C00640500200148FFF713BF00BF5C05002052
:10389C000148FFF70EBF00BF5C0500202DE9F04783
:1038AC001F468E688246BE420C469046334653D81D
:1038BC00B1F90C0010F4906F2BD06569236809697D
:1038CC0005EB4505A3EB010905EBD5757B1C6D10CC
:1038DC004B44AB422A4684BF1D462A46430527D596
:1038EC0011465046FFF752FF064658B34A46216927
:1038FC0000F004FBA38923F4906343F08003A381BD
:10390C0026614E4426603B463E466561A5EB0905A3
:10391C00A5601F463A464146206800F0B7FA0020E1
:10392C00A3689B1BA36023683B442360BDE8F0871E
:10393C00504600F0F1FA06460028E1D150462169C4
:10394C00FFF7B8FE0C23CAF80030A3894FF0FF3004
:10395C0043F04003A381E9E73E46DBE72DE9F0475E
:10396C001F468B8906461B060D4614469CB010D587
:10397C000B6973B94021FFF709FF2860286130B942
:10398C000C2333604FF0FF301CB0BDE8F0874023B0
:10399C006B610023099320238DF8293030234FF0DD
:1039AC0001080397644F8DF82A3023461A789946FC
:1039BC001AB1252A03F10103F8D1B9EB040A0BD093
:1039CC005346224629463046FFF768FF013000F087
:1039DC00A380099A5244099299F80030002B00F008
:1039EC009B8000224FF0FF33CDE9053209F101092C
:1039FC00049207928DF853201A924C46052214F823
:103A0C00011B4D4800F06CFA049AD0B9D00644BFA3
:103A1C0020238DF85330110744BF2B238DF85330DE
:103A2C0099F800302A2B13D04B4600204FF00A0C8B
:103A3C0007991A781C46303A092A4AD9A8B1079135
:103A4C0013E0C01B08FA00F01043A1460490D4E721
:103A5C00039B191D1B680391002BBBBF5B4242F0FB
:103A6C00020207930793B8BF049223782E2B0AD136
:103A7C0063782A2B32D1039B02341A1D1B680392E4
:103A8C0043EAE3730593DFF8B490032248462178A8
:103A9C0000F026FA38B14022049BA0EB09008240CA
:103AAC001343013404932178062225488DF82810FD
:103ABC0000F016FA002835D0224818BB039B0733B8
:103ACC0023F0070308330393099B01340344099340
:103ADC006BE701200CFB01210133AAE700234FF017
:103AEC000A0C18460593611C0A780C46303A092AD0
:103AFC0003D9002BC7D00590C5E701230CFB002090
:103B0C000131F1E703AB00932A4630460E4B04A972
:103B1C00AFF30080421CD7D1AB895B063FF532AFC7
:103B2C00099831E703AB00932A463046064B04A9AB
:103B3C0000F082F8EEE700BF0A40000810400008D1
:103B4C001440000800000000A93800082DE9F047D7
:103B5C00914698468A680B6907469342B8BF13464C
:103B6C00C9F8003091F843200C46089E12B101337D
:103B7C00C9F800302368990642BFD9F800300233E7
:103B8C00C9F80030256815F0060507D104F1190AAB
:103B9C00E368D9F800209B1AAB4229DC94F8433037
:103BAC002268003B18BF012392062ED441463846AA
:103BBC0004F14302B047013021D02368A16803F01F
:103BCC000603042B12BF0025E568D9F800302269E2
:103BDC0004BFED1A25EAE5758B1A2B449142C8BF38
:103BEC001D464FF000091A344D451AD1002008E04B
:103BFC000123524641463846B047013003D14FF0BD
:103C0C00FF30BDE8F0870135C2E73020E11881F8BC
:103C1C0043005A1C94F845102244023382F8431096
:103C2C00C4E70123224641463846B0470130E6D06E
:103C3C0009F10109D8E700002DE9F04398460B7E05
:103C4C0085B0782B174606460C460C9A09D8622B81
:103C5C0001F1430108D8002B00F0DC80582B00F058
:103C6C00BD8004F1420539E0A3F163001528F8D8B2
:103C7C0001A555F820F000BFDD3C0008F13C000820
:103C8C006F3C00086F3C00086F3C00086F3C00085C
:103C9C00F13C00086F3C00086F3C00086F3C0008CA
:103CAC006F3C0008013E00081D3D0008AF3D0008B8
:103CBC006F3C00086F3C0008293E00086F3C000870
:103CCC001D3D00086F3C00086F3C0008B73D000824
:103CDC00136804F14205191D1B68116084F8423009
:103CEC000123A8E013682568181D1060280601D56B
:103CFC001B6803E06A06FBD5B3F90030002B03DA2E
:103D0C002D225B4284F843200A22DFF878C113E0AD
:103D1C002568106815F0800F50F8043B02D16D0631
:103D2C0048BF9BB21060227EDFF858C16F2A5DD16C
:103D3C000822002084F843006568002DA56005DB8F
:103D4C0020681D4320F00400206051D00D46B3FBC9
:103D5C00F2F002FB103E1CF80EE09A4205F801ED61
:103D6C000346F4D9082A0BD12368DA0708D523694E
:103D7C0062689A42DEBF302305F8013C05F1FF353D
:103D8C00491B21613B4621463046CDF8008003AAF1
:103D9C00FFF7DCFE013053D14FF0FF3005B0BDE82A
:103DAC00F083236843F0200323607823DFF8D8C026
:103DBC0084F845302068156810F0800F55F8043BE6
:103DCC0003D110F0400F18BF9BB21560C50744BF5C
:103DDC0040F02000206023B11022AAE7DFF8A4C035
:103DEC00E6E7226822F020022260F5E70A22A0E72B
:103DFC000D46B7E71368D4F800C01D1D60691CF0B0
:103E0C00800F15601B6801D0186003E01CF0400F98
:103E1C00FAD0188000230D462361B3E71368191DEF
:103E2C0011601D6800212846626800F059F808B13D
:103E3C00401B606063682361002384F84330A1E772
:103E4C002A46394630462369C0470130A4D023683E
:103E5C009B0714D4E068039B9842B8BF18469DE7B3
:103E6C0001233946304604F11902C047013093D082
:103E7C000135E36803995B1AAB42F1DCEAE70025F4
:103E8C00F7E700BF1B4000082C400008884210B523
:103E9C0001EB020402D98442234607D8431EA142F7
:103EAC0007D011F8012B03F8012FF8E702448242E6
:103EBC0000D110BD13F8011D02F8011DF7E7000039
:103ECC0038B50023054C05460846236000F05AF827
:103EDC00431C02D1236803B12B6038BD5805002068
:103EEC00034610B5C9B20244934201D1002004E04C
:103EFC001846047801338C42F6D110BD0A44914225
:103F0C0000F1FF3300D1704710B511F8014B91420D
:103F1C0003F8014FF9D110BD2DE9F04107461546C4
:103F2C000C4621B91146BDE8F041FFF72FBC2AB968
:103F3C00FFF7C0FB2C462046BDE8F08100F01AF8D4
:103F4C008542064602D8B5EB500FF4D829463846C0
:103F5C00FFF71CFC804608B94446ECE7B5422A46FC
:103F6C00214628BF3246FFF7C9FF21463846FFF7E6
:103F7C00A1FBF1E751F8043C181F002BBCBF0B58F8
:103F8C00C0187047044A05491368002B08BF0B463C
:103F9C001844106018467047680500207005002012
:103FAC00F8B500BFF8BC08BC9E467047F8B500BF1A
:083FBC00F8BC08BC9E467047EA
:103FC40025750A0D0000000000000000000000003C
:103FD40001020304060708090000000001020304AB
:103FE40002030405060708090A0B0C0D0E0F101036
:103FF4000102000002030405060708090A0B0C0D60
:104004000E0F10100102232D302B2000686C4C0081
:1040140065666745464700303132333435363738C4
:104024003941424344454600303132333435363722
:0C403400383961626364656600000000BA
:0440400075010008FE
:044044004D01000822
:1040480000127A001000000001000000100000209B
:10405800000000002004002088040020F004002054
:104068000000000000000000000000000000000048
:104078000000000000000000000000000000000038
:104088000000000000000000000000000000000028
:0C4098000000000000000000000000001C
:04000005080035D5E5
:00000001FF
