:020000040800F2
:100000000050002059180008A1180008A118000885
:10001000A1180008A1180008A1180008000000009D
:10002000000000000000000000000000A11800080F
:10003000A118000800000000A1180008050500082C
:10004000A1180008A1180008A1180008A1180008AC
:10005000A1180008A1180008A1180008A11800089C
:10006000A1180008A1180008A1180008A11800088C
:10007000A1180008A1180008A1180008A11800087C
:10008000A1180008A1180008A1180008A11800086C
:10009000A1180008A1180008A1180008A11800085C
:1000A000A1180008A1180008A1180008A11800084C
:1000B000A1180008A1180008A1180008A11800083C
:1000C000A1180008A1180008A1180008A11800082C
:1000D000A1180008A1180008A1180008A11800081C
:1000E000A1180008A1180008A118000800000000CD
:1000F0000000000000000000000000000000000000
:0C01000000000000000000005FF808F1A3
:10010C000348044B834202D0034B03B1184770479A
:10011C000C0000200C000020000000000548064BDD
:10012C001B1AD90F01EBA301491002D0034B03B1E9
:10013C00184770470C0000200C0000200000000045
:10014C0010B5064C237843B9FFF7DAFF044B13B113
:10015C000448AFF300800123237010BD0C00002075
:10016C0000000000FC18000808B5054B1BB1054940
:10017C000548AFF30080BDE80840FFF7CFBF00BFD4
:10018C000000000010000020FC18000880B584B0AE
:10019C0000AF03460A46FB711346BB71FB793B73F8
:1001AC00BB797B7300221021094800F0A3FC07F1F6
:1001BC000C014FF0FF330222064801F026F9012210
:1001CC001021034800F096FC00BF1037BD4680BDDF
:1001DC00000801402800002080B500AF0F21092045
:1001EC00FFF7D4FF08210A20FFF7D0FF03210B20D3
:1001FC00FFF7CCFF01210C20FFF7C8FF00210F20D7
:10020C00FFF7C4FF00210120FFF7C0FF00210220EF
:10021C00FFF7BCFF00210320FFF7B8FF00210420EB
:10022C00FFF7B4FF00BF80BD80B584B000AF0346BC
:10023C00FB80FA882A4BA3FB0213D9080B469B00C0
:10024C000B445B00D31A9BB2FB73FB88244AA2FBC2
:10025C000323DB089AB2224BA3FB0213D9080B46EB
:10026C009B000B445B00D31A9BB2BB73FB881D4AEB
:10027C00A2FB03235B099AB2194BA3FB0213D90807
:10028C000B469B000B445B00D31A9BB27B73FB8821
:10029C00154AA2FB03239B099AB2114BA3FB021331
:1002AC00D9080B469B000B445B00D31A9BB23B73E3
:1002BC00FB7B19460120FFF769FFBB7B1946022027
:1002CC00FFF764FF7B7B19460320FFF75FFF3B7B47
:1002DC0019460420FFF75AFF00BF1037BD4680BDFA
:1002EC00CDCCCCCC1F85EB51D34D621080B582B0F8
:1002FC0000AF0023FB8000F00DF900F019F800F0BE
:10030C00BDF800F073F8FFF767FFFB881846FFF79E
:10031C008BFF4FF47A7000F065F9FB880133FB809A
:10032C00FB8842F20F729342EFD90023FB80ECE77B
:10033C0080B592B000AF07F12003282200211846A7
:10034C0001F0A9FA07F10C0300221A605A609A60B6
:10035C00DA601A61244B9B69234A43F001039361D1
:10036C00214B9B6903F00103BB60BB681E4BDB692F
:10037C001D4A43F08053D3611B4BDB6903F0805360
:10038C007B607B6802233B6201233B6310237B630E
:10039C000223FB6300233B644FF460137B6407F17F
:1003AC002003184600F0BEFB0346002B01D000BF13
:1003BC00FDE70F23FB6002233B6100237B614FF4BD
:1003CC008063BB610023FB6107F10C03022118461B
:1003DC0000F02AFE0346002B01D000BFFDE700BF52
:1003EC004837BD4680BD00BF0010024080B582B0CA
:1003FC0000AF1F4B9B691E4A43F4805393611C4B07
:10040C009B6903F480537B607B681A4B1A4A1A6011
:10041C00184B4FF482725A60164B00229A60154B9F
:10042C000022DA60134B00221A61124B00225A612F
:10043C00104B4FF400729A610E4B1822DA610D4B7F
:10044C0000221A620B4B00225A620A4B00229A625B
:10045C00084B0A22DA62074800F042FF0346002BE1
:10046C0001D000BFFDE700BF0837BD4680BD00BF0F
:10047C0000100240280000200030014080B586B0FA
:10048C0000AF07F1080300221A605A609A60DA6024
:10049C00174B9B69164A43F004039361144B9B69F9
:1004AC0003F004037B607B68A023BB600223FB602A
:1004BC0003237B6107F1080319460E4800F0ACF9E1
:1004CC001023BB600123FB6000233B6103237B6192
:1004DC0007F108031946074800F09EF90122102184
:1004EC00044800F007FB00BF1837BD4680BD00BFB5
:1004FC00001002400008014080B500AF00F056F833
:10050C0000F07DF900BF80BD80B400AF00BFBD46D8
:10051C0080BC704780B500AF084B1B68074A43F09E
:10052C0010031360032000F037F90F2000F00EF8D1
:10053C0000F006F80023184680BD00BF00200240E2
:10054C0080B400AF00BFBD4680BC704780B582B0A0
:10055C0000AF7860124B1A68124B1B7819464FF497
:10056C007A73B3FBF1F3B2FBF3F3184600F03BF9EB
:10057C000346002B01D001230EE07B680F2B0AD819
:10058C00002279684FF0FF3000F011F9064A7B68C1
:10059C001360002300E0012318460837BD4680BDD8
:1005AC0000000020080000200400002080B400AFF0
:1005BC00054B1B781A46054B1B681344034A136002
:1005CC0000BFBD4680BC70470800002080000020A2
:1005DC0080B400AF024B1B681846BD4680BC704708
:1005EC008000002080B584B000AF7860FFF7F0FF8A
:1005FC00B8607B68FB60FB68B3F1FF3F05D00A4B2A
:10060C001B781A46FB681344FB6000BFFFF7E0FF42
:10061C000246BB68D31AFA689A42F7D800BF00BFEB
:10062C001037BD4680BD00BF0800002080B485B0E7
:10063C0000AF78607B6803F00703FB600C4BDB6852
:10064C00BB60BA684FF6FF031340BB60FB681A022D
:10065C00BB68134343F0BF6343F40033BB60044AED
:10066C00BB68D36000BF1437BD4680BC704700BF69
:10067C0000ED00E080B400AF044BDB681B0A03F014
:10068C0007031846BD4680BC704700BF00ED00E074
:10069C0080B483B000AF03463960FB7197F9073023
:1006AC00002B0ADB3B68DAB20C4997F907301201D0
:1006BC00D2B20B4483F800230AE03B68DAB2084953
:1006CC00FB7903F00F03043B1201D2B20B441A76F0
:1006DC0000BF0C37BD4680BC704700BF00E100E096
:1006EC0000ED00E080B489B000AFF860B9607A60CA
:1006FC00FB6803F007037B617B69033B042B04D885
:10070C007B69C3F10703FB6101E00423FB617B6997
:10071C000433062B03D97B69033BBB6101E0002347
:10072C00BB614FF0FF32FB6902FA03F3DA43BB689B
:10073C001A40BB699A404FF0FF31BB6901FA03F3D1
:10074C00D9437B680B40134318462437BD4680BC05
:10075C007047000080B582B000AF78607B68013BC9
:10076C00B3F1807F01D301230FE00A4A7B68013B80
:10077C0053600F214FF0FF30FFF78AFF054B00222B
:10078C009A60044B07221A60002318460837BD46AE
:10079C0080BD00BF10E000E080B582B000AF786093
:1007AC007868FFF743FF00BF0837BD4680BD80B5B2
:1007BC0086B000AF0346B9607A60FB7300237B619F
:1007CC00FFF758FF78617A68B9687869FFF78AFF94
:1007DC00024697F90F3011461846FFF759FF00BF34
:1007EC001837BD4680BD80B582B000AF78607868A0
:1007FC00FFF7B0FF034618460837BD4680BD80B5ED
:10080C0000AF00F002F800BF80BD80B400AF00BFA5
:10081C00BD4680BC7047000080B48BB000AF7860E0
:10082C00396000237B6200233B6253E101227B6A27
:10083C0002FA03F37B613B681B687A6913403B61E6
:10084C003A697B699A4240F042813B685B688F4A07
:10085C00934247D08D4A93425ED88D4A934241D001
:10086C008B4A934258D88B4A93423BD0894A934245
:10087C0052D8894A934235D0874A93424CD8874AFA
:10088C0093422FD0854A934246D8854A934229D029
:10089C00834A934240D8122B1FD0122B3CD8112BD9
:1008AC0011D0112B38D8032B33D0032B34D8022B77
:1008BC000ED0022B30D8002B14D0012B2CD13B683E
:1008CC00DB683B6229E03B68DB6804333B6224E075
:1008DC003B68DB6808333B621FE03B68DB680C332A
:1008EC003B621AE03B689B68002B02D104233B62FD
:1008FC0013E03B689B68012B05D108233B627B68A6
:10090C007A691A6109E008233B627B687A695A614B
:10091C0003E000233B6200E000BF3B69FF2B02D8E1
:10092C007B68FB6102E07B680433FB613B69FF2B56
:10093C0003D87B6A9B00BB6103E07B6A083B9B008E
:10094C00BB61FB691A680F21BB6901FA03F3DB4336
:10095C001A40396ABB6901FA03F31A43FB691A603E
:10096C003B685B6803F08053002B00F0B0804D4B6C
:10097C009B694C4A43F0010393614A4B9B6903F01A
:10098C000103BB60BB68484A7B6A9B08023352F880
:10099C002330FB607B6A03F003039B000F2202FAF7
:1009AC0003F3DB43FA681340FB607B683F4A9342D6
:1009BC0013D07B683E4A93420DD07B683D4A9342EC
:1009CC0007D07B683C4A934201D1032306E0042301
:1009DC0004E0022302E0012300E000237A6A02F023
:1009EC00030292009340FA681343FB602E497B6A22
:1009FC009B080233FA6841F823203B685B6803F4D8
:100A0C008013002B06D02D4B9A682C493B6913435D
:100A1C008B6006E0294B9A683B69DB4327491340FE
:100A2C008B603B685B6803F40013002B06D0234BF0
:100A3C00DA6822493B691343CB6006E01F4BDA6846
:100A4C003B69DB431D491340CB603B685B6803F497
:100A5C000033002B06D0194B5A6818493B691343D5
:100A6C004B6006E0154B5A683B69DB431349134056
:100A7C004B603B685B6803F48033002B20D00F4B3A
:100A8C001A680E493B6913430B6020E000003210DA
:100A9C000000311000002210000021100000121084
:100AAC00000011100010024000000140000801403D
:100ABC00000C0140001001400014014000040140F2
:100ACC000B4B1A683B69DB43094913400B607B6A8B
:100ADC0001337B623B681A687B6A22FA03F3002BB2
:100AEC007FF4A4AE00BF00BF2C37BD4680BC70475E
:100AFC000004014080B483B000AF78600B467B806B
:100B0C0013467B707B78002B03D07A887B681A6144
:100B1C0003E07B881A047B681A6100BF0C37BD4662
:100B2C0080BC704780B586B000AF78607B68002BC6
:100B3C0001D1012372E27B681B6803F00103002BD7
:100B4C0000F08780924B5B6803F00C03042B0CD0F5
:100B5C008F4B5B6803F00C03082B12D18C4B5B683A
:100B6C0003F48033B3F5803F0BD1894B1B6803F43E
:100B7C000033002B6CD07B685B68002B68D10123A1
:100B8C004CE27B685B68B3F5803F06D1804B1B68F9
:100B9C007F4A43F4803313602EE07B685B68002B44
:100BAC000CD17B4B1B687A4A23F480331360784B4F
:100BBC001B68774A23F4802313601DE07B685B6815
:100BCC00B3F5A02F0CD1724B1B68714A43F48023F0
:100BDC0013606F4B1B686E4A43F4803313600BE059
:100BEC006B4B1B686A4A23F480331360684B1B6899
:100BFC00674A23F4802313607B685B68002B13D057
:100C0C00FFF7E6FC386108E0FFF7E2FC02463B69BF
:100C1C00D31A642B01D9032300E25D4B1B6803F448
:100C2C000033002BF0D014E0FFF7D2FC386108E061
:100C3C00FFF7CEFC02463B69D31A642B01D9032380
:100C4C00ECE1534B1B6803F40033002BF0D100E0B4
:100C5C0000BF7B681B6803F00203002B63D04C4B76
:100C6C005B6803F00C03002B0BD0494B5B6803F063
:100C7C000C03082B1CD1464B5B6803F48033002B10
:100C8C0016D1434B1B6803F00203002B05D07B6885
:100C9C001B69012B01D00123C0E13D4B1B6823F0E4
:100CAC00F8027B685B69DB00394913430B603AE05F
:100CBC007B681B69002B20D0364B01221A60FFF792
:100CCC0087FC386108E0FFF783FC02463B69D31AC6
:100CDC00022B01D90323A1E12D4B1B6803F0020366
:100CEC00002BF0D02A4B1B6823F0F8027B685B6961
:100CFC00DB00274913430B6015E0264B00221A60DA
:100D0C00FFF766FC386108E0FFF762FC02463B69BE
:100D1C00D31A022B01D9032380E11D4B1B6803F06E
:100D2C000203002BF0D17B681B6803F00803002B37
:100D3C003AD07B689B69002B19D0174B01221A60A3
:100D4C00FFF746FC386108E0FFF742FC02463B69BE
:100D5C00D31A022B01D9032360E10D4B5B6A03F01C
:100D6C000203002BF0D0012000F09CFA1CE00A4B8F
:100D7C0000221A60FFF72CFC38610FE0FFF728FC0B
:100D8C0002463B69D31A022B08D9032346E100BF64
:100D9C00001002400000424280044242924B5B6AC7
:100DAC0003F00203002BE9D17B681B6803F00403FA
:100DBC00002B00F0A6800023FB758B4BDB6903F046
:100DCC008053002B0DD1884BDB69874A43F080534D
:100DDC00D361854BDB6903F08053BB60BB68012397
:100DEC00FB75824B1B6803F48073002B18D17F4B6F
:100DFC001B687E4A43F480731360FFF7E9FB38618C
:100E0C0008E0FFF7E5FB02463B69D31A642B01D9D6
:100E1C00032303E1754B1B6803F48073002BF0D0A4
:100E2C007B68DB68012B06D16F4B1B6A6E4A43F063
:100E3C00010313622DE07B68DB68002B0CD16A4B3D
:100E4C001B6A694A23F001031362674B1B6A664AEB
:100E5C0023F0040313621CE07B68DB68052B0CD1C8
:100E6C00614B1B6A604A43F0040313625E4B1B6ABE
:100E7C005D4A43F0010313620BE05B4B1B6A5A4A59
:100E8C0023F001031362584B1B6A574A23F00403E7
:100E9C0013627B68DB68002B15D0FFF799FB386178
:100EAC000AE0FFF795FB02463B69D31A41F2883200
:100EBC00934201D90323B1E04B4B1B6A03F00203AD
:100ECC00002BEED014E0FFF783FB38610AE0FFF74C
:100EDC007FFB02463B69D31A41F28832934201D917
:100EEC0003239BE0404B1B6A03F00203002BEED163
:100EFC00FB7D012B05D13C4BDB693B4A23F0805336
:100F0C00D3617B68DB69002B00F08780364B5B6814
:100F1C0003F00C03082B61D07B68DB69022B46D1F4
:100F2C00334B00221A60FFF753FB386108E0FFF7E0
:100F3C004FFB02463B69D31A022B01D903236DE008
:100F4C00294B1B6803F00073002BF0D17B681B6AE4
:100F5C00B3F5803F08D1244B5B6823F400327B68E7
:100F6C009B68214913434B601F4B5B6823F474123D
:100F7C007B68196A7B685B6A0B431B4913434B60A4
:100F8C001B4B01221A60FFF723FB386108E0FFF7C7
:100F9C001FFB02463B69D31A022B01D903233DE008
:100FAC00114B1B6803F00073002BF0D035E0104B95
:100FBC0000221A60FFF70CFB386108E0FFF708FB12
:100FCC0002463B69D31A022B01D9032326E0064BB8
:100FDC001B6803F00073002BF0D11EE07B68DB690B
:100FEC00012B07D1012319E00010024000700040D2
:100FFC00600042420B4B5B68FB60FB6803F4803281
:10100C007B681B6A9A4206D1FB6803F470127B68FA
:10101C005B6A9A4201D0012300E00023184618377E
:10102C00BD4680BD0010024080B584B000AF786032
:10103C0039607B68002B01D10123D0E06A4B1B681F
:10104C0003F007033A689A4210D9674B1B6823F0E8
:10105C00070265493B6813430B60634B1B6803F045
:10106C0007033A689A4201D00123B8E07B681B68F9
:10107C0003F00203002B20D07B681B6803F00403F1
:10108C00002B05D0594B5B68584A43F4E06353601E
:10109C007B681B6803F00803002B05D0534B5B687F
:1010AC00524A43F460535360504B5B6823F0F00298
:1010BC007B689B684D4913434B607B681B6803F04E
:1010CC000103002B40D07B685B68012B07D1474B99
:1010DC001B6803F40033002B15D101237FE07B68E0
:1010EC005B68022B07D1414B1B6803F00073002B8C
:1010FC0009D1012373E03D4B1B6803F00203002B65
:10110C0001D101236BE0394B5B6823F003027B6850
:10111C005B68364913434B60FFF75AFAF8600AE0F4
:10112C00FFF756FA0246FB68D31A41F28832934213
:10113C0001D9032353E02D4B5B6803F00C027B6851
:10114C005B689B009A42EBD1274B1B6803F00703AB
:10115C003A689A4210D2244B1B6823F007022249AA
:10116C003B6813430B60204B1B6803F007033A6882
:10117C009A4201D0012332E07B681B6803F0040320
:10118C00002B08D0194B5B6823F4E0627B68DB68AA
:10119C00164913434B607B681B6803F00803002B54
:1011AC0009D0124B5B6823F460527B681B69DB002F
:1011BC000E4913434B6000F021F802460B4B5B6861
:1011CC001B0903F00F030A49CB5C22FA03F3094A0B
:1011DC001360094B1B681846FFF7B8F90023184633
:1011EC001037BD4680BD00BF0020024000100240F9
:1011FC0014190008000000200400002080B487B0FF
:10120C0000AF0023FB600023BB6000237B61002345
:10121C007B6000233B611E4B5B68FB60FB6803F04B
:10122C000C03042B02D0082B03D027E0194B3B6195
:10123C0027E0FB689B0C03F00F03174AD35C7B6021
:10124C00FB6803F48033002B10D0114B5B685B0CF4
:10125C0003F00103114AD35CBB607B680D4A03FBAE
:10126C0002F2BB68B2FBF3F37B6104E07B680C4ACF
:10127C0002FB03F37B617B693B6102E0054B3B6145
:10128C0000BF3B6918461C37BD4680BC704700BF89
:10129C000010024000127A002419000834190008CA
:1012AC0000093D0080B485B000AF78600A4B1B6824
:1012BC000A4AA2FB03235B0A7A6802FB03F3FB6076
:1012CC0000BFFB685A1EFA60002BF9D100BF00BFAB
:1012DC001437BD4680BC704700000020D34D62100F
:1012EC0080B582B000AF78607B68002B01D1012300
:1012FC007EE07B685B6A002B08D17B685B68B3F58A
:10130C00827F09D07B680022DA6105E07B680022CD
:10131C001A617B6800225A617B6893F85130DBB20A
:10132C00002B06D17B68002283F85020786800F0EF
:10133C0063F87B68022283F851207B681B681A686B
:10134C007B681B6822F040021A607B685B6803F4C0
:10135C0082727B689B6803F404431A437B68DB68E6
:10136C0003F400631A437B681B6903F002031A43FE
:10137C007B685B6903F001031A437B689B6903F488
:10138C0000731A437B68DB6903F038031A437B68EC
:10139C001B6A03F0800342EA03017B689B6A03F437
:1013AC0000527B681B680A431A607B689B691A0CA5
:1013BC007B681B6802F004025A607B689B6AB3F579
:1013CC00005F05D17B68DA6A7B681B6892B21A6190
:1013DC007B681B68DA697B681B6822F40062DA613F
:1013EC007B6800225A657B68012283F85120002318
:1013FC0018460837BD4680BD80B483B000AF786016
:10140C0000BF0C37BD4680BC704780B588B000AFBC
:10141C00F860B9603B601346FB80FFF7D9F8F861C0
:10142C00FB887B83FB6893F85130DBB2012B01D036
:10143C0002234CE1BB68002B02D0FB88002B01D1AE
:10144C00012344E1FB6893F85030012B01D10223B6
:10145C003DE1FB68012283F85020FB68032283F8EE
:10146C005120FB6800225A65FB68BA681A63FB6856
:10147C00FA889A86FB68FA88DA86FB6800229A63F7
:10148C00FB6800229A87FB680022DA87FB6800223F
:10149C005A64FB6800221A64FB689B68B3F5004F22
:1014AC000FD1FB681B681A68FB681B6822F04002AE
:1014BC001A60FB681B681A68FB681B6842F4804260
:1014CC001A60FB689B6AB3F5005F0FD1FB681B6861
:1014DC001A68FB681B6822F400521A60FB681B68D0
:1014EC001A68FB681B6842F400521A60FB681B68A0
:1014FC001B6803F04003402B07D0FB681B681A687D
:10150C00FB681B6842F040021A60FB68DB68B3F5AD
:10151C00006F52D1FB685B68002B02D07B8B012BD8
:10152C0045D1FB681B6B1A88FB681B68DA60FB688B
:10153C001B6B9A1CFB681A63FB68DB8E9BB2013B2E
:10154C009AB2FB68DA8632E0FB681B689B6803F092
:10155C000203022B12D1FB681B6B1A88FB681B68F9
:10156C00DA60FB681B6B9A1CFB681A63FB68DB8EEA
:10157C009BB2013B9AB2FB68DA8618E0FFF728F8B9
:10158C000246FB69D31A3A689A4203D83B68B3F116
:10159C00FF3F02D13B68002B09D1FB68012283F885
:1015AC005120FB68002283F8502003238FE0FB6856
:1015BC00DB8E9BB2002BC7D153E0FB685B68002B22
:1015CC0002D07B8B012B47D1FB681A6BFB681B6825
:1015DC000C3312781A70FB681B6B5A1CFB681A636D
:1015EC00FB68DB8E9BB2013B9AB2FB68DA8633E078
:1015FC00FB681B689B6803F00203022B13D1FB688A
:10160C001A6BFB681B680C3312781A70FB681B6B27
:10161C005A1CFB681A63FB68DB8E9BB2013B9AB2C7
:10162C00FB68DA8618E0FEF7D3FF0246FB69D31A93
:10163C003A689A4203D83B68B3F1FF3F02D13B684A
:10164C00002B09D1FB68012283F85120FB68002292
:10165C0083F8502003233AE0FB68DB8E9BB2002B0F
:10166C00C6D1FB689B6AB3F5005F07D1FB681B68AA
:10167C001A68FB681B6842F480521A60FA69396870
:10168C00F86800F0B1F80346002B02D0FB6820226A
:10169C005A65FB689B68002B0AD100237B61FB68B1
:1016AC001B68DB687B61FB681B689B687B617B69E3
:1016BC00FB68012283F85120FB68002283F850203C
:1016CC00FB685B6D002B01D0012300E00023184662
:1016DC002037BD4680BD000080B588B000AFF860F3
:1016EC00B9603B601346FB71FEF772FF0246BB6AA2
:1016FC009B1A3A681344FB61FEF76AFFB861394BD9
:10170C001B685B011B0DFA6902FB03F37B6155E05F
:10171C003B68B3F1FF3F51D0FEF75AFF0246BB695D
:10172C00D31AFA699A4202D9FB69002B3DD1FB68A6
:10173C001B685A68FB681B6822F0E0025A60FB6861
:10174C005B68B3F5827F11D1FB689B68B3F5004FE2
:10175C0004D0FB689B68B3F5806F07D1FB681B68EE
:10176C001A68FB681B6822F040021A60FB689B6ACF
:10177C00B3F5005F0FD1FB681B681A68FB681B6828
:10178C0022F400521A60FB681B681A68FB681B681D
:10179C0042F400521A60FB68012283F85120FB6866
:1017AC00002283F85020032318E07B69002B02D120
:1017BC000023FB6102E07B69013B7B61FB681B68DA
:1017CC009A68BB681340BA689A420CBF0123002385
:1017DC00DBB21A46FB799A429AD10023184620377D
:1017EC00BD4680BD0000002080B586B002AFF86019
:1017FC00B9607A607B680093BB6801220221F868AB
:10180C00FFF76AFF0346002B07D0FB685B6D43F0C4
:10181C002002FB685A65032313E07B680093BB68C6
:10182C0000228021F868FFF757FF0346002B07D0F2
:10183C00FB685B6D43F02002FB685A65032300E0F4
:10184C00002318461037BD4680BD0000FEF75CFE35
:10185C000B480C490C4A002302E0D458C450043302
:10186C00C4188C42F9D3094A094C002301E01360D7
:10187C000432A242FBD300F017F8FEF737FD704795
:10188C00000000200C000020401900080C00002073
:10189C0084000020FEE703460244934200D17047C7
:1018AC0003F8011BF9E7000070B500260C4C0D4B3A
:1018BC001D1BB6EBA50F09D1002600F019F80A4C38
:1018CC000A4B1D1BB6EBA50F05D170BD54F8043B9C
:1018DC0098470136EDE754F8043B98470136F1E799
:1018EC003819000838190008381900083C19000884
:1018FC00F8B500BFF8BC08BC9E467047F8B500BFF1
:08190C00F8BC08BC9E467047C0
:10191400000000000000000001020304060708099B
:1019240002030405060708090A0B0C0D0E0F10101C
:0419340001020000AC
:04193800750100082D
:04193C004D01000851
:0C19400000127A001000000001000000FE
:04000005080018597E
:00000001FF
