:020000040800F2
:1000000000500020052600084D2600084D26000857
:100010004D2600084D2600084D260008000000006F
:100020000000000000000000000000004D26000855
:100030004D260008000000004D260008ED020008D3
:100040004D2600084D2600084D2600084D260008C4
:100050004D2600084D260008B50200084D26000870
:100060004D2600084D2600084D2600084D260008A4
:100070004D2600084D260008C50200084D26000840
:100080004D2600084D2600084D2600084D26000884
:100090004D2600084D2600084D2600084D26000874
:1000A0004D2600084D2600084D2600084D26000864
:1000B0004D2600084D2600084D2600084D26000854
:1000C0004D2600084D2600084D2600084D26000844
:1000D0004D260008D90200084D2600084D260008CC
:1000E0004D2600084D2600084D260008000000009F
:1000F0000000000000000000000000000000000000
:0C01000000000000000000005FF808F1A3
:10010C000348044B834202D0034B03B1184770479A
:10011C005C0000205C000020000000000548064B3D
:10012C001B1AD90F01EBA301491002D0034B03B1E9
:10013C00184770475C0000205C00002000000000A5
:10014C0010B5064C237843B9FFF7DAFF044B13B113
:10015C000448AFF300800123237010BD5C00002025
:10016C0000000000DC2F000808B5054B1BB1054949
:10017C000548AFF30080BDE80840FFF7CFBF00BFD4
:10018C000000000060000020DC2F000880B582B069
:10019C0000AF114B1B78DBB2002B18D10F4B1B6837
:1001AC001A460F490F4802F04DFA0346FB800A4BE2
:1001BC0001221A70FB881A460A490B4801F0E6FB2B
:1001CC000346002B04D0044B00221A7000E000BF41
:1001DC000837BD4680BD00BF090100200401002086
:1001EC00F42F00080C0100207800002080B500AF2F
:1001FC0000F0BEF900F06AF900F078F800F0AAF807
:10020C0000F0F2F8074B1B78DBB2002BFAD0064B50
:10021C001B78DBB2002BF5D1024B00221A70FFF7D2
:10022C00B5FFEFE7080100200901002080B584B07C
:10023C0000AF0346FB80FB88012B14D100F0F6F9CC
:10024C00F8600B4B1B68FA68D31AB3F5AF7F0AD36F
:10025C00074AFB681360074B1B680133054A1360A0
:10026C00054B01221A7000BF1037BD4680BD00BF80
:10027C004C010020040100200801002080B483B050
:10028C0000AF78607B681B68054A934202D1054B2E
:10029C0000221A7000BF0C37BD4680BC704700BFEF
:1002AC00003801400901002080B500AF012000F0AA
:1002BC00EBFE00BF80BD000080B500AF024800F02F
:1002CC0041FC00BF80BD00BFC000002080B500AF66
:1002DC00024801F0D7FB00BF80BD00BF78000020B2
:1002EC0080B500AF00F090F900BF80BD80B586B03E
:1002FC0000AF07F1080300221A605A609A60DA60B6
:10030C00114B9B69104A43F0040393610E4B9B699C
:10031C0003F004037B607B680123BB600B4BFB6029
:10032C0001233B6107F108031946094800F03EFD23
:10033C0000220121062000F060FA062000F079FA74
:10034C0000BF1837BD4680BD0010024000002110D0
:10035C000008014080B582B000AF1F4B5B691E4A9C
:10036C0043F0010353611C4B5B6903F001037B6099
:10037C007B681A4B1A4A1A60184B10225A60174B9A
:10038C0000229A60154B8022DA60144B00221A610D
:10039C00124B00225A61114B00229A610F4B002222
:1003AC00DA610E4800F060FA0346002B01D000F031
:1003BC00D2F80C4B094A9A63084B0A4A5A6200223B
:1003CC0002210E2000F019FA0E2000F032FA00BFC4
:1003DC000837BD4680BD00BF00100240C0000020A1
:1003EC00440002407800002080B586B000AF07F1D1
:1003FC00080300221A605A609A60DA602F4B9B69DE
:10040C002E4A43F4804393612C4B9B6903F4804345
:10041C007B607B68294B9B69284A43F004039361FA
:10042C00264B9B6903F004033B603B684FF400735D
:10043C00BB600223FB6003237B6107F108031946B1
:10044C001F4800F0B3FC4FF48063BB600023FB60DB
:10045C0000233B6107F108031946194800F0A6FC7C
:10046C00184B194A1A60174B4FF4E1325A60154B6E
:10047C0000229A60134B0022DA60124B00221A61A0
:10048C00104B0C225A610F4B00229A610D4B00222B
:10049C00DA610C4801F020FA0346002B01D000F081
:1004AC005AF800220321252000F0A7F9252000F09E
:1004BC00C0F900BF1837BD4680BD00BF0010024018
:1004CC0000080140780000200038014080B590B051
:1004DC0000AF07F1180328220021184602F0D4F8C7
:1004EC003B1D00221A605A609A60DA601A6101237F
:1004FC00BB614FF48033FB6100233B620123BB6281
:10050C0002237B634FF48033BB634FF4E013FB6334
:10051C0007F11803184600F0CFFD0346002B01D05D
:10052C0000F019F80F237B600223BB600023FB60F3
:10053C004FF480633B6100237B613B1D0221184615
:10054C0001F03CF80346002B01D000F004F800BF8A
:10055C004037BD4680BD80B400AF72B600BF00BF4F
:10056C00FDE780B400AF00BFBD4680BC7047000003
:10057C0080B500AF084B1B68074A43F010031360AB
:10058C00032000F02FF90F2000F00EF800F006F811
:10059C000023184680BD00BF0020024080B400AF8D
:1005AC0000BFBD4680BC704780B582B000AF78609C
:1005BC00124B1A68124B1B7819464FF47A73B3FB23
:1005CC00F1F3B2FBF3F3184600F041F90346002BAC
:1005DC0001D001230EE07B680F2B0AD8002279682A
:1005EC004FF0FF3000F009F9064A7B6813600023D6
:1005FC0000E0012318460837BD4680BD00000020EE
:10060C00080000200400002080B400AF054B1B78CC
:10061C001A46054B1B681344034A136000BFBD46C2
:10062C0080BC7047080000205001002080B400AF4F
:10063C00024B1B681846BD4680BC70475001002019
:10064C0080B485B000AF78607B6803F00703FB6073
:10065C000C4BDB68BB60BA684FF6FF031340BB6002
:10066C00FB681A02BB68134343F0BF6343F40033C7
:10067C00BB60044ABB68D36000BF1437BD4680BC66
:10068C00704700BF00ED00E080B400AF044BDB68A6
:10069C001B0A03F007031846BD4680BC704700BF19
:1006AC0000ED00E080B483B000AF0346FB7197F916
:1006BC000730002B0BDBFB7903F01F02064997F97F
:1006CC0007305B09012000FA02F241F8232000BF39
:1006DC000C37BD4680BC704700E100E080B483B0AD
:1006EC0000AF03463960FB7197F90730002B0ADB2A
:1006FC003B68DAB20C4997F907301201D2B20B44BD
:10070C0083F800230AE03B68DAB20849FB7903F06E
:10071C000F03043B1201D2B20B441A7600BF0C3704
:10072C00BD4680BC704700BF00E100E000ED00E07A
:10073C0080B489B000AFF860B9607A60FB6803F0F0
:10074C0007037B617B69033B042B04D87B69C3F1F2
:10075C000703FB6101E00423FB617B690433062B77
:10076C0003D97B69033BBB6101E00023BB614FF004
:10077C00FF32FB6902FA03F3DA43BB681A40BB6928
:10078C009A404FF0FF31BB6901FA03F3D9437B6800
:10079C000B40134318462437BD4680BC70470000FD
:1007AC0080B582B000AF78607B68013BB3F1807F8D
:1007BC0001D301230FE00A4A7B68013B53600F21F0
:1007CC004FF0FF30FFF78AFF054B00229A60044B75
:1007DC0007221A60002318460837BD4680BD00BFAB
:1007EC0010E000E080B582B000AF78607868FFF769
:1007FC0027FF00BF0837BD4680BD80B586B000AF6F
:10080C000346B9607A60FB7300237B61FFF73CFF02
:10081C0078617A68B9687869FFF78AFF024697F9B8
:10082C000F3011461846FFF759FF00BF1837BD4669
:10083C0080BD80B582B000AF0346FB7197F90730DD
:10084C001846FFF72FFF00BF0837BD4680BD80B5A7
:10085C0082B000AF78607868FFF7A2FF03461846B5
:10086C000837BD4680BD000080B485B000AF78600D
:10087C000023FB607B68002B01D1012343E07B68E4
:10088C001B681A46224B1344224AA2FB03231B0962
:10089C009A007B681A647B681F4ADA637B680222C1
:1008AC0083F821207B681B681B68FB60FB6823F4C2
:1008BC007F5323F03003FB607B685A687B689B682E
:1008CC001A437B68DB681A437B681B691A437B6895
:1008DC005B691A437B689B691A437B68DB6913432A
:1008EC00FA681343FB607B681B68FA681A607B68C4
:1008FC0000229A637B68012283F821207B68002206
:10090C0083F82020002318461437BD4680BC70475E
:10091C00F8FFFDBFCDCCCCCC0000024080B586B03A
:10092C0000AFF860B9607A603B600023FB75FB6830
:10093C0093F82030012B01D102234BE0FB680122FC
:10094C0083F82020FB6893F82130DBB2012B3AD1DD
:10095C00FB68022283F82120FB6800229A63FB6863
:10096C001B681A68FB681B6822F001021A603B685E
:10097C007A68B968F86800F0EBF9FB68DB6A002B61
:10098C0008D0FB681B681A68FB681B6842F00E02F3
:10099C001A600FE0FB681B681A68FB681B6822F082
:1009AC0004021A60FB681B681A68FB681B6842F03B
:1009BC000A021A60FB681B681A68FB681B6842F025
:1009CC0001021A6005E0FB68002283F82020022354
:1009DC00FB75FB7D18461837BD4680BD80B485B0CD
:1009EC0000AF78600023FB737B6893F82130DBB297
:1009FC00022B08D07B6804229A637B68002283F860
:100A0C002020012320E07B681B681A687B681B6828
:100A1C0022F00E021A607B681B681A687B681B68E0
:100A2C0022F001021A607B681A6C7B68DB6B012177
:100A3C0001FA02F25A607B68012283F821207B685C
:100A4C00002283F82020FB7B18461437BD4680BC5F
:100A5C007047000080B584B000AF78600023FB7352
:100A6C007B6893F82130DBB2022B05D07B68042223
:100A7C009A630123FB7351E07B681B681A687B68DF
:100A8C001B6822F00E021A607B681B681A687B6870
:100A9C001B6822F001021A607B681B68224A934291
:100AAC0029D07B681B68214A934222D07B681B6843
:100ABC001F4A93421AD07B681B681E4A934212D07D
:100ACC007B681B681C4A93420AD07B681B681B4AD4
:100ADC00934202D14FF480130EE04FF080730BE081
:100AEC004FF4803308E04FF4805305E04FF48073EB
:100AFC0002E0102300E00123114A53607B680122BD
:100B0C0083F821207B68002283F820207B685B6BB4
:100B1C00002B03D07B685B6B78689847FB7B18468F
:100B2C001037BD4680BD00BF080002401C000240CB
:100B3C003000024044000240580002406C00024069
:100B4C000000024080B584B000AF78607B68DB6B3E
:100B5C001B68FB607B681B681B68BB607B681B6C3D
:100B6C0004229A40FB681340002B4FD0BB6803F063
:100B7C000403002B4AD07B681B681B6803F020031E
:100B8C00002B07D17B681B681A687B681B6822F0F6
:100B9C0004021A607B681B68664A934229D07B6802
:100BAC001B68654A934222D07B681B68634A934258
:100BBC001AD07B681B68624A934212D07B681B6810
:100BCC00604A93420AD07B681B685F4A934202D109
:100BDC004FF480030EE04FF080630BE04FF4802362
:100BEC0008E04FF4804305E04FF4806302E04023BB
:100BFC0000E00423554A53607B68DB6A002B00F04D
:100C0C0094807B68DB6A786898478EE07B681B6C05
:100C1C0002229A40FB681340002B56D0BB6803F0AD
:100C2C000203002B51D07B681B681B6803F0200368
:100C3C00002B0BD17B681B681A687B681B6822F041
:100C4C000A021A607B68012283F821207B681B68EA
:100C5C00384A934229D07B681B68374A934222D08A
:100C6C007B681B68354A93421AD07B681B68344AF0
:100C7C00934212D07B681B68324A93420AD07B683D
:100C8C001B68314A934202D14FF400130EE04FF02F
:100C9C0000730BE04FF4003308E04FF4005305E011
:100CAC004FF4007302E0202300E00223274A536034
:100CBC007B68002283F820207B689B6A002B34D051
:100CCC007B689B6A786898472FE07B681B6C0822CE
:100CDC009A40FB681340002B28D0BB6803F0080334
:100CEC00002B23D07B681B681A687B681B6822F07A
:100CFC000E021A607B681A6C7B68DB6B012101FAAF
:100D0C0002F25A607B6801229A637B68012283F8A5
:100D1C0021207B68002283F820207B681B6B002B32
:100D2C0004D07B681B6B7868984700BF00BF1037F6
:100D3C00BD4680BD080002401C000240300002404D
:100D4C0044000240580002406C0002400000024087
:100D5C0080B485B000AFF860B9607A603B60FB6826
:100D6C001A6CFB68DB6B012101FA02F25A60FB681A
:100D7C001B683A685A60FB685B68102B08D1FB68EB
:100D8C001B687A689A60FB681B68BA68DA6007E0CF
:100D9C00FB681B68BA689A60FB681B687A68DA6043
:100DAC0000BF1437BD4680BC7047000080B48BB0C8
:100DBC0000AF7860396000237B6200233B6253E113
:100DCC0001227B6A02FA03F37B613B681B687A6938
:100DDC0013403B613A697B699A4240F042813B681F
:100DEC005B688F4A934247D08D4A93425ED88D4AB6
:100DFC00934241D08B4A934258D88B4A93423BD072
:100E0C00894A934252D8894A934235D0874A9342B1
:100E1C004CD8874A93422FD0854A934246D8854A6C
:100E2C00934229D0834A934240D8122B1FD0122BC5
:100E3C003CD8112B11D0112B38D8032B33D0032BCA
:100E4C0034D8022B0ED0022B30D8002B14D0012B0F
:100E5C002CD13B68DB683B6229E03B68DB680433E0
:100E6C003B6224E03B68DB6808333B621FE03B6875
:100E7C00DB680C333B621AE03B689B68002B02D1A9
:100E8C0004233B6213E03B689B68012B05D10823CC
:100E9C003B627B687A691A6109E008233B627B68D4
:100EAC007A695A6103E000233B6200E000BF3B69B2
:100EBC00FF2B02D87B68FB6102E07B680433FB618B
:100ECC003B69FF2B03D87B6A9B00BB6103E07B6A09
:100EDC00083B9B00BB61FB691A680F21BB6901FAD7
:100EEC0003F3DB431A40396ABB6901FA03F31A4373
:100EFC00FB691A603B685B6803F08053002B00F0C1
:100F0C00B0804D4B9B694C4A43F0010393614A4BB3
:100F1C009B6903F00103BB60BB68484A7B6A9B0872
:100F2C00023352F82330FB607B6A03F003039B000F
:100F3C000F2202FA03F3DB43FA681340FB607B6871
:100F4C003F4A934213D07B683E4A93420DD07B6854
:100F5C003D4A934207D07B683C4A934201D103231C
:100F6C0006E0042304E0022302E0012300E0002356
:100F7C007A6A02F0030292009340FA681343FB6012
:100F8C002E497B6A9B080233FA6841F823203B68A0
:100F9C005B6803F48013002B06D02D4B9A682C4908
:100FAC003B6913438B6006E0294B9A683B69DB4332
:100FBC00274913408B603B685B6803F40013002BDC
:100FCC0006D0234BDA6822493B691343CB6006E019
:100FDC001F4BDA683B69DB431D491340CB603B6810
:100FEC005B6803F40033002B06D0194B5A68184980
:100FFC003B6913434B6006E0154B5A683B69DB4376
:10100C00134913404B603B685B6803F48033002B3F
:10101C0020D00F4B1A680E493B6913430B6020E03C
:10102C0000003210000031100000221000002110CE
:10103C0000001210000011100010024000000140CE
:10104C0000080140000C0140001001400014014058
:10105C00000401400B4B1A683B69DB430949134000
:10106C000B607B6A01337B623B681A687B6A22FAED
:10107C0003F3002B7FF4A4AE00BF00BF2C37BD469A
:10108C0080BC70470004014080B582B000AF0346BD
:10109C00FB80084B5A69FB881340002B06D0054A8D
:1010AC00FB885361FB881846FFF7C0F800BF083770
:1010BC00BD4680BD0004014080B586B000AF7860AD
:1010CC007B68002B01D1012372E27B681B6803F063
:1010DC000103002B00F08780924B5B6803F00C033C
:1010EC00042B0CD08F4B5B6803F00C03082B12D134
:1010FC008C4B5B6803F48033B3F5803F0BD1894B89
:10110C001B6803F40033002B6CD07B685B68002BEE
:10111C0068D101234CE27B685B68B3F5803F06D154
:10112C00804B1B687F4A43F4803313602EE07B684E
:10113C005B68002B0CD17B4B1B687A4A23F4803301
:10114C001360784B1B68774A23F4802313601DE0EF
:10115C007B685B68B3F5A02F0CD1724B1B68714A8E
:10116C0043F4802313606F4B1B686E4A43F4803347
:10117C0013600BE06B4B1B686A4A23F480331360DB
:10118C00684B1B68674A23F4802313607B685B6899
:10119C00002B13D0FFF74AFA386108E0FFF746FA44
:1011AC0002463B69D31A642B01D9032300E25D4B41
:1011BC001B6803F40033002BF0D014E0FFF736FA71
:1011CC00386108E0FFF732FA02463B69D31A642B08
:1011DC0001D90323ECE1534B1B6803F40033002BC0
:1011EC00F0D100E000BF7B681B6803F00203002B0A
:1011FC0063D04C4B5B6803F00C03002B0BD0494BBA
:10120C005B6803F00C03082B1CD1464B5B6803F4A2
:10121C008033002B16D1434B1B6803F00203002BC9
:10122C0005D07B681B69012B01D00123C0E13D4B2C
:10123C001B6823F0F8027B685B69DB0039491343B8
:10124C000B603AE07B681B69002B20D0364B0122E7
:10125C001A60FFF7EBF9386108E0FFF7E7F902468F
:10126C003B69D31A022B01D90323A1E12D4B1B6837
:10127C0003F00203002BF0D02A4B1B6823F0F8027A
:10128C007B685B69DB00274913430B6015E0264B39
:10129C0000221A60FFF7CAF9386108E0FFF7C6F9B7
:1012AC0002463B69D31A022B01D9032380E11D4B63
:1012BC001B6803F00203002BF0D17B681B6803F062
:1012CC000803002B3AD07B689B69002B19D0174B75
:1012DC0001221A60FFF7AAF9386108E0FFF7A6F9B6
:1012EC0002463B69D31A022B01D9032360E10D4B53
:1012FC005B6A03F00203002BF0D0012000F0CEFA61
:10130C001CE00A4B00221A60FFF790F938610FE0DD
:10131C00FFF78CF902463B69D31A022B08D9032339
:10132C0046E100BF001002400000424280044242ED
:10133C00924B5B6A03F00203002BE9D17B681B68BC
:10134C0003F00403002B00F0A6800023FB758B4BED
:10135C00DB6903F08053002B0DD1884BDB69874A86
:10136C0043F08053D361854BDB6903F08053BB6042
:10137C00BB680123FB75824B1B6803F48073002B45
:10138C0018D17F4B1B687E4A43F480731360FFF7C0
:10139C004DF9386108E0FFF749F902463B69D31A69
:1013AC00642B01D9032303E1754B1B6803F4807391
:1013BC00002BF0D07B68DB68012B06D16F4B1B6ACE
:1013CC006E4A43F0010313622DE07B68DB68002B4F
:1013DC000CD16A4B1B6A694A23F001031362674BF9
:1013EC001B6A664A23F0040313621CE07B68DB680B
:1013FC00052B0CD1614B1B6A604A43F0040313624A
:10140C005E4B1B6A5D4A43F0010313620BE05B4BBE
:10141C001B6A5A4A23F001031362584B1B6A574A42
:10142C0023F0040313627B68DB68002B15D0FFF7F5
:10143C00FDF838610AE0FFF7F9F802463B69D31A68
:10144C0041F28832934201D90323B1E04B4B1B6A22
:10145C0003F00203002BEED014E0FFF7E7F838613D
:10146C000AE0FFF7E3F802463B69D31A41F28832EF
:10147C00934201D903239BE0404B1B6A03F0020308
:10148C00002BEED1FB7D012B05D13C4BDB693B4A9C
:10149C0023F08053D3617B68DB69002B00F08780DD
:1014AC00364B5B6803F00C03082B61D07B68DB695F
:1014BC00022B46D1334B00221A60FFF7B7F8386184
:1014CC0008E0FFF7B3F802463B69D31A022B01D9A7
:1014DC0003236DE0294B1B6803F00073002BF0D144
:1014EC007B681B6AB3F5803F08D1244B5B6823F4FF
:1014FC0000327B689B68214913434B601F4B5B6830
:10150C0023F474127B68196A7B685B6A0B431B4972
:10151C0013434B601B4B01221A60FFF787F83861AD
:10152C0008E0FFF783F802463B69D31A022B01D976
:10153C0003233DE0114B1B6803F00073002BF0D02C
:10154C0035E0104B00221A60FFF770F8386108E0A4
:10155C00FFF76CF802463B69D31A022B01D903231F
:10156C0026E0064B1B6803F00073002BF0D11EE045
:10157C007B68DB69012B07D1012319E000100240C5
:10158C0000700040600042420B4B5B68FB60FB68E4
:10159C0003F480327B681B6A9A4206D1FB6803F421
:1015AC0070127B685B6A9A4201D0012300E0002331
:1015BC0018461837BD4680BD0010024080B584B077
:1015CC0000AF786039607B68002B01D10123D0E03B
:1015DC006A4B1B6803F007033A689A4210D9674BB1
:1015EC001B6823F0070265493B6813430B60634B90
:1015FC001B6803F007033A689A4201D00123B8E054
:10160C007B681B6803F00203002B20D07B681B68EF
:10161C0003F00403002B05D0594B5B68584A43F484
:10162C00E06353607B681B6803F00803002B05D054
:10163C00534B5B68524A43F460535360504B5B68A6
:10164C0023F0F0027B689B684D4913434B607B6829
:10165C001B6803F00103002B40D07B685B68012BF7
:10166C0007D1474B1B6803F40033002B15D1012322
:10167C007FE07B685B68022B07D1414B1B6803F052
:10168C000073002B09D1012373E03D4B1B6803F061
:10169C000203002B01D101236BE0394B5B6823F073
:1016AC0003027B685B68364913434B60FEF7BEFF51
:1016BC00F8600AE0FEF7BAFF0246FB68D31A41F263
:1016CC008832934201D9032353E02D4B5B6803F01E
:1016DC000C027B685B689B009A42EBD1274B1B6822
:1016EC0003F007033A689A4210D2244B1B6823F08C
:1016FC00070222493B6813430B60204B1B6803F025
:10170C0007033A689A4201D0012332E07B681B68D8
:10171C0003F00403002B08D0194B5B6823F4E06240
:10172C007B68DB68164913434B607B681B6803F0CE
:10173C000803002B09D0124B5B6823F460527B68C2
:10174C001B69DB000E4913434B6000F021F8024685
:10175C000B4B5B681B0903F00F030A49CB5C22FAA5
:10176C0003F3094A1360094B1B681846FEF71CFF6C
:10177C00002318461037BD4680BD00BF0020024034
:10178C000010024018300008000000200400002067
:10179C0080B487B000AF0023FB600023BB60002344
:1017AC007B6100237B6000233B611E4B5B68FB600D
:1017BC00FB6803F00C03042B02D0082B03D027E0AA
:1017CC00194B3B6127E0FB689B0C03F00F03174A96
:1017DC00D35C7B60FB6803F48033002B10D0114B7F
:1017EC005B685B0C03F00103114AD35CBB607B6844
:1017FC000D4A03FB02F2BB68B2FBF3F37B6104E01E
:10180C007B680C4A02FB03F37B617B693B6102E062
:10181C00054B3B6100BF3B6918461C37BD4680BC7D
:10182C00704700BF0010024000127A0030300008F0
:10183C004030000800093D0080B400AF024B1B682B
:10184C001846BD4680BC70470000002080B500AF34
:10185C00FFF7F2FF0246054B5B681B0A03F0070318
:10186C000349CB5C22FA03F3184680BD00100240FA
:10187C002830000880B500AFFFF7DEFF0246054BAD
:10188C005B68DB0A03F007030349CB5C22FA03F322
:10189C00184680BD001002402830000880B485B086
:1018AC0000AF78600A4B1B680A4AA2FB03235B0A51
:1018BC007A6802FB03F3FB6000BFFB685A1EFA60F8
:1018CC00002BF9D100BF00BF1437BD4680BC704758
:1018DC0000000020D34D621080B582B000AF78605C
:1018EC007B68002B01D1012342E07B6893F84130E7
:1018FC00DBB2002B06D17B68002283F8402078688D
:10190C0000F03AF87B68242283F841207B681B683E
:10191C00DA687B681B6822F40052DA60786800F0A1
:10192C00DDFD7B681B681A697B681B6822F490429A
:10193C001A617B681B685A697B681B6822F02A0253
:10194C005A617B681B68DA687B681B6842F400523A
:10195C00DA607B6800225A647B68202283F841207D
:10196C007B68202283F842207B6800225A63002384
:10197C0018460837BD4680BD80B483B000AF786090
:10198C0000BF0C37BD4680BC7047000080B58CB0E2
:10199C0000AFF860B9601346FB80FB6893F84130E8
:1019AC00DBB2202B62D1BB68002B02D0FB88002B52
:1019BC0001D101235BE0BA68FB681A62FB68FA8804
:1019CC009A84FB68FA88DA84FB6800225A64FB6804
:1019DC00212283F84120FB689B6B274A9A62FB68A3
:1019EC009B6B264ADA62FB689B6B254A1A63FB6881
:1019FC009B6B00225A6307F10803FB62FB68986B30
:101A0C00FB6A1968FB681B6804331A46FB88FEF7EF
:101A1C0085FF0346002B08D0FB6810225A64FB6834
:101A2C00202283F84120012321E0FB681B686FF022
:101A3C0040021A60FB681B681433BB61BB6953E836
:101A4C00003F7B617B6943F08003BB62FB681B68D2
:101A5C001433BA6A7A623B62396A7A6A41E80023C3
:101A6C00FB61FB69002BE5D1002300E00223184643
:101A7C003037BD4680BD00BF29200008C3200008B8
:101A8C00DF20000880B5BAB000AF78607B681B68B7
:101A9C001B68C7F8E4307B681B68DB68C7F8E0306C
:101AAC007B681B685B69C7F8DC300023C7F8D8304B
:101ABC000023C7F8D430D7F8E43003F00F03C7F88D
:101ACC00D830D7F8D830002B0FD1D7F8E43003F04A
:101ADC002003002B09D0D7F8E03003F02003002BB3
:101AEC0003D0786800F03CFC6FE2D7F8D830002BBC
:101AFC0000F0DC80D7F8DC3003F00103002B06D1BA
:101B0C00D7F8E03003F49073002B00F0CF80D7F8B7
:101B1C00E43003F00103002B0BD0D7F8E03003F4D2
:101B2C008073002B05D07B685B6C43F001027B68F3
:101B3C005A64D7F8E43003F00403002B0BD0D7F829
:101B4C00DC3003F00103002B05D07B685B6C43F0A9
:101B5C0002027B685A64D7F8E43003F00203002BCE
:101B6C000BD0D7F8DC3003F00103002B05D07B68D9
:101B7C005B6C43F004027B685A64D7F8E43003F0E2
:101B8C000803002B11D0D7F8E03003F02003002B12
:101B9C0005D1D7F8DC3003F00103002B05D07B68AE
:101BAC005B6C43F008027B685A647B685B6C002BAF
:101BBC0000F00682D7F8E43003F02003002B08D0A5
:101BCC00D7F8E03003F02003002B02D0786800F047
:101BDC00C7FB7B681B685B6903F04003C3F380138E
:101BEC00DBB2C7F8D4307B685B6C03F00803002BC6
:101BFC0003D1D7F8D430002B4FD0786800F0D6FA48
:101C0C007B681B685B6903F04003002B41D07B6849
:101C1C001B681433C7F89C30D7F89C3053E8003F4E
:101C2C00C7F89830D7F8983023F04003C7F8D03075
:101C3C007B681B681433D7F8D020C7F8A820C7F8E6
:101C4C00A430D7F8A410D7F8A82041E80023C7F88F
:101C5C00A030D7F8A030002BD9D17B68DB6B002BE0
:101C6C0013D07B68DB6B894A5A637B68DB6B184645
:101C7C00FEF7F0FE0346002B16D07B68DB6B5B6B2C
:101C8C007A68D26B104698470EE0786800F0B2F98B
:101C9C000AE0786800F0AEF906E0786800F0AAF97E
:101CAC007B6800225A648BE100BF89E17B681B6B67
:101CBC00012B40F06581D7F8E43003F01003002BC2
:101CCC0000F05E81D7F8E03003F01003002B00F039
:101CDC0057810023BB607B681B681B68BB607B68FB
:101CEC001B685B68BB60BB687B681B685B6903F047
:101CFC004003002B00F0CC807B68DB6B1B685B68BF
:101D0C00A7F8BE30B7F8BE30002B00F0A8807B6877
:101D1C009B8DB7F8BE209A4280F0A1807B68B7F803
:101D2C00BE20DA857B68DB6B9B69202B00F08880FA
:101D3C007B681B680C33C7F88830D7F8883053E8B9
:101D4C00003FC7F88430D7F8843023F48073C7F889
:101D5C00B8307B681B680C33D7F8B820C7F89420D0
:101D6C00C7F89030D7F89010D7F8942041E80023AA
:101D7C00C7F88C30D7F88C30002BD9D17B681B6816
:101D8C0014337B677B6F53E8003F3B673B6F23F05B
:101D9C000103C7F8B4307B681B681433D7F8B42040
:101DAC00C7F88020FB67F96FD7F8802041E8002343
:101DBC00BB67BB6F002BE1D17B681B6814333B66A0
:101DCC003B6E53E8003FFB65FB6D23F04003C7F807
:101DDC00B0307B681B681433D7F8B020FA66BB664A
:101DEC00B96EFA6E41E800237B667B6E002BE3D163
:101DFC007B68202283F842207B6800221A637B6870
:101E0C001B680C33FB64FB6C53E8003FBB64BB6C7E
:101E1C0023F01003C7F8AC307B681B680C33D7F881
:101E2C00AC20BA657B65796DBA6D41E800233B65E2
:101E3C003B6D002BE3D17B68DB6B1846FEF7CEFDC8
:101E4C007B6802225A637B689A8D7B68DB8D9BB220
:101E5C00D31A9BB21946786800F0D5F8B2E07B68CB
:101E6C009B8DB7F8BE209A4240F0AC807B68DB6B50
:101E7C009B69202B40F0A6807B6802225A637B680A
:101E8C009B8D1946786800F0BEF89BE07D22000817
:101E9C007B689A8D7B68DB8D9BB2D31AA7F8CE300A
:101EAC007B68DB8D9BB2002B00F08E80B7F8CE30B8
:101EBC00002B00F089807B681B680C33BB63BB6B09
:101ECC0053E8003F7B637B6B23F49073C7F8C830F7
:101EDC007B681B680C33D7F8C8207A643B64396C78
:101EEC007A6C41E80023FB63FB6B002BE3D17B682E
:101EFC001B6814337B627B6A53E8003F3B623B6A8E
:101F0C0023F00103C7F8C4307B681B681433D7F87F
:101F1C00C4203A63FB62F96A3A6B41E80023BB6266
:101F2C00BB6A002BE3D17B68202283F842207B68BC
:101F3C0000221A637B681B680C333B613B6953E8D6
:101F4C00003FFB60FB6823F01003C7F8C0307B68D0
:101F5C001B680C33D7F8C020FA61BB61B969FA6908
:101F6C0041E800237B617B69002BE3D17B68022273
:101F7C005A63B7F8CE301946786800F044F823E07D
:101F8C00D7F8E43003F08003002B09D0D7F8E03009
:101F9C0003F08003002B03D0786800F07AF914E08A
:101FAC00D7F8E43003F04003002B0ED0D7F8E03024
:101FBC0003F04003002B08D0786800F0B9F904E076
:101FCC0000BF02E000BF00E000BFE837BD4680BDA7
:101FDC0080B483B000AF786000BF0C37BD4680BCC6
:101FEC00704780B483B000AF786000BF0C37BD463B
:101FFC0080BC704780B483B000AF786000BF0C37F2
:10200C00BD4680BC704780B483B000AF78600B468F
:10201C007B8000BF0C37BD4680BC704780B590B04C
:10202C0000AF78607B685B6AFB637B681B681B682E
:10203C0003F02003002B37D1FB6B0022DA84FB6BFF
:10204C001B6814337B627B6A53E8003F3B623B6A3C
:10205C0023F08003BB63FB6B1B681433BA6B3A63CE
:10206C00FB62F96A3A6B41E80023BB62BB6A002B46
:10207C00E5D1FB6B1B680C333B613B6953E8003FBC
:10208C00FB60FB6843F040037B63FB6B1B680C330A
:10209C007A6BFA61BB61B969FA6941E800237B612B
:1020AC007B69002BE5D102E0F86BFEF7E7F800BF87
:1020BC004037BD4680BD80B584B000AF78607B688A
:1020CC005B6AFB60F868FFF783FF00BF1037BD4603
:1020DC0080BD80B584B000AF78600023FB607B6866
:1020EC005B6ABB60BB681B685B6903F08003C3F36E
:1020FC00C013DBB2FB60BB6893F84130DBB2212B21
:10210C0008D1FB68002B05D0BB680022DA84B868C4
:10211C0000F025F8BB681B685B6903F04003C3F350
:10212C008013DBB2FB60BB6893F84230DBB2222B2E
:10213C0008D1FB68002B05D0BB680022DA85B86893
:10214C0000F034F8BB685B6C43F01002BB685A6457
:10215C00B868FFF74FFF00BF1037BD4680BD80B495
:10216C0089B000AF78607B681B680C33FB60FB6840
:10217C0053E8003FBB60BB6823F0C003FB617B6886
:10218C001B680C33FA69BA617B617969BA6941E8F9
:10219C0000233B613B69002BE5D17B68202283F84F
:1021AC00412000BF2437BD4680BC704780B495B039
:1021BC0000AF78607B681B680C337B637B6B53E8E8
:1021CC00003F3B633B6B23F49073FB647B681B68A1
:1021DC000C33FA6C3A64FB63F96B3A6C41E80023FC
:1021EC00BB63BB6B002BE5D17B681B6814333B6274
:1021FC003B6A53E8003FFB61FB6923F00103BB64BE
:10220C007B681B681433BA6CFA62BB62B96AFA6AEF
:10221C0041E800237B627B6A002BE5D17B681B6B5A
:10222C00012B19D17B681B680C33FB60FB6853E8EE
:10223C00003FBB60BB6823F010037B647B681B68AA
:10224C000C337A6CBA617B617969BA6941E8002315
:10225C003B613B69002BE5D17B68202283F842204F
:10226C007B6800221A6300BF5437BD4680BC7047A0
:10227C0080B584B000AF78607B685B6AFB60FB68FC
:10228C000022DA85F868FFF7B5FE00BF1037BD46AF
:10229C0080BD80B485B000AF78607B6893F8413026
:1022AC00DBB2212B3ED17B689B68B3F5805F14D1E8
:1022BC007B681B69002B10D17B681B6AFB60FB6879
:1022CC001B881A467B681B68C2F308025A607B683D
:1022DC001B6A9A1C7B681A6208E07B681B6A591C93
:1022EC007A6811621A787B681B685A607B68DB8C91
:1022FC009BB2013B9BB27A681946D184002B0FD15B
:10230C007B681B68DA687B681B6822F08002DA60E5
:10231C007B681B68DA687B681B6842F04002DA60F5
:10232C00002300E0022318461437BD4680BC7047DA
:10233C0080B582B000AF78607B681B68DA687B6818
:10234C001B6822F04002DA607B68202283F841206F
:10235C007868FDF793FF002318460837BD4680BD0B
:10236C0080B58CB000AF78600023FB620023BB62A9
:10237C007B6893F84230DBB2222B40F0AA807B685A
:10238C009B68B3F5805F15D17B681B69002B11D15D
:10239C007B689B6ABB627B681B685B689BB2C3F300
:1023AC0008039AB2BB6A1A807B689B6A9A1C7B688A
:1023BC009A6224E07B689B6AFB627B689B68B3F53E
:1023CC00805F07D07B689B68002B0AD17B681B69F8
:1023DC00002B06D17B681B685B68DAB2FB6A1A704B
:1023EC0008E07B681B685B68DBB203F07F03DAB242
:1023FC00FB6A1A707B689B6A5A1C7B689A627B68C2
:10240C00DB8D9BB2013B9BB27A681946D185002BC0
:10241C005DD17B681B68DA687B681B6822F0200240
:10242C00DA607B681B68DA687B681B6822F4807250
:10243C00DA607B681B685A697B681B6822F00102B2
:10244C005A617B68202283F842207B6800225A6301
:10245C007B681B6B012B35D17B6800221A637B6870
:10246C001B680C337B617B6953E8003F3B613B6924
:10247C0023F010037B627B681B680C337A6A3A6228
:10248C00FB61F9693A6A41E80023BB61BB69002B27
:10249C00E5D17B681B681B6803F01003102B0AD175
:1024AC000023FB607B681B681B68FB607B681B68F8
:1024BC005B68FB60FB687B689B8D19467868FFF74F
:1024CC00A2FD02E07868FFF78CFD002302E00023F8
:1024DC0000E0022318463037BD4680BD80B584B07D
:1024EC0000AF78607B681B681B6923F440517B68E4
:1024FC00DA687B681B680A431A617B689A687B6898
:10250C001B691A437B685B691343BB607B681B6860
:10251C00DB6823F4B05323F00C037A681268B968B3
:10252C000B43D3607B681B685B6923F440717B6849
:10253C009A697B681B680A435A617B681B682C4A42
:10254C00934203D1FFF796F9F86002E0FFF77EF9AA
:10255C00F860FA6813469B0013449A001A447B688F
:10256C005B689B00B2FBF3F3224AA2FB03235B09DB
:10257C001901FA6813469B0013449A001A447B68AD
:10258C005B689B00B2FBF3F21A4BA3FB02035B09E3
:10259C00642000FB03F3D31A1B013233154AA2FB50
:1025AC0003235B0903F0F0031944FA6813469B00FC
:1025BC0013449A001A447B685B689B00B2FBF3F2ED
:1025CC000C4BA3FB02035B09642000FB03F3D31A3F
:1025DC001B013233074AA2FB03235B0903F00F02F2
:1025EC007B681B680A449A6000BF1037BD4680BDEB
:1025FC00003801401F85EB51FDF7B3FF0B480C4928
:10260C000C4A002302E0D458C4500433C4188C4242
:10261C00F9D3094A094C002301E013600432A242A9
:10262C00FBD300F039F8FDF7E1FD70470000002006
:10263C005C000020803000085C000020A00200201C
:10264C00FEE700000EB46FF0004110B500249DB001
:10265C001FAB02900690079104910948094953F861
:10266C00042B0591006802A901931B9400F08EF9CC
:10267C00029B1C701DB0BDE8104003B0704700BF3A
:10268C000C0000200802FFFF03460244934200D1D5
:10269C00704703F8011BF9E770B500260C4C0D4B85
:1026AC001D1BB6EBA50F09D1002600F091FC0A4CBE
:1026BC000A4B1D1BB6EBA50F05D170BD54F8043B9E
:1026CC0098470136EDE754F8043B98470136F1E79B
:1026DC007830000878300008783000087C3000082A
:1026EC007047704737B5002942D051F8043C0C1F95
:1026FC00002BB8BFE418019000F0DCF81D4A0198DB
:10270C00136833B96360146003B0BDE8304000F067
:10271C00D7B8A34208D9256861198B4201BF196843
:10272C005B6849192160EDE71A465B680BB1A3425F
:10273C00FAD911685518A5420BD1246821445418B4
:10274C00A3421160E0D11C685B680C4414605360B8
:10275C00DAE702D90C230360D6E7256861198B42AE
:10276C0001BF19685B684919216063605460CBE74D
:10277C0003B030BD9802002070B50F4C0E46216896
:10278C00054611B900F0B4FB20603146284600F034
:10279C00AFFB431C03D14FF0FF34204670BDC41C6B
:1027AC0024F00304A042F8D0211A284600F0A0FB24
:1027BC000130F2D1EFE700BF940200202DE9F8437D
:1027CC00CD1C25F0030508350C2D38BF0C25002D2C
:1027DC00064601DBA94204D90C2333600020BDE876
:1027EC00F883334F00F066F83B681C463CBB294627
:1027FC003046FFF7C1FF431C044656D13C68A04647
:10280C00B8F1000F40D1002C49D023684146304626
:10281C0004EB030900F06CFB814540D12168304684
:10282C006D1A2946FFF7A8FF013038D023682B44D6
:10283C0023603B685A685ABBC7F800800EE02268D8
:10284C00521B1ED40B2A16D96119A342256018BF3E
:10285C005960636808BF396062514B60304600F0C4
:10286C002FF804F10B00231D20F00700C21A1CBF27
:10287C001B1AA350B3E76268A3420CBF3A605A60BC
:10288C00ECE723466468B1E74446D8F80480B7E720
:10289C001A465B68A342FBD100235360DEE70C238E
:1028AC003046336000F00CF898E70560D6E700BFBF
:1028BC00980200200148FFF713BF00BF90020020D0
:1028CC000148FFF70EBF00BF900200202DE9F04732
:1028DC001F468E688246BE420C469046334653D8FD
:1028EC00B1F90C0010F4906F2BD06569236809695D
:1028FC0005EB4505A3EB010905EBD5757B1C6D10AC
:10290C004B44AB422A4684BF1D462A46430527D575
:10291C0011465046FFF752FF064658B34A46216906
:10292C0000F004FBA38923F4906343F08003A3819C
:10293C0026614E4426603B463E466561A5EB090583
:10294C00A5601F463A464146206800F0B7FA0020C1
:10295C00A3689B1BA36023683B442360BDE8F087FE
:10296C00504600F0F1FA06460028E1D150462169A4
:10297C00FFF7B8FE0C23CAF80030A3894FF0FF30E4
:10298C0043F04003A381E9E73E46DBE72DE9F0473E
:10299C001F468B8906461B060D4614469CB010D567
:1029AC000B6973B94021FFF709FF2860286130B922
:1029BC000C2333604FF0FF301CB0BDE8F087402390
:1029CC006B610023099320238DF8293030234FF0BD
:1029DC0001080397644F8DF82A3023461A789946DC
:1029EC001AB1252A03F10103F8D1B9EB040A0BD073
:1029FC005346224629463046FFF768FF013000F067
:102A0C00A380099A5244099299F80030002B00F0E7
:102A1C009B8000224FF0FF33CDE9053209F101090B
:102A2C00049207928DF853201A924C46052214F802
:102A3C00011B4D4800F06CFA049AD0B9D00644BF83
:102A4C0020238DF85330110744BF2B238DF85330BE
:102A5C0099F800302A2B13D04B4600204FF00A0C6B
:102A6C0007991A781C46303A092A4AD9A8B1079115
:102A7C0013E0C01B08FA00F01043A1460490D4E701
:102A8C00039B191D1B680391002BBBBF5B4242F0DB
:102A9C00020207930793B8BF049223782E2B0AD116
:102AAC0063782A2B32D1039B02341A1D1B680392C4
:102ABC0043EAE3730593DFF8B49003224846217888
:102ACC0000F026FA38B14022049BA0EB09008240AA
:102ADC001343013404932178062225488DF82810DD
:102AEC0000F016FA002835D0224818BB039B073398
:102AFC0023F0070308330393099B01340344099320
:102B0C006BE701200CFB01210133AAE700234FF0F6
:102B1C000A0C18460593611C0A780C46303A092AAF
:102B2C0003D9002BC7D00590C5E701230CFB00206F
:102B3C000131F1E703AB00932A4630460E4B04A952
:102B4C00AFF30080421CD7D1AB895B063FF532AFA7
:102B5C00099831E703AB00932A463046064B04A98B
:102B6C0000F082F8EEE700BF423000084830000861
:102B7C004C30000800000000D92800082DE9F0476F
:102B8C00914698468A680B6907469342B8BF13462C
:102B9C00C9F8003091F843200C46089E12B101335D
:102BAC00C9F800302368990642BFD9F800300233C7
:102BBC00C9F80030256815F0060507D104F1190A8B
:102BCC00E368D9F800209B1AAB4229DC94F8433017
:102BDC002268003B18BF012392062ED4414638468A
:102BEC0004F14302B047013021D02368A16803F0FF
:102BFC000603042B12BF0025E568D9F800302269C2
:102C0C0004BFED1A25EAE5758B1A2B449142C8BF17
:102C1C001D464FF000091A344D451AD1002008E02A
:102C2C000123524641463846B047013003D14FF09C
:102C3C00FF30BDE8F0870135C2E73020E11881F89C
:102C4C0043005A1C94F845102244023382F8431076
:102C5C00C4E70123224641463846B0470130E6D04E
:102C6C0009F10109D8E700002DE9F04398460B7EE5
:102C7C0085B0782B174606460C460C9A09D8622B61
:102C8C0001F1430108D8002B00F0DC80582B00F038
:102C9C00BD8004F1420539E0A3F163001528F8D892
:102CAC0001A555F820F000BF0D2D0008212D0008BE
:102CBC009F2C00089F2C00089F2C00089F2C0008BC
:102CCC00212D00089F2C00089F2C00089F2C000829
:102CDC009F2C0008312E00084D2D0008DF2D000818
:102CEC009F2C00089F2C0008592E00089F2C0008D0
:102CFC004D2D00089F2C00089F2C0008E72D000884
:102D0C00136804F14205191D1B68116084F84230E8
:102D1C000123A8E013682568181D1060280601D54A
:102D2C001B6803E06A06FBD5B3F90030002B03DA0D
:102D3C002D225B4284F843200A22DFF878C113E08D
:102D4C002568106815F0800F50F8043B02D16D0611
:102D5C0048BF9BB21060227EDFF858C16F2A5DD14C
:102D6C000822002084F843006568002DA56005DB6F
:102D7C0020681D4320F00400206051D00D46B3FBA9
:102D8C00F2F002FB103E1CF80EE09A4205F801ED41
:102D9C000346F4D9082A0BD12368DA0708D523692E
:102DAC0062689A42DEBF302305F8013C05F1FF351D
:102DBC00491B21613B4621463046CDF8008003AAD1
:102DCC00FFF7DCFE013053D14FF0FF3005B0BDE80A
:102DDC00F083236843F0200323607823DFF8D8C006
:102DEC0084F845302068156810F0800F55F8043BC6
:102DFC0003D110F0400F18BF9BB21560C50744BF3C
:102E0C0040F02000206023B11022AAE7DFF8A4C014
:102E1C00E6E7226822F020022260F5E70A22A0E70A
:102E2C000D46B7E71368D4F800C01D1D60691CF08F
:102E3C00800F15601B6801D0186003E01CF0400F78
:102E4C00FAD0188000230D462361B3E71368191DCF
:102E5C0011601D6800212846626800F059F808B11D
:102E6C00401B606063682361002384F84330A1E752
:102E7C002A46394630462369C0470130A4D023681E
:102E8C009B0714D4E068039B9842B8BF18469DE793
:102E9C0001233946304604F11902C047013093D062
:102EAC000135E36803995B1AAB42F1DCEAE70025D4
:102EBC00F7E700BF5330000864300008884210B5B3
:102ECC0001EB020402D98442234607D8431EA142D7
:102EDC0007D011F8012B03F8012FF8E702448242C6
:102EEC0000D110BD13F8011D02F8011DF7E7000019
:102EFC0038B50023054C05460846236000F05AF807
:102F0C00431C02D1236803B12B6038BD8C02002016
:102F1C00034610B5C9B20244934201D1002004E02B
:102F2C001846047801338C42F6D110BD0A44914204
:102F3C0000F1FF3300D1704710B511F8014B9142ED
:102F4C0003F8014FF9D110BD2DE9F04107461546A4
:102F5C000C4621B91146BDE8F041FFF72FBC2AB948
:102F6C00FFF7C0FB2C462046BDE8F08100F01AF8B4
:102F7C008542064602D8B5EB500FF4D829463846A0
:102F8C00FFF71CFC804608B94446ECE7B5422A46DC
:102F9C00214628BF3246FFF7C9FF21463846FFF7C6
:102FAC00A1FBF1E751F8043C181F002BBCBF0B58D8
:102FBC00C0187047044A05491368002B08BF0B461C
:102FCC0018441060184670479C020020A002002094
:102FDC00F8B500BFF8BC08BC9E467047F8B500BFFA
:082FEC00F8BC08BC9E467047CA
:102FF400454C45313431352D32303236312D303374
:103004002D4E686F6D31333A42544E3A256C750A31
:103014000D00000000000000000000000102030495
:103024000607080900000000010203040203040566
:10303400060708090A0B0C0D0E0F10100102232DB0
:10304400302B2000686C4C006566674546470030AD
:1030540031323334353637383941424344454600FA
:1030640030313233343536373839616263646566FA
:043074000000000058
:0430780075010008D6
:04307C004D010008FA
:1030800000127A0010000000010000001000002073
:103090000000000054010020BC0100202402002098
:1030A0000000000000000000000000000000000020
:1030B0000000000000000000000000000000000010
:1030C0000000000000000000000000000000000000
:0C30D000000000000000000000000000F4
:0400000508002605C4
:00000001FF
